:400000000040002011000000450B0000450B000080B500AF00F0A0FD80B500AF244B12221A6003F033FC234B180003F061FC012003F03CFC302003F043FA1F4B1F4A1A602C
:400040001F4B8022D2051A601E4B1E4A126802210A431A601C4B1D4A1A601D4B00221A601C4B1C4A126808218A431A60FA23DB00180003F073FA184B180003F0A7FB174B09
:40008000C82252011A60164B164A1A60164B802212061A60154B8022D2021A60144B40221A60074B8022D2051A60C046BD4680BD30001040001BB70004010B40060000807B
:4000C0000C020B4078002E407C002E402D3E000064F02E406CF02E40DC050000000301400000014040FF008008010B4000010B400401014080B582B000AF72B6384B0022F2
:400100001A60FB1D00221A7022E0FB1D1A7813005B009B185B00334A9B183B603B681A78597809020A43997809040A43DB781B06134318003B681A795B791B0213439BB219
:40014000190000F0DBFCFB1D1A78FB1D01321A70FB1D1B78012BD8D9234BEE2212061A60224B992212041A60214B992212041A60204B992212041A601F4B992212041A60AE
:400180001E4B992212041A601D4A1D4B1B78DBB206210B43DBB213701A4BD82212041A60194B20221A60194BC42292021A60184B20221A60174B40221A60174B80225203FA
:4001C0001A60164B80221A60154B802212041A60FFF722FF00F0A2FCC046BD4602B080BD6CF02E40847E0100000002400001024000500F4010500F4020500F4030500F40AB
:4002000000700F40080004400001044008010440180104400002044008020440000304400803044010B5064C2378002B07D1054B002B02D0044800E000BF0123237010BD29
:4002400058100020000000000C7A0100084B10B5002B03D00749084800E000BF07480368002B00D110BD064B002BFBD09847F9E7000000005C1000200C7A0100A80B0020AB
:400280000000000090B583B000AF62B602F082FEBC1D1E4B180000F04DFD030023801C4B180003F0F1F8BB1D1B88002B22D1194B180003F0E9F8184B180003F0E5F8174B62
:4002C000180003F0E1F8164B180003F0DDF8154B180003F0D9F8144B180003F0D5F8134B180003F0D1F803F0C5FF114B180003F0CBF804E00F4B180003F0C6F8FEE700F077
:40030000A9FB00F019F803F0B5FFF8E72D040000107A01001C7A01005C7A01009C7A0100E07A0100FC7A01001C7B0100647B0100807B0100387B010090B583B000AF304BB5
:400340001B78042B04D0062B34D0022B0CD052E02C4B1B78DBB2002B48D000F065FE2A4B180003F091F841E0284B1B781F2B06D000F0CEF9264B180003F086F838E0254BC1
:400380001B78DBB201225340DBB2002B06D000F03DFA214B180003F077F829E01F4B1B78DBB2012B24D01E4B180003F06DF800F063FA1DE01B4B180003F066F8114B1B7838
:4003C000DBB2002B0ED0BC1D174B180000F03EFE03002380BB1D1B88002B0BD1094B00221A7007E0002000F0CDFD03E0C04602E0C04600E0C046C046BD4603B090BDC04639
:40040000B42200207E100020D87B010087100020F47B01007F100020187C0100C4220020407C0100647C01008010002080B586B000AF786039607B68522B00D937E17B6846
:400440009A00A04BD3181B689F463B687B617B691B78042B00D02CE17B691B7A062B00D027E17B69DB6801331B78FF2B00D020E17B69DB6802331B78312B00D019E17B693E
:40048000DB6803331B78012B00D012E17B69DB6804331B783B2B00D00BE17B69DB6805331B78042B00D004E1874B01221A707B695B68864A1000190006231A0003F099FE6C
:4004C0007B695A78814B9A71814B180002F0DCFFEFE07D4B00221A707E4B00221A707E4B00221A707D4B180002F0CEFFC04602F07FFE01007A4B1A6880231B02134001D051
:40050000012300E00023CB18002BF0D102F054FD02F092FE02F0D2FD02F03CFDCEE03B683B613B695B6805336E491022180003F051FE031E1CD13B695B6803331B789AB2BB
:40054000694B1A803B695B6804331B781B021AB2654B1B881BB213431BB29AB2624B1A805D4B1B7802221343DAB25B4B1A70A2E03B695B6805335D491022180003F02AFEA0
:40058000031E00D097E03B695B6803331B789AB2574B1A803B695B6804331B781B021AB2534B1B881BB213431BB29AB2504B1A80494B1B7804221343DAB2474B1A707AE0AA
:4005C0003B68FB60FB685B6803331B78292B00D073E0FB685B6802331B78022B00D06CE0FB685B681B789AB2424B1A80FB685B6801331B781B021AB23E4B1B881BB213430F
:400600001BB29AB23B4B1A80334B1B7808221343DAB2314B1A7050E03B685B88162B04D83B685A88344B1A8002E0334B17221A80294B1B7810221343DAB2274B1A703DE086
:400640003B68180000F000F938E03B68BB60BB685B681A88294B1A80BB685B685A88284B1A801D4B1B7801221343DAB21A4B1A7024E03B685B88162B04D83B685A881E4B11
:400680001A801BE01C4B17221A8017E0114B01221A701C4B180002F0F7FE1B4B180002F0F3FE0BE0194B180002F0EEFE06E0C04604E0C04602E0C04600E0C046C046BD46B2
:4006C00006B080BD387D01007E10002080100020947C01007F10002087100020CC7C010008022440B07B010074100020C07B01007610002078100020AC0B00207A100020EA
:400700007C100020E47C0100007D01001C7D010080B500AF354B1B78012B1AD002DC002B05D05EE0072B32D00F2B4AD059E0304B304A1178527812020A4300201204120CAD
:40074000010C09040A43100019685A6810F032FD47E0294B1A88294B1A80294B1A88274B5A80264A234B1188528812040A43002111001A785B781B021A4300231204120CC7
:400780001B0C1B041343180010F0F8FC29E01D4B1B8801339AB21C4B1A80194B1A881A4B5A801949134B1A785B781B021A4300231204120C1B0C1B041343180010F0C8FC49
:4007C0000FE00C4B1A785B781B021A4300231204120C1B0C1B0413431721180010F006FDC04603F047FDC046BD4680BD87100020D07B0100C82200207A1000209022002082
:400800007C100020741000208C22002080B500AF0A4B1A880A4B1A8109490A4B1A785B781B021A4300231204120C1B0C1B041343180010F06FFDC046BD4680BD78100020E4
:40084000B00B0020C822002080B582B000AF78607B689A89074B1B889A4207D17B685A687B681B891900100002F0A8FCC046BD4602B080BD74100020F0B58FB000AF68462E
:4008800078606F4800880338431E9C4663463B6303003B6100237B613B695B0F9C467B69DA0063461A433B69D90002001500002216006A0FF300FB60FB681343FB60EB0078
:4008C000BB6003000733DB08DB006A46D31A9D466B460033FB6202F0CDFB02001C2318218C46BC4463441A801C2318229446BC4463441B88002B00D19BE01C231822944673
:40090000BC4463441A884E4B1B88033B9A420DDB4C4BFA2292001A80494B1A881C2318218C46BC446344033A1A8010E0454B1B88013B9AB2434B1A80424B1B88002B06D04F
:400940001C2318229446BC44634400221A801C2318229446BC4463441B88002B69D0394BFA2292001A801F2318229446BC44634400221A7018E01F2318229446BC44634456
:400980001C7802F04DFD0300DAB2FB6A1A551F2318229446BC4463441A781F2318218C46BC44634401321A701F2318229446BC4463441B789BB21C2218218C46BC446244F8
:4009C00012889A42D7D8204B1A881C23FB181A811C23FB181C2218218C46BC44624412889A80FA6A1C23FB181A6012231822BA18D4181C23F918154B1A785B781B021A43F7
:400A000000231204120C1B0C1B041343180010F08BFC0300238003F02DFC122318229446BC4463441B88002B03D0094B1B78022BDBD07B689D46C046BD460FB0F0BDC046D1
:400A4000AC0B0020BC0B002076100020C8220020B422002080B500AF224B1B78022B1ED0042B00D039E0012002F056FA1E4B1B685A1E1D4B1A601C4B1B68002B2BD11A4BDC
:400A80001A4A1A601A4B1B7801225340DAB2184B1A70174B1B78180002F016FA1BE0012002F012FA134B1B685A1E124B1A60114B1B68002B11D10F4B0F4A1A600C4B1B78D5
:400AC00001225340DAB20A4B1A70094B1B78180002F022FA01E0C04600E0C046C046BD4680BDC046B4220020C00B002030750000C40B0020C80B002050C3000080B582B0CD
:400B000000AF786039603A687B680021180003F079FBC046BD4602B080BDC04680B500AF054B03221A60054B03221A60044B00221A60C046BD4680BD30003040300031403E
:400B4000000E3F4080B500AF03F018FB03001B680C2B00D1FEE7FEE780B586B000AF224B7B61224B3B61204B7B6135E03B691B68FB603B695B68BB603B699B683B60002375
:400B80007B600CE0FB681A68BB681A60BB680433BB60FB680433FB607B6804337B607A683B689A42EED13B69DB683B6000237B6008E0BB6800221A60BB680433BB607B68EE
:400BC00004337B607A683B689A42F2D13B6910333B617B69013B7B617B69002BC6D103F0D3FAFFF74FFBFEE701000000F080010080B582B000AF154B144A126801218A4306
:400C00001A6000237B600FE07B68032B04D8104B7A689200D35800E00E4B0F4A796889008B507B6801337B607B682F2BECD9FFF761FA0A4B00221A60044B044A1268012120
:400C40000A431A60C046BD4602B080BD0000104000000000450B000000000020C000002080B500AF1B4B00221A701B4B00221A701A4B00221A701A4B00221A70194B5A88A5
:400C8000194B1A80174B9A88174B5A80154B9A79154B1A73134BDA79134B1A71124B0622DA81114B06221A820F4B00225A820E4B64229A820C4B0022DA820B4B0122524247
:400CC0001A830A4B1E221A8000F012F8C046BD4680BDC046DD220020C4220020DB220020DA220020100C002098220020B222002080B500AF0C4B1B88002B05D10B4B0E2215
:400D00000021180003F07EFA074BDB88002B05D1074B06220021180003F074FA01F04AFDC046BD4680BDC046280C0020CC220020BC220020B0B594B004AF78603E23FB18B9
:400D400000221A802823FA18394B1000190014231A0003F04EFA374B1B78002B04D1FFF77FFF344B01221A707B68002B55D0324B7A681A603E23FB181B88002B29D11023F1
:400D8000FB181C22BA185A601023FB182022BA181A601023FB1800221A812023FB181B221A802023FB181B225A802023FB1804221A711C23FB1800221A703E23FC180E233A
:400DC000FA181023FB181100180003F02FFB030023803E23FB181B88002B22D13E23FC182823FD18AE231A01144915480023029300230193052300932B0003F06DFA03004D
:400E000023803E23FB181B88002B0AD10D4B01221A700D4B08221A7003E03E23FB1801221A803E23FB181B881800BD4610B0B0BD907E01008810002094220020C8000020E9
:400E400029160000B4220020B522002090B585B000AF0200FB1D1A70FB1D1B78022B04D90E23FB1801221A804AE0294B1B78062B41D1284B1B78DBB21A00042313403AD11D
:400E8000FB1D1B78002B0BD1234B0A221A82224B5B6820221A80204B5B6830225A8010E0FB1D1B78012B0CD11B4B96221A821A4B5B68C822D2001A80174B5B688022D2016E
:400EC0005A80164BFA1D12781A700E23FC18124B18000FF0F5FA030023800E23FB181B88002B0DD10B4B1B78DBB204221343DAB2084B1A7004E00E23FB180422FF321A80DA
:400F00000E23FB181B881800BD4605B090BDC046B4220020DD220020FC0B0020DB22002080B584B000AF78600A00FB1C1A700023BB60BB68002B20D07B689A79BB681A7094
:400F40000F23FB1800221A7012E00F23FB181B780133BA68D3180F22BA18127879688A5C1A700F23FB181A780F23FB1801321A700F23FB181B78052BE7D9C046BD4604B039
:400F800080BDC04690B585B000AF0200FB1D1A70FB1D1B78022B04D90E23FB1801221A8035E0FB1D1B78002B09D11C4B0A221A811A4B30225A80194B30229A800EE0FB1D11
:400FC0001B78012B0AD1154B96221A81134B802212015A80114BE122D2009A80104BFA1D12781A700E23FC180C4B18000FF0E8F9030023800E23FB181B88002B07D1094B6E
:401000001B78DBB204221343DAB2064B1A700E23FB181B881800BD4605B090BD100C0020DA220020DD22002080B500AF0FF0F4F9054B1B78DBB208221343DAB2024B1A700F
:40104000C046BD4680BDC046DD22002090B585B000AF7860294B1B78062B05D00E23FB180422FF321A8041E07B68002B04D10E23FB1801221A8039E00D23FB1800221A70B5
:4010800012E00D23FB181B780D22BA1812787968895C1B4AD3180A1C5A710D23FB181A780D23FB1801321A700D23FB181B78052BE7D97B689A79124BDA720E23FC18104BFC
:4010C00018000FF023F9030023800E23FB181B88002B0BD1094B05221A700A4B1B88002B04D0084B1B8818000CF01CF80E23FB181B881800BD4605B090BDC046B42200200F
:4011000098220020B222002090B583B000AF104B1B78052B04D0BB1D0422FF321A8011E0BC1D0FF0E5F8030023800A4B1B88002B01D00CF011F8BB1D1B88002B02D1044BF2
:4011400006221A70BB1D1B881800BD4603B090BDB4220020B222002080B582B000AF78607B681B789AB27B6801331B789BB21B029BB213439BB21800BD4602B080BDC04679
:4011800080B582B000AF78607B68DB880D4A934214D10D4B5B88002B08D17B689A880A4B5A807B689A78084B1A7007E0074B1B687A68911D8622520010009847C046BD4667
:4011C00002B080BD052A0000BC2200209422002080B582B000AF78607B689B880B4A934210D10B4B9B88002B04D17B685A88084B9A8007E0074B1B687A68111D862252008D
:4012000010009847C046BD4602B080BD02290000BC2200209422002080B582B000AF78600C4B5A887B689B899A420ED10A4B1B6879688322520010009847084B1B78DBB2CD
:4012400001229343DAB2054B1A70C046BD4602B080BDC046BC22002094220020DD22002080B582B000AF7860C046BD4602B080BD80B582B000AF7860C046BD4602B080BD52
:4012800080B582B000AF7860C046BD4602B080BD80B588B000AF7860394B1B78022B6AD1384B1B88002B66D00823F918354B022208009B180422190002F09BFF7B68596844
:4012C0007B681B891A000823FB180433180002F090FF0823FB18180001F0E0FA294B1B8801339AB20823FB181A80274B1B781900264A0B005B005B185B00D31802331A882B
:401300000823FB185A800823FB181A880823FB185B889A4221D80823F9181D4B1A785B781B021A4300231204120C1B0C1B04134318000FF06BFF031E12D0164B1B6884223B
:401340005200002110009847134B1B78DBB202229343DAB2104B1A7002E0012000F09CFC0D4B1B78DBB201229343DAB20A4B1A70044B00221A80C046BD4608B080BDC046AC
:40138000B5220020AC100020DC220020280C0020C822002094220020DD22002080B588B000AF7860394B1B78022B6AD1384B1B88002B66D00823F918354B022208009B1854
:4013C0000422190002F015FF7B6859687B681B891A000823FB180433180002F00AFF0823FB18180001F05AFA294B1B8801339AB20823FB181A80274B1B781900264A0B0038
:401400005B005B185B00D31802331A880823FB185A800823FB181A880823FB185B889A4221D80823F9181D4B1A785B781B021A4300231204120C1B0C1B04134318000FF046
:40144000E5FE031E12D0164B1B6884225200002110009847134B1B78DBB202229343DAB2104B1A7002E0012000F016FC0D4B1B78DBB201229343DAB20A4B1A70044B00225F
:401480001A80C046BD4608B080BDC046B5220020AC100020DC220020280C0020C822002094220020DD22002080B500AF094B00225A70084B00221A70074B1B78052B03D13E
:4014C000054B07221A7002E0034B08221A70C046BD4680BDC8220020B522002080B582B000AF78607B681B78032B3ED1264B1B78DBB21A000223134037D0244B1B78022BC4
:4015000010D002DC012B05D024E0032B12D0042B18D01FE01E4B1B680822FF3200211000984717E01A4B1B68842252000021100098470FE0164B1B680A22FF320021100023
:40154000984707E0124B1B6885225200002110009847C0460C4B1B78DBB202229343DAB2094B1A70094B00221A707B681B78042B05D1084B1B78052B01D1FFF7C5FDC046BA
:40158000BD4602B080BDC046DD220020B522002094220020B422002080B500AFC046BD4680BDC04680B584B000AF78600E23FB1800221A707B689B79002B1CD10F23FB18ED
:4015C00000221A7012E00F23FB181B787A68D35C002B04D00E23FB1801221A700BE00F23FB181A780F23FB1801321A700F23FB181B78052BE7D90E23FB181B781800BD46F6
:4016000004B080BD80B582B000AF0200BB1D1A80C046BD4602B080BD80B582B000AF7860C046BD4602B080BD80B588B000AF02003960FB1D1A70DA4B1B78DBB2012213433A
:40164000DAB2D74B1A70FB1D1B78712B00D9FAE19A00D44BD3181B689F461423FB1807221A701423FB1800225A701423FB18180004F0E0FD1423FB1807221A701423FB187E
:4016800001225A701423FB18180004F0D3FDC64B1B681800FFF786FF031E11D0C24B1B68180002F0EBFDC04B1B6800211800FFF737FCBD4B1B6801211800FFF731FC0DE0A7
:4016C000BA4B180002F0DAFDB84B00211800FFF727FCB64B01211800FFF722FC03200EF0DBFC1023FB183F221A701023FB1800225A701023FB1818000EF0ECFCAC4B0622A2
:401700001A70ABE13B681800FFF7E8FEA6E13B681A78A84B1A70A1E13B68BB61BB691B78002B00D091E1BB695B78002B0BD1A24B0022DA80A04B00229A809F4B9F4A1A6083
:40174000BB699D4A5A60964B1B78DBB201229343DAB2934B1A7078E1914B1B78DBB21A002023134000D072E1954B1B78102B02D1934B0522DA70934B1B78914A1100180049
:401780000EF05CFE03001A000E23FB181A800E23FB181B88002B06D08B4B1B680E22BA181100362098477E4B1B78DBB201221343DAB27B4B1A70834B1B78814A11001800BA
:4017C0000EF022FA43E13B681800FFF725FF45E13B681800FFF720FF7C4B1B88002B01D00BF0BAFC724B02221A7037E1704B06221A7033E16E4B1B78022B00D129E1684BBE
:401800001B78DBB21A000123134000D121E1644B1B78DBB21A00042313400BD0644B03221A705F4B1B78DBB204229343DAB25C4B1A700EE15A4B1B78DBB21A0008231340B9
:401840000BD05B4B06221A70554B1B78DBB208229343DAB2524B1A70FBE0554B1B78032B00D0F6E0524B06221A70594B1B78002B00D0EEE00120FFF7E9FA031E00D0E8E0DE
:401880004B4B03221A70E4E0494B1B78022B00D1E1E0434B1B78DBB21A000123134000D1D9E03F4B1B78DBB21A00042313400BD03F4B04221A703A4B1B78DBB2042293437C
:4018C000DAB2374B1A70C6E0354B1B78DBB21A00082313400BD0364B06221A70304B1B78DBB208229343DAB22D4B1A70B3E0304B1B78042B00D0AEE02D4B06221A70354B63
:401900001B78002B00D0A6E00120FFF73BFB031E00D0A0E0264B04221A709CE03B681B881800FFF76FFE99E0264A3B681000190002231A0002F05DFC1E4B00221A70264BB2
:4019400000221A70FFF728FE88E0FFF7ADFD85E03B685B88162B05D81E23FB183A6852881A8003E01E23FB1817221A801E23FB1819883B681A8800231204120C1B0C1B0443
:40198000134318000FF092FF68E03B68180000F083F863E03B68180000F0B6FA5EE0C046DD220020A47E0100240C00201C0C0020B4220020C4220020C4100020A80B00203C
:4019C0003C0C0020C822002094220020B2220020DB220020DA220020B522002000F082FE3CE03B68180000F029FD37E03B68180000F0C8FE32E03B681800FFF739FC2DE091
:401A00003B681800FFF708FC3B681800FFF738FC1F4B1B78DBB21A00012313401DD13B6818680FF08DFB18E03B681800FFF730FC14E03B681800FFF7B1FC0FE03B68180088
:401A4000FFF70EFC0AE0C04608E0C04606E0C04604E0C04602E0C04600E0C0460C4B1B78DBB21A00112313400ED0094B1B78DBB201229343DAB2064B1A70064B1B68FA1D2F
:401A80001278396810009847C046BD4608B080BDDD2200209422002080B586B000AF78600023FB60774B1B78012B00D0E6E0764B1B78DBB21A000223134000D1DEE00A2363
:401AC000FB187A6812891A800A23FB181B88062B05D00A23FB181B88142B00D0C7E00823FB187A6852891A801423FB1800221A80ABE07B685A681423FB181B88D318FB603C
:401B00001323FB1800221A70FB681A885F4B1B889A4200D27CE0FB681A885C4B5B889A4200D975E00A23FB181B88062B00D068E0FB6801221A751623FB1800221A8055E03D
:401B40001623FB181A88524913005B009B185B00CB1804331A88FB689B889A423FD11623FB181A884A4913005B009B185B005B5A002B13D11623FB181A88454913005B0087
:401B80009B185B00FA68CB1811000422180002F030FB1323FB1801221A7020E01623FB181B88012B0FD81623FB181B885A1C384913005B009B185B00CB1804331A88FB68ED
:401BC0009B889A420BD0334B1B68FA68111D0C22FF32100098471323FB1801221A701623FB181A881623FB1801321A801623FB181B88022B0CD81323FB181B78002B9FD0B9
:401C000006E0FB6802221A75FB68180000F046FE1323FB181B78002B0DD11B4B1B78DBB21A000123134006D01A4B1B68F9681222FF32100098471423FB181422B9180A220D
:401C4000BA18098812888A181A801423FA180823FB1812881B889A4200D24AE70A4B1B78DBB201229343DAB2074B1A7006E0094B1B680822FF32002110009847C046BD4681
:401C800006B080BDB5220020DD220020B8220020280C00209422002080B582B000AF0200FB1D1A70FB1D1B78002B06D0344B1B780133DAB2324B1A700CE0314B00221A70A4
:401CC000304B00221A8005E02D4B1B780133DAB22B4B1A702A4B1B78022B19D8284B1B781900294A0B005B005B185B009A5A274B1B889A42E8D3224B1B781900224A0B00E1
:401D00005B005B185B009A5A204B5B889A42DBD81B4B1B78022B28D8194B1B781A0013005B009B185B00184A9918194B1A785B781B021A4300231204120C1B0C1B041343AD
:401D400018000FF063FA031E15D0124B1B68842252000021100098470F4B1B78DBB202229343DAB20C4B1A7005E00C4B03221A70002000F0ADFAC046BD4602B080BDC04680
:401D8000DC220020AC100020280C0020B8220020C822002094220020DD220020B522002080B582B000AF78607B68DB884F4A934200D184E04D4A93420BDC4D4A934224D05B
:401DC0004B4A934200DD68E0A822920193420AD087E0484A93423CD0474A93424BD0474A934224D07DE0464B1B88002B04D17B689A88434B1A8074E0424B1B687A68911DE1
:401E000086225200100098476BE03D4B5B88002B04D17B689A883A4B5A8062E0394B1B687A68911D862252001000984759E0344B1B89002B04D17B689A88314B1A8150E035
:401E4000304B1B687A68911D862252001000984747E02B4B5B89002B04D17B689A88284B5A813EE0274B1B687A68911D862252001000984735E0224B9B89002B04D17B6802
:401E80009A881F4B9A812CE01E4B1B687A68911D862252001000984723E0194B9B88002B04D17B689A88164B9A801AE0154B1B687A68911D862252001000984711E0104B5E
:401EC000DB88002B04D17B689A880D4BDA8007E00C4B1B687A68911D8622520010009847C046C046BD4602B080BDC046032A0000012A0000A62A0000C92A0000042A000041
:401F0000CC2200209422002090B593B000AF7860D44B1B78DBB21A000223134000D1D1E13E23FB187A6812891A803C23FB187A6852891A807B685B683B64CB4B1B78032BEA
:401F400000D0C7E04623FB1800221A80B8E03B6C1800FFF701F903001A002423FB181A803B6C02333B643B6C1A782423FB189A703B6C01333B643B6C1800FFF7EDF803002B
:401F80001A002423FB189A803B6C02333B643E23FB181B88152B33D12423FB1802229A752423FB180622396C9B181022180002F020F93B6C10333B64AC4B1B781900AC4ADF
:401FC0000B005B005B185B00D31804331B881A00A84B9A425DD0A54B1B78012B5BD9A34B1B78022B57D8A14B1B789BB2023B9BB22422BA181100180000F0B8FCC0464AE0A7
:402000003E23FB181B88072B48D12423FB1801229A753B6C1800FFF79FF803001A002423FB18DA803B6C02333B64904B1B7819008F4A0B005B005B185B00D31804331B88C1
:40204000C0225201934203D08B4A934206D00BE02423FB181800FFF7A3FE1FE02423FB181800FFF78DF819E0804B1B78012B14D97E4B1B78022B10D87C4B1B789BB2023B5E
:402080009BB22422BA181100180000F06FFCC04603E0C04602E0C04600E0C046714B1B78DBB201229343DAB26E4B1A704623FB184622B9183E22BA18098812888A181A8088
:4020C0004623FA183C23FB1812881B889A4200D23DE7F7E0644B1B78022B00D0F2E04623FB1800221A80E4E03B6C1800FFF734F803001A000C23FB181A803B6C02333B64AB
:402100003B6C1800FFF728F803001A000C23FB185A803B6C02333B643B6C1800FFF71CF803001A000C23FB189A803B6C02333B643E23FB181B88062B30D10C23FB180222AA
:402140009A750FF0E1F80C23FB1859884B4B1A785B781B021A4300231204120C1B0C1B04134318000FF070F8031E07D1444B0C22BA1813CA13C313CA13C388E0414B1B6809
:4021800084225200002110009847364B1B78DBB202229343DAB2334B1A7078E03E23FB181B88082B00D072E00C23FB1801229A753B6C1800FEF7D0FF03001A000C23FB18CE
:4021C000DA803B6C02333B644423FB1800221A8033E04423FB181A88254913005B009B185B00CB1804331A880C23FB18DB889A421CD14423FB181A881D4913005B009B18EE
:402200005B005B5A002B11D14423FB181A88184913005B009B185B000C22BA180220CB1811180422180001F0E4FF0BE04423FB181A884423FB1801321A804423FB181B88DD
:40224000022BC6D9094B1B781900094A0B005B005B185B00D31804331B881A000A4B9A4214D014E0DD220020B5220020DC220020280C0020FEFF000001180000C82200207B
:40228000AC1000209422002012180000C0460F4B1B78DBB201229343DAB20C4B1A704623FB184622B9183E22BA18098812888A181A804623FA183C23FB1812881B889A4208
:4022C00000D211E7C046BD4613B090BDDD22002080B582B000AF0200FB1D1A70FB1D1B78002B06D0354B1B780133DAB2334B1A7009E0324B00221A7005E0304B1B78013362
:40230000DAB22E4B1A702D4B1B78022B19D82B4B1B7819002A4A0B005B005B185B009A5A284B1B889A42E8D3244B1B781900244A0B005B005B185B009A5A224B5B889A429D
:40234000DBD81E4B1B78022B2DD81C4B1B781A001B4913005B009B185B001B4A585ACB185B881B04034319001378527812021A4300231204120C1B0C1B04134318000EF05E
:40238000FDFE031E15D0114B1B680A22FF320021100098470E4B1B78DBB202229343DAB20B4B1A7005E00B4B04221A70002000F0E9F8C046BD4602B080BDC046DC220020F9
:4023C000280C0020B8220020C822002094220020DD220020B522002080B582B000AF3B0000221A803B0000225A80114B1B78002B09D1104B5B8801339AB23B001A800E4B75
:402400001A893B005A803B1D3A0012681A603A1D002311880904090C1B0C1B040B43528812041B041B0C13431800BD4602B080BDDC220020BC220020280C002080B58AB020
:4024400000AF78600823FB1800225A804A4B1B78042B00D08BE0494B1B78DBB21A000223134000D183E01E23FB187A6812891A807B681A7B0823FB181A750823FB187A68BF
:4024800012881A800823FB181B7D012B04D12623FB1804221A8003E02623FB1812221A807B685B683B622423FB1800221A804EE03B6A1800FEF750FE03001A000823FB1806
:4024C0005A803B6A02333B620823FB181B7D022B15D10823FB183A6A043311001022180001F087FE3B6A10333B62254B1B78012B23D10823FB18180000F0FEFB1DE03B6A2F
:402500001800FEF729FE03001A000823FB189A803B6A02333B621A4B1B78002B04D10823FB181800FEF754FE154B1B78012B04D10823FB18180000F0DFFB2423FB18242232
:40254000B9182622BA18098812888A181A802423FA181E23FB1812881B889A42A8D3074B1B78DBB201229343DAB2044B1A70C046BD460AB080BDC046B5220020DD220020DC
:40258000DC22002080B584B000AF0200FB1D1A700C23FB1800221A800C23FB1800225A804A4B1B78012B17D0FB1D1B78002B0DD0464B1B780133DAB2444B1A70434B1B78F9
:4025C000012B09D1FB1D00221A7005E03F4B00221A70FB1D01221A703C4B1B78012B0CD1FB1D1B78180000F0C5FA03001A000C23FB181A60FB1D01221A70344B1B78012BC0
:4026000006D0FFF7E9FE03001A000C23FB181A600C23FB181A882E4B1B889A4215D90C23FB181A882A4B5B889A420ED80C23FB185A88274B1B889A4207D30C23FB181A8873
:402640000C23FB185B889A4203D9204B1B78012BA6D91E4B1B78012B21D80C23F9181D4B1A785B781B021A4300231204120C1B0C1B04134318000EF06BFD031E21D0164B48
:402680001B6885225200002110009847134B1B78DBB202229343DAB2104B1A7011E0104B05221A700C4B1B68892252000021100098470A4B1B78DBB202229343DAB2074B74
:4026C0001A70C046BD4604B080BDC046DC220020B8220020C822002094220020DD220020B522002080B500AF244B1B78DBB21A00022313403FD0224B1B78022B17D002DC3C
:40270000012B05D037E0032B1DD0042B27D032E01B4B02221A700020FFF7BEFA174B1B78DBB201229343DAB2144B1A7023E00120FFF7B2FA114B1B78DBB201229343DAB295
:402740000E4B1A7017E00120FFF7C2FD0B4B1B78DBB201229343DAB2084B1A700BE00120FFF710FF054B1B78DBB201229343DAB2024B1A70C046C046BD4680BDDD22002089
:40278000B522002080B582B000AF7860084B1B78DBB21A000223134005D07B689B790A2B01D1FFF79FFFC046BD4602B080BDC046DD22002080B582B000AFBB1D00221A8001
:4027C00060E0BB1D1B889A1C324913005B009B185B005B5A002B50D13B1D00221A8040E0BB1D1B882C4A1B01D3180C331A683B1D1B881B01D31800221A80BB1C00221A8032
:4028000019E0BB1D1B88244A1B01D3180C331A683B1D1B881B01D318D968BB1C1A8813005B009B189B00CB1800221A80BB1C1A88BB1C01321A80BB1D1B88174A1B01D318D7
:402840000C331A683B1D1B881B01D3189B7A9BB2BA1C12889A42D4D33B1D1A883B1D01321A80BB1D1B880C4A1B01D31809331B789BB23A1D12889A42B2D3BB1D1A88BB1D89
:4028800001321A80BB1D1B88002B9AD0C046BD4602B080BD280C0020600C002080B584B000AF78600D23FB1800221A700E23FB1800221A8046E00E23FB181B88284A1B01E9
:4028C000D31808331B78022B35D10E23FB181B88234A1B01D318043318687B6804331022190001F077FC031E25D10E23FB181B889A1C1C4913005B009B185B005B5A002B9C
:4029000019D10E23FB181B889A1C164913005B009B185B007A68CB1811000422180001F068FC114B1B780133DAB20F4B1A700D23FB1801221A700E23FB181A880E23FB181F
:4029400001321A800E23FB181B88002B04D10D23FB181B78002BAED0C046BD4604B080BD600C0020280C0020DC22002080B584B000AF02003960BB1D1A800D23FB180022A2
:402980001A70774B1B68002B0FD0764B1B88BA1D12889A4206D1724B1B683A681288013A92B21A806E4B00221A600E23FB1800221A80ABE00C23FB1800221A703B689B7D98
:4029C000022B27D1BB1D1B88674A1B01D3180C331A680E23FB181B881B01D3181B7A022B18D1BB1D1B88604A1B01D3180C331A680E23FB181B881B01D31858683B680633AE
:402A00001022190001F0E6FB031E03D10C23FB1801221A703B689B7D012B27D1BB1D1B88514A1B01D3180C331A680E23FB181B881B01D3181B7A012B18D1BB1D1B884A4A31
:402A40001B01D3180C331A680E23FB181B881B01D31858683B6806330222190001F0BAFB031E03D10C23FB1801221A700C23FB181B78012B43D1BB1D1B883B4A1B01D31821
:402A80000C331A680E23FB181B881B01D3181B88002B34D1BB1D1B88334A1B01D3180C331A680E23FB181B881B01D3183A6892881A80BB1D1B882C4A1B01D3180C331A68D7
:402AC0000E23FB181B881B01D3183A6892785A72BB1D1B88244A1B01D3180C331A680E23FB181B881B01D3189A1C1D4B1A601D4BBA1D12881A800D23FB1801221A700E23A5
:402B0000FB181A880E23FB1801321A80BB1D1B88154A1B01D31809331B789BB20E22BA1812889A4205D20D23FB181B78002B00D140E70B4B1B68002B0DD0094B1A680B4B7D
:402B40001B7818000A4903005B001B185B00CB1802331B881380C046BD4604B080BDC046D0100020D4100020600C0020DC220020280C002080B584B000AF0200FB1D1A705F
:402B80000823FB1800221A800823FB1800225A80FB1D1B78002B2DD0524B1B880133524A1288524912018A1809321278934206D24C4B1B8801339AB24A4B1A8023E04A4B21
:402BC0001B88013309D1484B1B8801339AB2464B1A80444B00221A8015E0454B1B780133DAB2434B1A703F4B1B8801339AB23D4B1A8008E03C4B00221A803A4B00221A80CD
:402C0000FB1D01221A70384B1B88384A1B01D31809331B789AB2334B1B889A421FD9324B1B88324A1B01D3180C331A682D4B1B881B01D3181B8801339AB20823FB181A808F
:402C4000294B1B88294A1B01D3180C331A68254B1B881B01D3185A880823FB185A800823FB181A88234B1B889A4215D90823FB181A88204B5B889A420ED80823FB185A8823
:402C80001C4B1B889A4207D30823FB181A880823FB185B889A420CD9134B1B88134A1B01D31809331B789AB20E4B1B889A4200D96EE70C23FB180822BA1812681A600C23AB
:402CC000FA18002311880904090C1B0C1B040B43528812041B041B0C13431800BD4604B080BDC046CE100020CC100020600C0020DC220020B822002080B584B000AF786024
:402D00000E23FB1800221A700F23FB1800221A70B9E00D23FB1800221A707B681B7D022B37D1664B1B88664A1B01D3180C331A68644B1B881B01D318D9680F23FB181A783D
:402D400013005B009B189B00CB181B7A022B20D15A4B1B885A4A1B01D3180C331A68594B1B881B01D318D9680F23FB181A7813005B009B189B00CB1858687B68043310223C
:402D8000190001F027FA031E03D10D23FB1801221A707B681B7D012B37D1484B1B88484A1B01D3180C331A68464B1B881B01D318D9680F23FB181A7813005B009B189B00B5
:402DC000CB181B7A012B20D13C4B1B883C4A1B01D3180C331A683B4B1B881B01D318D9680F23FB181A7813005B009B189B00CB1858687B6804330222190001F0EBF9031ED2
:402E000003D10D23FB1801221A700D23FB181B78012B31D1294B1B88294A1B01D3180C331A68284B1B881B01D318D9680F23FB181A7813005B009B189B00CB181B88002BD6
:402E40001AD11E4B1B881E4A1B01D3180C331A681C4B1B881B01D318D9680F23FB181A7813005B009B189B00CB187A6852881A800E23FB1801221A700F23FB181A780F2313
:402E8000FB1801321A700D4B1B880D4A1B01D3180C331A680B4B1B881B01D3189B7A0F22BA1812789A4205D20E23FB181B78002B00D12EE7C046BD4604B080BDCC100020F5
:402EC000600C0020CE10002080B584B000AF0200FB1D1A700F4B1B68DAB20F23FB1840218A431A70FB1D1B789B01DBB240221340D9B20F23FB180F22BA1812780A431A7069
:402F0000044B0F22BA1812781A60C046BD4604B080BDC0460002044080B584B000AF0200FB1D1A700D4B1B68DAB20F23FB187F210A401A70FB1D1B78DB01D9B20F23FB18C2
:402F40000F22BA1812780A431A70044B0F22BA1812781A60C046BD4604B080BD0003044080B500AF00F09CF9C046BD4680BDC04680B500AF064B064A1268802109060A43A5
:402F80001A6000F033F800F039F8C046BD4680BD0000244080B500AF064B1B78002B04D1FFF7DEFF034B01221A70FFF7E1FFC046BD4680BDD810002080B500AF092000F0FA
:402FC000A7FB00F023F8074B064A1268520052081A60054B00221A60092000F0AFFBC046BD4680BD00002440880F244080B500AF092000F077FBC046BD4680BD80B500AFF5
:4030000000F0D8F9C046BD4680BDC04680B500AF00F0EAF9C046BD4680BDC04680B582B000AF00237B600F4B1A680F4B1B689A4212D00D4B1B6801333B603B680B4A93427E
:4030400001D100233B600A4A3B68D3181B78DBB27B60054B3A681A607B681800BD4602B080BDC046F0320020E822002001080000EC2A002080B582B000AF0D4B1B683B604D
:403080000C4B1B683A689A4205D30A4B1B683A68D31A7B6007E0074B1B683A68D31A064A944663447B607B681800BD4602B080BDF0320020E82200200108000080B500AF61
:4030C000092000F025FB0E4B1A680E4B1A600E4B00221A700D4B0D4A1268802149020A431A600A4B094A126809490A401A60094B094A1A60092000F0F5FAC046BD4680BD61
:40310000E8220020F0320020ED32002004032440FFFFFEFFC00F2440ED0F000080B584B000AF78601E4B1A681E4B1B689A4209D11D4B1B681F221340082B03D01B4B7A6805
:403140001A6028E0164B1B680133FB60FA6880231B019A4201D10023FB60C046114B1B68FA689A42FAD0124B02221A607B68D9B2104AFB68D3180A1C1A70094BFA681A602F
:403180000D4B1B680222134005D10B4B0A4A126802210A431A60C046BD4604B080BDC046E4220020E02200200802244040022440800F2440EC220020880F244080B584B0F8
:4031C00000AF786039600023FB6009E07A68FB68D3181B781800FFF7A1FFFB680133FB60FA683B689A42F1D3C046BD4604B080BD80B582B000AF0E4B1B683B600D4B1A68DF
:403200003B689A4205D30B4B1A683B68D31A7B6008E0084B1A683B68D31A80221201944663447B607B681800BD4602B080BDC046E0220020E422002080B500AF092000F05E
:4032400067FA104B1A68104B1A60104B0F4A126802218A431A600E4B0D4A1268802149020A431A600A4B0A4A12680A490A401A60094B0A4A1A60092000F034FAC046BD461A
:4032800080BDC046E0220020E4220020880F244004022440FFFFFEFF800F2440F307000080B500AF294B2A4A1A602A4B00221A60294B2A4A1A602A4B2A4A1A602A4B07227C
:4032C0001A602A4B00221A60294B01221A60294B244A1A60284B00221A60284B04221A60092000F015FA0321092000F0A7F9244B1900092000F07CF9224B00221A60224B23
:4033000000221A60214B00221A60214B00221A60204B04221A60204B00221A601E4B1B689AB21E4B1A801E4B00221A601D4B00221A601D4B00221A701C4B00221A601C4B0D
:4033400000221A60C046BD4680BDC046000024400F000002400024404800244001000A00000324400700008004032440100324404400244000022440040224405000244099
:4033800011390000880E2440C80E2440480F2440080F2440C80F2440880F2440DA100020F0320020E8220020ED320020E4220020E022002080B500AF074B074A12680749D5
:4033C0000A40902109040A431A60054B054A12881A60C046BD4680BD00010240FFFF0FFF880F2440DA10002080B500AF084B084A126808490A401A60074B1B689AB2E42371
:40340000DB0013409AB2054B1A80C046BD4680BD00010240FFFF0FFF880F2440DA10002080B582B000AF092000F072F9FFF722FE031E07D0092000F055F9FFF7EFFD03009A
:403440007B6008E00E4B1B687B600E4B04221A60092000F047F90B4B1A68D8239B0013403B60084BD82292001A603B681B027A6813437B607B681800BD4602B080BDC04605
:4034800040032440C00F244080B584B000AF78600023FB6009E07A68FB68D3181B781800FFF73CFEFB680133FB607A68FB68D3181B78002BEFD1C046BD4604B080BDC04630
:4034C00090B58BB000AF78602723FC1800F019FA03002370194B1A680C23FB181A60184B1A680C23FB185A607B68033B154AD35C1A000C23FB189A60134B1A680C23FB1824
:40350000DA601C23FB18114A1A600C23FA181C23FB185A600E4B1C22BA181A600D4B0E4A1A600B4B1B682723FB181B78180000F0ECF9C046BD460BB090BDC04608010B40AF
:4035400000010B409C80010030001040B6EA000008001040040010401700008080B584B000AF78600023FB60154B154A126801210A431A60134B144A1A60144B134A126883
:40358000802109020A431A607B68002B12D01023FB600CE0012000F019F900F019F8031E02D00023FB6005E07B68013B7B607B68002BEFD1FB681800BD4604B080BDC04677
:4035C00060F02E4078002E400220000010002E4080B582B000AF054B1B68012213407B607B681800BD4602B080BDC0460C002E4080B584B000AF02003960FB1D1A708023E8
:403600009B05FB60FB1D1B781F2B02D9002000F0ABF8FB1D1B7810339B00FA68D3181B68BB60FB1D1B7810339B00FA68D3183A681A60BB681800BD4604B080BD90B587B0FB
:4036400000AF0200FB1D1A70BB1D0A1C1A70BB1D1B78032B02D9002000F086F8FB1D1B781F2B02D9002000F07FF8FB1D1B7803221340DB0006337B611323FC1800F041F98F
:4036800003002370FB1D1B789B08DBB29B00144A944663441B68FB6003227B699A401300DA43FB681340FB60BB1D1A787B699A401300FA681343FB60FB1D1B789B08DBB2F4
:4036C0009B00074A94466344FA681A601323FB181B78180000F019F9C046BD4607B090BD00E400E080B582B000AF0200FB1D1A70064BFA1D12781F210A40012191400A0087
:403700001A60C046BD4602B080BDC04600E100E080B582B000AF0200FB1D1A70064BFA1D12781F210A40012191400A001A60C046BD4602B080BDC04680E100E080B582B0FD
:4037400000AF0200FB1D1A70064BFA1D12781F210A40012191400A001A60C046BD4602B080BDC04680E200E080B582B000AF0200FB1D1A7001BEC046BD4602B080BDC0464C
:4037800080B582B000AF786009E00D4B1B68180000F0AEF87B680B4A944663447B607A6880231B029A42F0D8074B1B687A685343180000F09DF8C046BD4602B080BDC046E7
:4037C0007C0C00200080FFFF740C002080B582B000AF0200BB1D1A80BB1D1B88044A12785343180000F084F8C046BD4602B080BD780C002080B500AF0F4B0F4A126801213D
:403800008A431A600C4B0C4A126802218A431A600A4B0A4A126830218A4310210A431A60064B064A126807218A4301210A431A60C046BD4680BDC04600F02E4000FF2E4067
:4038400080B500AF0F4B0F4A126802218A431A600D4B0D4A126807218A4302210A431A60094B094A126830218A4320210A431A60044B044A126801210A431A60C046BD4675
:4038800080BDC04600F02E4000FF2E4080B500AFFFF7B0FF044B044A1268802109060A431A60C046BD4680BD00F02E4080B584B000AF78600C4B1B6801221340FB607B68C1
:4038C000002B02D0012B03D005E0FFF793FF06E0FFF7B6FF03E00020FFF746FFC046FB681800BD4604B080BD00F02E40000000000230800803D00138FDD1C046C046C04617
:403900007047EFF3108072B6704780F31088704780B582B000AF344B1B68002B02D0324B1B689847314B1B680422134027D0304B1B6801337B607B682E4A934201D1002328
:403940007B602D4B1B687A689A4205D12B4B1B682B4B20221A700AE0284B1B68D9B2294A7B68D3180A1C1A70214B7A681A60264B1B681F221340DAD1244B04221A60244BCD
:403980001B68022213402BD0224B1A68224B1B689A4215D0204B1B6801333B603A6880231B019A4201D100233B601C4B1C493A688A181278D2B21A60174B3A681A6006E0EC
:4039C000184B184A126802218A431A6005E0164B1B681F221340082BD6D1144B02221A60C046BD4602B080BDDC100020CC0F2440F032002001080000E8220020400324408B
:403A0000ED320020EC2A002008032440C00F24408C0F2440E4220020E022002040022440EC220020880F244008022440800F244080B582B000AF78600A00BB1C1A80BB1CB8
:403A40001A887B681A60C046BD4602B080BDC04680B582B000AF78600A00BB1C1A80BB1C1A887B681A60C046BD4602B080BDC04680B584B000AF494B1B78DBB21B02484A91
:403A80001278D2B21343FB60464B1B78DBB21B02454A1278D2B21343BB60BB68434A934207D1FB68072B04D1414BBB600423FB6009E0BA68D4231B019A4204D1FB68042B1A
:403AC00001D13B4BBB603B4BBA681A603A4BFA681A603A4B1B78DBB21B02394A1278D2B21343FB60FA6880239B019A4202D0FB68002B01D1334BFB60334BFA681A60334B6C
:403B00001B78DBB21B02324A1278D2B21343FB60FB68304A934206D0FB682F4A934202D0FB68052B01D12D4BFB602D4BFA681A602C4B1B681B097B602B4B1B68AA2B29D1B5
:403B40007B68012B26D9214B1B78DBB20E2B21D1264B1B78DBB29BB21B0299B2244B1B78DBB29AB2BB1C0A431A80224BBA1C12881A60214B1B78DBB29BB21B0299B21F4B9F
:403B80001B78DBB29AB23B000A431A801C4B3A0012881A60C046BD4604B080BDD9F0FF0FD8F0FF0FDFF0FF0FDEF0FF0F580B0000580D00006C002E4074002E40DBF0FF0F05
:403BC000DAF0FF0F0220000078002E40DDF0FF0FDCF0FF0F0F0F000005050000050F000080002E40EC0F00F0E00F00F06DF2FF0F6CF2FF0F84002E406FF2FF0F6EF2FF0F94
:403C000094002E4080B582B000AF0200BB1D1A80BB1D1B881800FFF7D9FDC046BD4602B080BDC04680B582B000AF78607B681800FFF7A6FDC046BD4602B080BD80B500AF3D
:403C400000F0ECF8C046BD4680BDC04680B500AF00F0F0F8C046BD4680BDC04680B500AF00F0E8F8044B180000F0A2F8032000F0ADF8C046BD4680BD813E000080B500AFD6
:403C8000034B180000F080F8C046BD4680BDC046813E000080B500AF0223FF331800BD4680BDC04680B582B000AF78602B231800BD4602B080BDC04680B582B000AF786058
:403CC0002B231800BD4602B080BDC04680B582B000AF78602B231800BD4602B080BDC04680B582B000AF78602B231800BD4602B080BDC04680B582B000AF78602B2318007A
:403D0000BD4602B080BDC04680B582B000AF78602B231800BD4602B080BDC04680B582B000AF78602B231800BD4602B080BDC04680B582B000AF78602B231800BD4602B0EA
:403D400080BDC04680B500AF2B231800BD4680BD80B582B000AF0200FB1D1A702B231800BD4602B080BDC04680B582B000AF786039602B231800BD4602B080BD80B500AF9B
:403D8000C046BD4680BDC04680B582B000AF786000F050F87B68180000F00AF8032000F015F800F03BF8C046BD4602B080BDC04680B582B000AF7860034B7A681A67C046BE
:403DC000BD4602B080BDC0460000002090B585B000AF0200FB1D1A700623FB600B23FC18FFF78FFD030023700B4B0B4A1268C0218A431100FA1D1078FA68904002000A43FC
:403E00001A600B23FB181B781800FFF77EFDC046BD4605B090BDC0460CE400E080B500AF034B802252011A60C046BD4680BDC04600E100E080B500AF034B802252011A607B
:403E4000C046BD4680BDC04680E100E090B583B000AFFC1DFFF755FD03002370074B074A126804218A431A6030BFFB1D1B781800FFF74BFDC046BD4603B090BD10ED00E038
:403E800080B500AF13F0AEFDC046BD4680BDC046002243088B4274D303098B425FD3030A8B4244D3030B8B4228D3030C8B420DD3FF22090212BA030C8B4202D3121209023D
:403EC00065D0030B8B4219D300E0090AC30B8B4201D3CB03C01A5241830B8B4201D38B03C01A5241430B8B4201D34B03C01A5241030B8B4201D30B03C01A5241C30A8B4291
:403F000001D3CB02C01A5241830A8B4201D38B02C01A5241430A8B4201D34B02C01A5241030A8B4201D30B02C01A5241CDD2C3098B4201D3CB01C01A524183098B4201D309
:403F40008B01C01A524143098B4201D34B01C01A524103098B4201D30B01C01A5241C3088B4201D3CB00C01A524183088B4201D38B00C01A524143088B4201D34B00C01AA3
:403F80005241411A00D20146524110467047FFE701B5002000F0F0F802BDC0460029F7D076E7704703460B437FD4002243088B4274D303098B425FD3030A8B4244D3030B88
:403FC0008B4228D3030C8B420DD3FF22090212BA030C8B4202D31212090265D0030B8B4219D300E0090AC30B8B4201D3CB03C01A5241830B8B4201D38B03C01A5241430B54
:404000008B4201D34B03C01A5241030B8B4201D30B03C01A5241C30A8B4201D3CB02C01A5241830A8B4201D38B02C01A5241430A8B4201D34B02C01A5241030A8B4201D3D4
:404040000B02C01A5241CDD2C3098B4201D3CB01C01A524183098B4201D38B01C01A524143098B4201D34B01C01A524103098B4201D30B01C01A5241C3088B4201D3CB0058
:40408000C01A524183088B4201D38B00C01A524143088B4201D34B00C01A5241411A00D201465241104670475DE0CA0F00D04942031000D34042534000229C4603098B426E
:4040C0002DD3030A8B4212D3FC22890112BA030A8B420CD3890192118B4208D3890192118B4204D389013AD0921100E08909C3098B4201D3CB01C01A524183098B4201D3B2
:404100008B01C01A524143098B4201D34B01C01A524103098B4201D30B01C01A5241C3088B4201D3CB00C01A524183088B4201D38B00C01A5241D9D243088B4201D34B0010
:40414000C01A5241411A00D20146634652415B10104601D34042002B00D54942704763465B1000D3404201B5002000F005F802BD0029F8D016E770477047C046014B1868B0
:404180007047C046541000200E4B70B500251E000D4CE41AA410A54204D0AB00F35898470135F8E713F092FF084B00251E00084CE41AA410A54204D0AB00F3589847013557
:4041C000F8E770BDD8800100D8800100D8800100E080010030B50024A24208D0035D651C0C5DA34201D0181B02E02C00F4E7002030BD002310B59A4203D0CC5CC45401334E
:40420000F9E710BD03008218934202D019700133FAE77047134A1088810703D08107890F401A001D11791030484381B25088820703D08207920F801A001D800040180A4989
:404240004030098980B2CA0701D0503080B2890706D504495422091F09785143081880B2704700008A0C0020EC10002010B501F007FF10BD10B500F05BFA10BD10B50749FB
:40428000044609780220002907D1204601F048FF002802D120460CF011F810BD360E002070B504460120002C12D02368002B0FD0616800290CD0074D0622288920811846AE
:4042C0002968FFF796FF6968606809780170002070BD0000EC100020FFB585B0002768460E9D07734F481C460078002802D0082009B0F0BD10990F9801900095029105A81C
:4043000007C800F007F90028F2D16946264603AB84460873002C19D0002115E08A00B75A082F09D990198078002805D0083FB7521878401C187005E0002914D00027B75262
:4043400090198770491CC9B2A942E7D360460028CED10F98002809D0109901F041FA002804D00120C4E701208446EFE701F088FE2D4800214160816005990160218881806D
:40438000022D07D3A1798171A17AC171A1890181218A418100211EE0481C19E082008B00A75AE65ABE46BE4211D26F463E80B4461E190296B678BE7001967646E65217197E
:4043C000029EBB78B3706646A652019EBE70401CA842E3D3491CA942DED3134822460C3000906846037B0799069800F01BF90028B8D168460B4C007B60700B480C3001F0DB
:404400006FFE0028AED1084907480C3108F040FE0028A7D108F05AFE0028A3D10121217066E70000840C0020E0100020F8B5054636480F460078002802D002242046F8BD8B
:40444000002F60D000243249002D16D02A89D0070DD02868002808D003881B3BE12B04D24088FB2801D81B2801D2012409E0900707D56868002804D1F7E70020088108605A
:404480004860002CDAD122482E8906811F481B21801D01804180042101711C490020891C0870F00705D019480622801D2968FFF7A0FE1749B00703D56A681448127882706A
:4044C000124D0E46AD1D281F0D60486001F04EFE284601F03DFE30890FF0C8FE30890EF06BFF28880EF06EFF308910F041F803461033FFF78FFE1F21C0188901401838809F
:40450000A91F88809AE7012498E70000840C0020EC100020FFB58446384F1C460020BB883F78054602460646002F11D100290ED0029999420BD36146002908D0002C06D044
:404540000A99002906D02E4B0B99994202D2012004B0F0BD002144E0AB001F19BF78002F3BD0E35A002B38D07B43591889B22B0000F04AF8050410161C253100A778238810
:40458000BC46FF27233BEB37BB4222D26346032B1FD322E0A388002B1FD0302B19D31CE02389002B19D0282B13D316E0A289002A13D01346134F233BBB420AD20DE0268A59
:4045C000002A0AD033460F4F233BBB4201D2964203D901200EE0002001E000280AD16D1CEDB2099B9D42B7D31C2463435B1802998B42ACD89642AAD8AAE70000840C0020D6
:4046000079020000BAFF000030B47446641E2578641CAB4200D21D46635D5B00E31830BC18470000FFB583B0002469460C801F4606468C80002806D00598002803D0049851
:404640003043800701D0012466E0002FFBD03449049809888842F6D3FFF710FBFFF7F6FA00F012FC002855D100F07AFD002851D12C49084601F0E8F805042D0C4AD12A4886
:404680000499066081800021C18007810C98007AC00704D0684601F00CFD040007D10C98007A800703D501A801F00CFD0446BF1DFEB2002C20D13146059800F05DF804005F
:4046C0001AD10FF063FF040016D16A461088928808368518144AF1B29088D288AEB29319984207D3401B801A80B201F09DFB050007D000E0FF25012400F05EFA002D04D015
:4047000008E0F8B200F01CF9F6E700F081FA07490120087000F0CAFB204607B0F0BD0000880C002065480000F8100020900C002010B503480078012801D101F017FA10BD9B
:40474000900C002070B5084B0446DA889E8800205518B54206D81D68AA182260DA885118D98070BD032070BDF81000200148008970470000F8100020F0B587B007460D4612
:4047800000208900009006916846FFF7DBFF844600285DD1304800990160002117E02E4B88001A680629115406D22C4C0419667882185670628805E0C419203CA67A82187D
:4047C000567022891B68C018491C4280C9B2A942E5D300242DE0601CC2B2059025E01E4FA30039689600581840887118039604904E88B04217D938466F46FE80B6464F788C
:404800006E4677710297049F4F800168039F5E18767879184E700168764659184E800068029F18184770521CD2B2AA42D7D30598C4B2AC42CFD36046002809D1684606999F
:40484000FFF780FF8446002802D1054900980860604607B0F0BD0000940C002000810100980C00207047000010B5002809D005494A68002A05D0011F08788000105801F0AB
:4048800081FA10BD940C002010B50446FFF76EFFC0B2801DA0420CD307484068002808D0A100405801F0E0F9002801D00470001D10BD002010BD0000940C0020F8B51646A7
:4048C0000D460446FFF752FFC0B2801DA04203D20020C0430090F8BDB2B2E9B2684601F0E9F90099481C03D0024AA000526811500098F8BD940C0020F8B50746FFF736FF1D
:40490000801DC6B20A49002005460C680DE06178002907D06188B94202D32078FFF7B4FF002804D1241D6D1CEDB2B542EFD3F8BD940C002010B5002801D0FFF795FF10BDC7
:4049400070B506460948002504680BE06178002905D062882078121D0023FFF7AFFF241D6D1CEDB2B542F1D370BD0000940C0020FFB581B00A9F16000C4620D000F0F2F8D9
:40498000054604281BD0002F0CD03846FFF7B4FF20492A0151184860002810D03A460499FFF727FC1B4928010E504618778101980570200406D47D20C000444304E0FF204C
:4049C00005B0F0BD6404640C00F0BAF80746042807D000F04FFAA0420BD800F04BFA201A03E0204600F0AAFA0020F06035720020E6E700F03FFA009000F0B6FA009801212A
:404A0000001B009000F0ECF802493A0151180098C860E6E704110020F8B5060116483418217A042903D0E068002802D017E00020F8BD00F01FFA054600F096FA00F0A0F8E3
:404A400004280CD001010C480F18F8680021451900F0C6F80020F860284600F06FFA6068054D002801D0FFF765FF042020720020A8516081E060DAE704110020FEB50026B9
:404A80006A46304601232549050169180D7A042D02D0C96800291BD000211154401CC0B20428F0D300246846005D002830D01B4821010818418947680568029100210160AE
:404AC0004160042241810272C160002E02D015E01354E3E700F054F804280ED001010F4808180190C6680021304600F079F801980021C160304600F021FA0126002D07D075
:404B000038460299A847002F02D03846FFF712FF641CE4B2042CC6D3FEBD0000041100200EB5002005216A4600901181508103486946006810F0A3FB0EBD00009C0C0020D9
:404B4000074A0020010189180B7A042B02D0C968002903D0401CC0B20428F3D370470000041100200549002002015218127A042A03D0401CC0B20428F6D3704704110020AB
:404B800030B50A4B04200A4C00210A011219157A042D06D0D268002A03D09A4201D808461346491CC9B20429EFD330BDFFFF0000041100207047000030B50020074C054678
:404BC0000423020111190B72A5504D60401C4D81C0B2CD600428F4D330BD00000411002030B5094C00231A011219157A042D04D0D568002906D02D18D5605B1CDBB2042B44
:404C0000F1D330BD2D1AF7E704110020002070471CB5002469460C70142001902346054A054810F031FB04480068401C00D1FF2420461CBD8D4C00009C0C00203EB5124A49
:404C40000146FF2000230124126800290DD0012914D0042908D104206946009308814B81104610F00CFB80B23EBD68460093048143816946104610F0FDFAF4E7684600930B
:404C8000048143816946EBE79C0C002070B545890468416800890300FFF7B6FC08280509091E22282628002006F00EFF1EE0022908D0C8B22A4621460EF0CAFA2046FFF796
:404CC00039FE13E002202A4621460EF0C1FA2946204600F00DF809E000200FF0CFFF05E02046FFF7CBFE01E0FFF748F8002070BD014B0022DB681847A00C002070B54489FC
:404D000005680089022803D0032809D0FF2070BD2246094C0023A46829460120A04708E0FFF7A4FA241DA2B200232946022008F062F8002070BD0000A00C002070470000E6
:404D4000024800214160018041807047A00C002070B50C46002186B016460391012802D0022859D116E003A9012008F099F801281BD1039D324621462846FFF73AFA009548
:404D8000287801900220694608814E816846FFF7B5FF41E0214D002B686809D0049004A9022008F07DF801281DD0022006B070BD002812D0298840182146FFF71AFA2888BF
:404DC0000024801980B228806988091D884206D12C801348FFF792FF03E00320E6E788421AD96C6018E004986860E278A378110219430B4A698000231060E3565360032357
:404E000013815181A1788170E178C1706178417021780170042028800020C7E7A00C0020441100203EB515460C46022803D004280CD000203EBD00910190022069460881CD
:404E400007484A81006810F01AFA07E00EF000FA044B0022DB6829462046984701203EBD9C0C0020A00C0020014AD16090607047A00C0020034801688068081A0A21484342
:404E8000000970475011002010B5FEF7E7FE482204490548FFF7ADF903490120C870002010BD00001C8101005415002010B5FEF7C5FE10BD70B5134C2368002B08D0207BC2
:404EC0001149C20705D04008400020738868A08070BD88680B4AA18880B29268814203D90A4D691A091802E0814202D2411A5118A160A080A0689842EAD310F0DDF900F06B
:404F000013F870BD50110020C0102E40FFFF000010B508461946FFF7A7FF10BD704710B5FFF780FF10BD000003480021016041608160C1607047000050110020024610B52E
:404F4000FF20002A0CD0FFF7EFFF064C0321207B0843207310010A21FFF720F82060002010BD00005011002000B504480A21806848430209FFF7D8FF104600BD50110020F6
:404F80000248007B8007C00F704700005011002010B54B490868002802DA4A4B01221A70022290430860484800694549C00B4031096A0246C907C90F0A4259D0012000F084
:404FC00097FA3F480E216C30FEF742FD3E4820218430FEF73DFD3C4814219C30FEF738FD3948FF21C131A430FEF732FD3648FF212F31B030FEF72CFD33483449BC30FEF7E1
:4050000027FD31483249AC30FEF722FD30492E48491CB430FEF71CFD2B482E49B830FEF717FD29482C49CC30FEF712FD26482B490830FEF70DFD24482949A830FEF708FD98
:40504000214828498830FEF703FD1F4826498C30FEF7FEFC1C481921C9029030FEF7F8FCFEF706FDFEF716FEC0B2022812D01FE000290BD0002101420AD01148012160304B
:40508000FEF7E6FC0120FEF7CDFD97E70121F2E7FF2010BD15491648FEF7DAFC14481549001DFEF7D5FC124800210830FEF7D0FC54200449C043891C0870002010BD00006E
:4050C00000F02E40B00C002000002E40320300002F3F00003102000010520000EC160000FA12000031D000003AE300009956000080012E40F80F000070B50646581C80B2A8
:4051000045086D00002408E0304600F0C1F81055000A1119A41C4870A4B2AC42F4D3D80705D0D0182038D15CC47FD454C17770BD30B50A4C002100195B1E07E05418647860
:405140002502545C2C430480891C89B29942F5DB994201D1515C018030BD000000102E4010B5FF2000F0C4F90F49FF2048700E481021801D41800121417001700A49002038
:40518000C91C4870FFF704FF04000AD100F010F907210648FEF74CFC044807211830FEF747FC204610BD0000B00C0020CC112E4070B5002405465B1E0AE0284600F068F8CB
:4051C000010A161971702D1D1055A41CADB2A4B29C42F2DB9C4203D1284600F059F8105570BD000070B500210A4D5B1E0AE0541864782602545C344346193480001D891C66
:4052000080B289B29942F2DB994202D1515C4019018070BD00102E40F0B50599091FCFB200217E1E0BE0541864782502545C2C43164D45192C80001D891C80B289B2B142C8
:40524000F1DBFC0712D01C78515C24020F4A0C4381180C809C785D78001D210280B2294384182180001D80B2D9780CE059781A7809021143054A84182180001DD9789B78EA
:40528000090280B2194380180180F0BD00102E40014940180088704700102E4010B50B490020487000F084F8002000F047F9002000F034F907210648FEF7BAFB0448072134
:4052C0001830FEF7B5FB002010BD0000B30C0020CC112E4010B50B46062812D006DC01280CD0032801D1FFF7D9FF10BD0A28FCD00B28FAD105480078107010BDFFF730FFD2
:4053000010BD1146184600F035F910BDB60C0020F8B5244DAC6A0127A007234E002816DA307806280ED1286A384328621F480069F903084381B21D481030FEF789FB0420BA
:4053400000F0D6F8174802212830FEF771FBE00718D000F017FF01280FD1002000F064FF062000F0C5F81049FF20C91E48707078002802D1686B384368630A480121283031
:40538000FEF756FBE0050BD53078042802D1052000F0AEF80348FF2101312830FEF748FBF8BD000040F02E40B30C002000002E4010B503212348FEF74BFB0120FEF722FCF0
:4053C00020483038406A204C80076178800F890001431C480C38FEF73BFB6078002808D0401E022181401820FEF7C2FEC000083800E0B82081B21548FEF72AFB1348032150
:4054000009021438FEF724FB10481149B830FEF71FFB612189010F48FEF71AFB0D480321001FFEF715FB0C490C48FEF711FB0B480B496038FEF70CFB084801218838FEF742
:4054400007FB10BD70F02E40B60C0020D8102E4090890000041E2E40FF0F000058122E40209000000849087806280BD148780749002803D1486B400840004863C86A0122F6
:405480001043C86270470000B30C002040F02E400148007870470000B30C002000B50300FFF7B2F8080D050D0B070507090D012000BD032000BD042000BD022000BDFF2094
:4054C00000BD0000074A9168D26889B2064B92B2994204D105498A4201D1012100E000210170704780002E4033D000003FE3000010B50446FEF7AAFB072C01D9FF2C01D1EE
:4055000002480470FEF79AFB10BD0000B30C00200149487070470000B00C002010B5064A012805D01921C9021046FEF791FA10BD1D21C902F8E7000090002E4010B50A4A28
:40554000141D012808D009491046FEF781FA08492046FEF77DFA10BD04491046891CFEF777FA0349491DF3E788002E4031D000003AE3000070B50C460546FEF78BFBC0B2F4
:4055800002280E49287804D0FF2810D04C280CD810E0FF2809D10A4AD0680004800F032801D0087807E09069000A553803E00878207070BD4F382070087070BDB20C0020DA
:4055C00000002E40F0B50122002834D0002932D00424420600D00524792342065B06D21800D0641C034600221EE00C2516466E43124D00277519AF72104F002ABB516960FC
:4056000007D0661EB24209D10D4E86197606760E05E05E06760E8027BE1B00E080269B198919521C2E81D2B2A242DED303480549006B002288611046F0BD0000DC130020C7
:4056400079020000BC0C002018B50020694608700A48006900280ED0132149014018047E684604704F21C900054800F059F8A04201D0012018BD002018BD0000BC0C00202B
:4056800060110020074900200C2242435218927A012A05D0401CC0B20628F5D30020704701207047DC130020F8B50E000446154609D0194F19497868A04202D94018A04264
:4056C00001D38D4201D90120F8BD31462046FEF781FD00281ED02A4631462046FEF789FDE8B200210C224A43D21913895568EE18A6420BD90126641B1B1B9672834209DA11
:405700001469C01A044AC0B220329676491CC9B20629E7D30020F8BDDC13002079020000034610B50020024604E09C5C2018521CC0B292B28A42F8D310BD000070B500F0A5
:405740005FF8084C064A216907480D46FEF751FD05492846FFF736FFFFF776FF207070BD79020000BC0C002060110020002070470020054A002902D0012902D002E09060AD
:4057800000E0D06000207047BC0C002070B5084C154608460549E26889182A46FEF729FDE0684019E06028B270BD000060110020BC0C00203EB50A226946FFF7E7FF0446DF
:4057C00006480A2200686946FEF704FD002802D00020C0433EBD20463EBD0000C00C0020002802D0044A914201D2FF20704703494A6108610020704779020000BC0C00205F
:40580000024800218160C16070470000BC0C002070B5074C15460548A26880182A46FFF743FFA0684019A06028B270BD60110020BC0C002010B503490A220968FFF7E8FF86
:4058400010BD0000C00C002010B50F4A002313600E4A13600E4B18600E4801600E49012008600E490860000290600E490C4808600D4914300860FF381538506000F0BCF8EA
:4058800000F0CAF9002010BDF00C0020D80C0020040D0020080D0020F40C0020E40C002024150020E80C0020FC0C0020014610B50020002910D0094B1A689C685118A142A2
:4058C00009D25868196080188A0704D08A07920F891A091D196010BD002010BDD80C0020F8B50024164E671E321F3D463168136806E01422624310328A58521C1BD0641C05
:405900009C42F6D36A1C14D02C461422544322460C3288500C214843FFF7C8FF3168002808510AD031680020103408517068401C70602846F8BD2546E4E73846F8BD00004A
:40594000E80C0020F3B50026F64381B000281BDB1E490968884217D80299002914D01B4F142204463F1D54432546396810354859401C09D0FEF76AF938682F1F4159C35984
:40598000994203DBFEF75AF93046FEBD214608310091465801590C20704308180C220299FEF727FC0948761C001D0068C159B14200D100260549009A091D86500868415952
:4059C000491C4151FEF73AF90020FEBDE40C0020002803DB07490968884202D90020C043704704491422091D096850431030085870470000E40C0020F0B500200D4A451EC4
:405A00000346171F50600FE014260146714314680E1DA3510C461668083433511668083435511468401C635039688842ECD30020F0BD0000E80C0020F3B50026F64381B0DA
:405A4000002841DB2349096888423DD8029900293AD0204F142204463F1D54432546396810354859401C2FD0FEF7F0F83868415900292BD0211D009146580C210059714347
:405A80000F46C1190C220298FEF7B3FB11480021001D0068761C00590C34C0190160416081600C48001D00680159B14200D100260849009A091D865008684159491E41515F
:405AC000FEF7BCF80020FEBD3046FEBDFEF7B6F8FAE70000E40C0020FEB504460D4600201E49089E0860471E009001900290002C11D0486885420ED2002A0CD0002E0AD0EE
:405B0000642E08D808460C3001681C2068430C18207A002801D03846FEBD0120226020721846FFF7DDFE6060401C13D06681A6810A4827610C3067610179A94200D205712D
:405B40000021684601810A462846029B00F040F82846FEBD00202072DDE70000F00C002038B50124009400F039F838BDFEB50027164EFF433D4600240EE01C20316860434D
:405B80000818017A002906D04068FFF721FF002801D0254603E0641C3079A042EDDA681C12D01C2130684D434419FEF74FF869466068FFF741FF0546FEF740F8002DD9D114
:405BC000216868468847D5E7FEBD0000FC0C002038B50024009400F001F838BD1FB500220C49541E0A60002811DB496888420ED808491C220C31096850430818406801A99F
:405C0000FFF7A0FE401C02D0002004B010BD2046FBE70000F00C0020F0B50021114A4D1E174611710C3F0B46BD6016E008461C2460431668041D3551146806462350146876
:405C40000836A3551468361DA353044616680A34335318301468491C255078688142E5D30020F0BDFC0C002038B500210091002811DB0F49097888420DDA0D4D04010C35D2
:405C800029680859002807D0201D0818694600F06FF9002801D0002038BDFDF7D7FF28680F34015D491E0155FDF7C8FF009838BD0C0D0020F7B582B0002502986E1E0660B9
:405CC0002E48D21C024017462D4A2C4610460C380178106805E02301C358002B0FD0641CE4B28C42F7D3711C28D03401211D40180191039900F02AF900281FD101E026465B
:405D0000F1E71F48016820460C300F521C480399026820460E30115419480399026820460F3011540398784300F0A0F8144900280968085102D00024009011E001251AE010
:405D40000F48016801980818009900F02CF9002801D0012502E00098C0190090641CE4B203988442ECD3002D05D10298066004480179491C0171284605B0F0BDFCFF000059
:405D8000180D0020F8B50D4600216A468C461180002839DB23490978884235DA214B04010C3319680A59002A2ED020460C300B5A801C0E5C184670438018954224D3854261
:405DC00022D2002006E007465F43BF18AF4206D0401CC0B2B042F6D36046002814D0114E271DC8190C366A46294600F006F900280AD168460088012808D030682946C019F3
:405E000000F0D1F8002803D00120F8BD0020F8BDFDF71CFF30680F34015D491C0155FDF70DFFF3E70C0D0020F8B50F46002400F031F8002817D10C4900220B460C334A60ED
:405E40000EE021011D680E466A501D680C36AA53B61C1D680F31AA551D68641C6A54E4B2BC42EED31A71F8BD0C0D002000280BD0C01C074A8108506889005388411899428B
:405E800003D893685160181870470020704700000C0D0020F8B5064600200F4D009029700C0121466846FEF74DFC00280CD129460C3100980860301B001F84B22146684600
:405EC000FEF740FC002801D0FF20F8BD6C800098A8600020F8BD00000C0D0020F8B5002827DB19490978884223DA174C05010C342168485900281CD028460C30085A009006
:405F000028460E300E5C401C0E5420682F1DC01900F064F800280CD12068002445590EE0094829460C300068C01900F03CF8002801D00120F8BD00982D18641CE4B2B4423E
:405F4000EED30020F8BD00000C0D002030B50D4604000BD0A800FFF789FF6060002805D000202570C0436080002030BD012030BD70B50D46040005D0002D03D00220205EB4
:405F8000002801DA012070BDFDF760FE0221615E60688900405828606088401E6080FDF74DFE002070BD70B50D46040007D0002D05D002212078615E401E814201DB01204C
:405FC00070BDFDF743FE6088401C00B26080616880000D50FDF732FE002070BD10B5040009D0227800216068FEF70CF90020C0436080002010BD012010BDF0B500231D462A
:40600000002802D00224045F0AE00120F0BD46689F00F6598E4201D1012503E05B1CDBB29C42F4DA15700020F0BD00000148007870470000200D00207CB505460024FEF782
:4060400015F9A8796946087000A8062229460130FEF7CFF80021684605F0FCFF0C2806D0072806D01F2806D0122806D006E0022404E0042402E0272400E0012420467CBDBA
:4060800010B500F075F9FFF703FAFFF707FA10BD70B504460025FEF7E9F8002C06D0A079012803D8214603F00DFA00E00125284670BD01460120002902D050200880002000
:4060C0007047000001460120002905D003485422007850430880002070470000220D002010B502460D49FE204870032410460FF0E9FB002810D10FF08DFB00280CD106F0E5
:406100002BFF002808D100F04FFB002804D106F0A1FA002800D10024204610BD200D002070B50025044600280ED0A07901280BD8FEF79CF8A0790028204602D003F0A8FD76
:4061400003E003F07DFD00E00125284670BD0000014610B50120002904D006220248FEF748F8002010BD00002C0D002001460120002903D008780249087000207047000099
:40618000220D00200148007A704700005C16002038B504460120002C20D0617801291DD800290BD0FF25E535FEF760F80C4828180088C0B22070072803D00EE0FF25CD3555
:4061C000F2E70020694608706846FFF77BF969460878012801D108202070002038BD000000102E40014A002192681047200D002008B500226B461A7026280CD0094A3428F5
:4062000052680BD0352805D1900703D50021352006F07EFF08BD19462620F9E7D007F9D03420F5E7200D002001490872704700005C160020F8B504460120002C26D06178B7
:40624000012902D92278092A20D8002905D0FF25E5352078092803D004E0FF25CD35F8E708202070FEF702F82078114F114E08280DD00020FFF762F970780128207810D08E
:406280000D4969180880FE2070700020F8BD0120FFF754F90720B8810549203188800120F2E7B8810248217820308180EBE70000C0112E40200D002000102E4070B50E4685
:4062C000050001D0002400E00C4C002C11D0E28A500609D5D107C90F022003F0CBFDE08A40218843E08204E0D107C90F012003F0C1FD3146284603F011FA70BDBC150020D3
:40630000F8B50546002004460D4E009013E022466946284601F0D2F80098002801D00FF0B3FAA878214602F0F1FFA878214602F0DFFF641CE4B2308AA042E8D8F8BD0000B9
:4063400088160020064A02235188891C89B25180814201D8102900D95380508870470000320D00200148407870470000320D002038B51E4CFFF78CF8042813D0052811D0EC
:40638000062812D003282AD007280AD100206946087002460120FEF79DFFFFF779F80128FBD138BD00F0EBFB38BD03F02FF800F0E6FB03F0A9F88007800F0228F4D10C4869
:4063C00041880029F0D05B21095D0029ECD101210170A07D0140022003F04CFD38BD03F019F80120FFF784F838BD0000BC1500204A0D0020F8B50646002403F0A9FD0546EA
:40640000304603F0BFFD03460A480021068A0DE001228A401046174628401F40002803D0002F01D1224394B2491CC9B28E42EFD82046F8BD881600201CB500206946487048
:406440006846FFF7A5FE01AA69460A20FEF742FF6946042008561CBD70B50D4601F05EFD04000BD02079002808D0FDF7FFFEE178A0782A4603F000FA002070BD022070BD7A
:406480000148007870470000941500204030C07E002800D00120704700B500F001F800BD902148430749084A40186030417F491CC9B24177D289914201D300214177C8B24F
:4064C000704700009C1500208816002013B501F025FD04000BD002F0B6FA002807D0214601AA0A310620FEF7F5FE00201CBD02201CBD000010B50C4601F010FD00280AD095
:4065000002F0A1FA002806D0224604490A20FEF7E1FE002010BD022010BD00007D150020F3B581B0074601460026029803F008FD0446002F01D0002500E0154D002D21D09B
:40654000284601F021FD032C04D13946029803F053FD06463846029902F0CAFE032C06D0002C10D00121384601F0FEFE03E03146384604F00DF8284602F08CFD0221284636
:4065800002F0A2FDFEBD3846029902F0B1FEFEBDBC15002010B5044600F0DAFA002804D105F0A6F8002801D00C2010BD2078611C03F076FAFF2801D01F2010BD03F0BCFAAF
:4065C000FF280AD02178621C02F01CFE044821780068026B601C904710BD072010BD0000700D002010B505F083F8002801D00C2010BD03F037FA03480068C06A80470020FD
:4066000010BD0000700D002070B50D46044610210FF07AF81021601806460FF075F8334610221946204605F099F8102130460FF06BF802202870204605F030FF70BD0000BB
:40664000F8B504464078217802028006870FE0781143A67809050002090D0643084601F05DFC00210546F2B2002812D0002C10D0022F0ED0032F0CD0002A0AD00279092AEC
:4066800007D0002A05D0134A5A23527E1B5C9A4207D82889002105F0EEFD20460FF0F4F8FF21002914D10C48224600682946436930469847C0B2FF280AD128464030817E12
:4066C000F2B2491C8176FF232146284600F00DF9F8BD0000541500208C0D00200020704710B5044605F004F8002801D00C2010BD2078611C03F0D4F9FF2808D003F000F92D
:40670000044821780068426B601C904710BD1F2010BD0000700D002010B500F0ADF905F099FF002010BD000010B504460F4802F0BBF9012817D00D4805222146B030FDF7EE
:4067400058FD0A490522B0310846C038FDF751FD00F0E2FF054880222038C17B1143C17300F0C6F910BD3A2010BD0000BC15002010B5044600786178E2780843A1781143FF
:406780000843217908436179084305D004F09AFF002803D00C2010BD122010BD204603F077FA002010BD000010B5FDF773FA03F0F1FB044805F032F803F0ACF8012000F060
:4067C00003F810BD64150020F1B586B003A8009005A801902A489F22817A114081726846FDF75EFD002849D169460989C90705D0244806990068C2686846904769460989E9
:40680000890706D5002839D11F480068816A06988847002832D11D4E0025757075737571F575357675767575B570F570B5713746F5730120D03738731F20F880FF21304687
:406840007972A0300176457600F00AFB04F04AFC02F0DAF800242046069902F087F8002803D1641C2406240EF5D0FD720749BD72B573C0310D704D704D600D7207B0F0BD30
:40688000541500208C0D0020700D00209C15002070B505460E46084603F05AFB0446304603F070FB0121A9400A46224001400A4301D0012070BD002070BD10B5044608469C
:4068C00003F060FB0121A140014201D0012010BD002010BD10B5FEF7DBFD032804D102F099FD0120FEF704FE10BDFEB51C4616460F46054602F0CEFBA878FFF7CDFD024665
:406900000190334639460094284600F00DF8002808D1A8780199FFF7D1FCFF2C02D138460EF0B2FFFEBD0000FFB585B005460E980C46FF2810D02B49C00009680A584018E1
:406940000179C0795278814201D9012601E09006860F6846038108E06078A1788006860FE0780002014368460181284602F080F8070007D021462846079A00F020FD38461F
:4069800009B0F0BD304600F031FE04AE0346039002AA29460096204600F0E7FB3C20405D002818D0284602F063F8012813D0684600890096C0B20190A878231DFF220799A4
:4069C00002F060FE68460089039BC2B2A878079903F038FAD3E7684600890021C0B20091E9E70000880D0020F8B5002600253046FFF700FD07001DD0902011497043401815
:406A00006030447F12E0601CFDF7C8FACCB23846E040C007C00F07D02146304602F060FC21463046FFF77CFD6D1CEDB20548018AA942E8D8761C3606360ED7D0F8BD0000C6
:406A40009C1500208816002070B50024094D03E0002C01D0002000E028464121095C012901D100F062FC641C2406240EF0D000F03FF870BDBC15002010B502F04BFF002087
:406A8000FFF7A2FE0EF096FF002010BDF8B5002400F0E4F80125012800D1012404F0BEFA012801D102200443104F00203E4620360423082203E0002801D0002100E03146D0
:406AC0000979002907D001290BD002290BD0114681402143CCB2401C0006000EEBD07C70F8BD2C43F7E71C43F5E700009C15002070B5144E0024F07BC00921D0354620354A
:406B000003E0002C01D0002000E0284601F0A6FF012814D0641C2406240EF2D0F07B4006400EF073002403E0002C01D0002000E0284600F0FAFB641C2406240EF4D000204D
:406B400070BD00009C15002010B5FFF79FFF10BD10B5044605F05BFF002802D1601C00F001F810BD1CB500240094062269460194FDF730FB002800D1122420461CBD10B51F
:406B8000FCF7BFFE0446FEF783FC012809D0FEF77FFC022805D0FDF759F92046FCF7B5FEEEE72046FCF7B1FE10BD10B50B4681791943817103D08078114603F0FBF810BDC7
:406BC00010B582798A43827102D1807803F006F910BD000030B50C4C0220A28A0B4B9978002901D0022906D11D785B78EB18282B01D9032002E0032900D101205105490D36
:406C0000C0020143A18230BDC0112E40400D002000B500F029F8002807D0012805D0032801D0042801D0002000BD012000BD014600B50020C90701D000F010F800BD014662
:406C400000B50020C90701D000F008F800BD00000148006870470000380D002001480088000A704720102E400448008B410501D5042070474007800F7047000000102E401B
:406C80000148406870470000380D002038B50446000610D5FFF7E8FF01280CD1684602F0C9FB6846007800F08EFB012002F06EFA0220FFF749FF600708D5074801790129AD
:406CC00004D1002101712620FFF792FA0348006801692046884738BD440D0020700D002010B501460A4A007800241070FFF7B6FF0128084603D002F037FF204610BD00F053
:406D0000E7F80400F9D1034801210170F5E70000400D00205C16002070B50446FFF79EFF002801D00C2070BDA27B01211F48002A827801D00A4301E0520852008270627957
:406D4000012A14D0C17849084900C170184D2868016820468847207901280CD06188208803F0AAFF2080207904280FD015E0C2780A43C270EAE72868C168E01D8847E01D5D
:406D800002F072FF0B48808C208006E02868C168E01D8847E01D02F067FF074920798870204602F0EFFE002070BD00009C150020700D002054150020400D002008B50178A4
:406DC000FFF74CFF814201D10C2008BD002914D0072069460870FFF71BFF012807D10121684600F0D5F8012801D0092008BDFFF7F1FE02F0FBFE012011E0FFF709FF0128E2
:406E000006D1684602F016FB6846007800F010FB02F0E2FEFFF722FF0028FBD10220FFF793FE002008BD000010B501460A4A007800245070FFF712FF0128084603D002F03F
:406E400099FF204610BD00F05DF80400F9D1034801214170F5E70000400D00205C16002038B568460EF0A6FC002801D01F2038BD01210098C90201804180002505714571BB
:406E8000857107214173857302F07CFE009C202200212046FDF7B6F925702A460021601CFDF7B0F9204602F05FFE204602F062FF00980EF0E9FC062200210448FDF7A2F948
:406EC00002480C388560002038BD0000440D0020F8B504460025684600950EF06BFC002801D007250AE0064E009830602278611C401CFDF77EF93168207808702846F8BDA0
:406F0000380D0020F8B504460025684600950EF051FC002801D007250AE0064E009870602278611C401CFDF764F97168207808702846F8BD380D00200346084800B583422F
:406F400009D8184600F0EAFF002804D00089984201D1012000BD002000BD0000FF0E0000074A9179491C8906890E917138220A4092014907090E1143084302490840704791
:406F80009C150020FF0E0000C006C00E70470000F8B507460E4600240D4803E0002C01D0002500E005462979002905D0641C2406240EF3D00020F8BD0021204601F0D6FC53
:406FC0002E712046FFF7CCFF28813C700120F8BDBC15002010B504F017FC0222002100F003F802F037FC10BD10B5094B40074907000F090F185A595A40185043C00864218D
:40700000FCF7CCFF002800D1012080B210BD000064810100F7B53D20405C88B015460C46002802D02878042802D200200BB0F0BD6946087200262046FFF728FA012800D021
:407040000126204603A938300191009023460327A17E34333246206A04F000FC02A8089900900B46019120463A4603A9243004F055FB02466846007A2870204601F062FC9D
:407080001046D3E7FFB587B00C4605461078694608723D20005D1746002826D000262046FFF7F4F9012800D00126204603A93830019100902346A17E34333246206A04F042
:4070C000CDFB02A80090291D019120462B1D03A924300A9A04F022FB02006846007A388002D1204601F02EFC10460BB0F0BDF0B505463C20405C89B016460C4600280CD08C
:40710000307869460873002806D000272046FFF7BDF9012803D003E01F2009B0F0BD012703200890204604A93830019100902346E17E34333A46E06904F090FB6846007BA2
:4071400003A928180290009120462B46019504A92430089A04F016FB02466846007B3070204601F0F9FB1046D7E7FFB505463C20405C89B016460C46002810D0084601F056
:4071800077FC01280BD0308869468883002809D000272046FFF77AF9012805D005E000200DB0F0BD0220FBE70127204603A93830019100902346E17E34333A46E06904F0CE
:4071C0004DFB291D2B1D07A8129A6D4607C5204603A924300C9A04F0D5FA02466846808B3080204601F0B8FB1046D9E710B518490446484028D0002101231A468A4090420E
:4072000021D0491C2029F8D300212046C840C243520618D0400616D0491C1929F5D3A0B2210C020AC3B2884201D193420BD01F21204600F0E0F9182805D8A00E062100F0D8
