:400000000040002011000000250400002504000010B500F0DFFEC0460000000000000000000000000000000000000000000000000000000000000000000000000000000065
:400040000000000000000000000000000000000000000000000000000000000000000000000000000000000000000000000000000000000000000000000000000000000080
:400080000000000000000000000000000000000000000000000000000000000000000000000000000000000000000000000000000000000000000000000000000000000040
:4000C0000000000000000000000000000000000000000000000000000000000000000000000000000000000000000000000000000000000000000000000000000000000000
:4001000010B5064C2378002B07D1054B002B02D0044800E000BF0123237010BDB01B00200000000090260100084B10B5002B03D00749084800E000BF07480368002B00D1A1
:4001400010BD064B002BFBD09847F9E700000000B41B002090260100281500200000000010B512F081FA10BDF0B54746012380B4A14C82B02278050013430E0023704C28E7
:4001800023D89E4A8300D3589F46032F1DD142466270227D002A18D1414622780A4214D19622C8219648C9000283C268083011808021C901518023750BF064FA002804D161
:4001C0004246237867701A432270112223781A4207D02378103A93432370310023692800984702B004BC9046F0BD200002220C3000F0D7FF0023A370E7E7072301AF98460C
:400200003B70002338007B7002F0ECFF43463B70012338007B7002F0E5FF7A4B9A79002A6BD11A78002A0ED15A78002A0BD19A78002A08D1DA78002A05D11A79002A02D1F7
:400240005B79002B59D06F4800F0F0FF78E0002363732373B9E76778022FB6D0012322781342B2D0042122788846114200D199E00233637023788B432370A6E7022363705B
:40028000A3E704236370A0E78B890B2B70D02378DB079AD430680CF0E9FB96E70B78002B00D092E74B78002B0BD1574A1D3394466381E433FF332381544B63446360231D23
:4002C0004B6001222378934323707EE723789B0600D57AE74A490B78102B72D0207B0BF08FF901A90880002867D101232278134323706AE70B78A37067E7454BF8221978FB
:40030000FC2389011B011940424B520218780003030013401943404B39481A783F231340FE2219433D4B12041B781C305B0413400B4303701A0A1B0C4270837000F076FF65
:4003400003200BF031F83F233B70002338007B700BF048F80423637037E74988304B994203D830880CF002FB2FE780218900F8E7081D0A00353300210DF09EFD002823D053
:40038000012223789343237023781A4200D01CE7122301A98B70B389C87030680B800CF0DBFA12E7082221780A4200D1EDE64346637023789343237007E73620236998474F
:4003C00093E70B3BCB7089E7736831001B789B070CD50530FF3023699847012223789343237023781A4200D0EFE653E706202369FF309847F1E7C046CC1B00209426010044
:400400002C15002000F2FF0F98100000C00000207DF1FF0F7BF1FF0F7CF1FF0F78F1FF0FFF01000010B500F081FE03680C2B00D0FEE7FEE7F8B54F464646C0B4272800D119
:4004400008E10AD9432816D04C2800D1F8E028281BD00CBC90469946F8BD012800D195E02628F6D1874C6378042BF2D122781340EFD18548D0E04B8880211A1C89008B4287
:4004800000D90A1C804B9A84E3E77E4B0A20994600234A4653751F227C4D7D497D4E0B681340082BFBD03060013528780028F6D11F22794D7649774E0A300B681340082BCB
:4004C000FBD03060013528780028F6D11F22734D6F49704E41300B681340082BFBD03060013528780028F6D11B236748984605000C3B1F229C4620276549664E21358044DE
:400500002B781B091C003034092B01D937331C000B681340082BFBD0346064462B7823401C003034092B01D937331C000B681340082BFBD034600B681340082BFBD0013D6A
:400540003760A845DCD1172383844B465B78042B00D07EE74A461278134000D079E71E2220210283C26808301180103151804A4613750BF087F8002800D06AE74B461A789B
:40058000042313434A46DBB2137062E70A201F22434C3F493F4D0B681340082BFBD02860013420780028F6D11B2337489C46040005331F220F2798463549364D2134844471
:4005C00023781B091E003036092B01D937331E000B681340082BFBD02E6023783B401E003036092B01D937331E000B681340082BFBD02E600B681340082BFBD04346013CC4
:400600002B60A445DCD11F4C6378042B00D020E72278134000D01CE71E2220210283C268083011801031518023750BF02BF8002800D00EE7042322781343DBB2237008E7B9
:400640008B890F2B15D00F4B99464B46D8680CF00DFAFEE60A201F22124C0D490D4D0B681340082BFBD02860013420780028F6D1EFE6044B99464B681B785A1E93414A46B0
:400680005375E2E7CC1B00202C1500205829010008022440400224406C29010084290100282901004829010010B500F0C2FB0421034A13688B43136030BF00F0BEFB10BD9E
:4006C00010ED00E07047C0462B2070472B2070472B2070472B2070472B2070472B2070472B2070472B2070472B2070472B2070472B2070470220FF307047C04610B58024D3
:40070000094B64011C60094A094B1A6700F091FBC02208490B689343403A13430B6000F08CFB054B1C6010BD80E100E061010000000000200CE400E000E100E08022094BCF
:40074000520110B51A60084A084B1A6700F071FBC02207490B689343403A13430B6000F06CFB10BD80E100E061010000000000200CE400E08022024B52011A607047C0467F
:4007800080E100E08022024B52011A607047C04600E100E070B5802506002D02A8420ED90400094800F03CFB084B9C466444AC42F7D8074BF318DB0BDB036644F61A0548B0
:4007C000704300F02DFB70BD0000C05D0080FFFFFF7FFFFF80BB000010B543001818000100F01EFB10BDC046314B324A1978324B09021B781943314B1B7812781B0213438E
:400800002F4A93424ED0D4221201934246D02D4A13602D4B2D4A19602D4B1B7812781B0213432C4A134200D12B4B2C4A13602C4B2C4A1B7812781B0213432B4A93420DD05F
:400840002A4A93420AD0052B08D0294A1360294B1A68294B1B68AA2B09D07047274B244A1360244B1A68244B1B68AA2BF5D11F2AF3D91B4B1B780E2BEFD1214B214A1B78D3
:4008800012781B021343204A1360204B204A1B7812781B0213431F4A1360DEE70429B6D11D4BB4E70729B2D11B4B0339AFE7C046D9F0FF0FDEF0FF0FD8F0FF0FDFF0FF0F4A
:4008C000580B00006C002E4074002E40DAF0FF0FDBF0FF0FFFDFFFFF0220000078002E40DDF0FF0FDCF0FF0F0F0F00000505000080002E40EC0F00F0E00F00F0050F00009B
:400900006DF2FF0F6CF2FF0F84002E406FF2FF0F6EF2FF0F94002E40580D00000160704701607047F0B54D4644465F4656460121F0B47C4A87B0136800248B4313607A4810
:4009400000237A497A4D04E00134C2500433302C08D00A00032CF7D85A590134C2500433302CF6D172B60022724B00211A6080227148D2009A4600F01DFC80220021D2008B
:400980006E4800F017FCEE226D4B12061A6099236C4A1B0413606C4A012713606B4A6C4D136006236B4A6C4E11786C480B431370D8226B4B12041A60202399464A46694BA2
:4009C0001A60C422684B92021A604A46674B1A60674B9B4612235A46136002222B689046BB432B602B6893432B6033680E32A343134333603368093A934380223B43336024
:400A00002B68120613432B6000F00AFA42462B682B6893432B60336805329343424613434A4633603368A343134333602B68FA243B432B6000F0FDF94E4B4F491A6802AB14
:400A400002924E4A012512684D4E0392352204925A461268E40005924A4A00926A460193494B1A60494A11601B6800F0E6F9484A484B41461A608022474BD2051A60474AEE
:400A800013680B4313604649464B19600021464B196053461B6808318B4351460B60434B19680F4380211F60414B09021360414A13680B431360302000F0B2F933681D42DA
:400AC00002D1013C002CF6D13B4800F0A9F988223A4B92011A603A4A3A4B1A608022254B12061A608022254BD2021A604022364B1A608022284BD2051A600323334A136042
:400B0000334A13600022334B1A600123054A11680B43136007B03CBC90469946A246AB46F0BDC046000010400000002025040000000000006CF02E4000300F4000400F409D
:400B4000000002400001024000500F4010500F4000F02E4000700F4000FF2E40001BB700080004400001044008010440180104403000104008010B401700008000010B4054
:400B80000C002E40B6EA000008001040040010400600008004010B400C020B4078002E402D3E00007C002E4064F02E4060F02E400220000010002E40401901000003014047
:400BC00040FF008000000140040101403000304030003140000E3F40F0B54F464646C0B491B062B65C4E0BAD14223100280000F0D8FA2C22594CA35C002B00D1A6E0002106
:400C0000574B08A82361018106AB1B31198059801739197108930023123105AA69444260137000F0DBFB002879D02D22A35C002B4AD0E38D80204B4900060A6802430A60FC
:400C400049494A4A086802409020000402430A60474A484913601F220B681340082BFBD0454B0C223D261800444F42491A6013320B681340082BFBD0066001373E78002E43
:400C8000F6D180220023920027003037DB5501339342F9D13A4B260099460E23984601E000F0C0FA637D002BFAD0B378002BF7D143462B814B469B8C2900033BF0682F6033
:400CC000AB800BF087FEEBE707262E48254908602D492E480B602E4908602E482E4908602E490E602E492F4E0B60012131602E4E306004262D4803602D4806602D480360BB
:400D00002D4803602D4803602D4803602D480360174803600368A1549BB2E3858AE70523029001900093284A2B002849284800F0ABFA002800D078E73000FE220123FF321E
:400D40000F21143063700DF09FF86EE723702375A3700133A35452E7C8270100CC1B0020350400000000244000010240FFFF0FFF880F2440080224404002244090290100F5
:400D80002C1500200B0000024000244001000A00480024400700008000032440040324401003244044002440000224400402244050002440880E2440C80E2440480F24407F
:400DC000080F2440C80F244098100000C000002069010000F8B5104E002E18D000200F4DA9682C686A68002905D00023E758043380C29942FAD1E9680023002903D0D05028
:400E000004339942FBD1013E1035002EE8D100F093F9FFF7E1FEC04601000000002A01000230800803D00138FDD1C046C046C0467047EFF3108072B6704780F31088704776
:400E4000002243088B4274D303098B425FD3030A8B4244D3030B8B4228D3030C8B420DD3FF22090212BA030C8B4202D31212090265D0030B8B4219D300E0090AC30B8B4201
:400E800001D3CB03C01A5241830B8B4201D38B03C01A5241430B8B4201D34B03C01A5241030B8B4201D30B03C01A5241C30A8B4201D3CB02C01A5241830A8B4201D38B02C2
:400EC000C01A5241430A8B4201D34B02C01A5241030A8B4201D30B02C01A5241CDD2C3098B4201D3CB01C01A524183098B4201D38B01C01A524143098B4201D34B01C01A37
:400F0000524103098B4201D30B01C01A5241C3088B4201D3CB00C01A524183088B4201D38B00C01A524143088B4201D34B00C01A5241411A00D20146524110467047FFE792
:400F400001B5002000F0F0F802BDC0460029F7D076E7704703460B437FD4002243088B4274D303098B425FD3030A8B4244D3030B8B4228D3030C8B420DD3FF22090212BA09
:400F8000030C8B4202D31212090265D0030B8B4219D300E0090AC30B8B4201D3CB03C01A5241830B8B4201D38B03C01A5241430B8B4201D34B03C01A5241030B8B4201D335
:400FC0000B03C01A5241C30A8B4201D3CB02C01A5241830A8B4201D38B02C01A5241430A8B4201D34B02C01A5241030A8B4201D30B02C01A5241CDD2C3098B4201D3CB01FE
:40100000C01A524183098B4201D38B01C01A524143098B4201D34B01C01A524103098B4201D30B01C01A5241C3088B4201D3CB00C01A524183088B4201D38B00C01A524189
:4010400043088B4201D34B00C01A5241411A00D201465241104670475DE0CA0F00D04942031000D34042534000229C4603098B422DD3030A8B4212D3FC22890112BA030A2F
:401080008B420CD3890192118B4208D3890192118B4204D389013AD0921100E08909C3098B4201D3CB01C01A524183098B4201D38B01C01A524143098B4201D34B01C01A56
:4010C000524103098B4201D30B01C01A5241C3088B4201D3CB00C01A524183088B4201D38B00C01A5241D9D243088B4201D34B00C01A5241411A00D20146634652415B1005
:40110000104601D34042002B00D54942704763465B1000D3404201B5002000F005F802BD0029F8D016E770477047C046014B18687047C046A81B00200E4B70B500251E0047
:401140000D4CE41AA410A54204D0AB00F35898470135F8E711F042FC084B00251E00084CE41AA410A54204D0AB00F35898470135F8E770BDE8290100E8290100E8290100DC
:40118000F029010030B50024A24208D0035D651C0C5DA34201D0181B02E02C00F4E7002030BD002310B59A4203D0CC5CC4540133F9E710BD03008218934202D0197001336E
:4011C000FAE77047134A1088810703D08107890F401A001D11791030484381B25088820703D08207920F801A001D800040180A494030098980B2CA0701D0503080B2890790
:4012000006D504495422091F09785143081880B270470000F6170020301E002010B501F007FF10BD10B500F05BFA10BD10B50749044609780220002907D1204601F048FF2E
:40124000002802D120460AF0C1F910BD9419002070B504460120002C12D02368002B0FD0616800290CD0074D06222889208118462968FFF796FF69686068097801700020CB
:4012800070BD0000301E0020FFB585B0002768460E9D07734F481C460078002802D0082009B0F0BD10990F9801900095029105A807C800F007F90028F2D16946264603AB8E
:4012C00084460873002C19D0002115E08A00B75A082F09D990198078002805D0083FB7521878401C187005E0002914D00027B75290198770491CC9B2A942E7D36046002853
:40130000CED10F98002809D0109901F041FA002804D00120C4E701208446EFE701F088FE2D480021416081600599016021888180022D07D3A1798171A17AC171A1890181C2
:40134000218A418100211EE0481C19E082008B00A75AE65ABE46BE4211D26F463E80B4461E190296B678BE7001967646E6521719029EBB78B3706646A652019EBE70401C39
:40138000A842E3D3491CA942DED3134822460C3000906846037B0799069800F01BF90028B8D168460B4C007B60700B480C3001F06FFE0028AED1084907480C3107F064F9C9
:4013C0000028A7D107F07EF90028A3D10121217066E70000F0170020241E0020F8B5054636480F460078002802D002242046F8BD002F60D000243249002D16D02A89D007A1
:401400000DD02868002808D003881B3BE12B04D24088FB2801D81B2801D2012409E0900707D56868002804D1F7E70020088108604860002CDAD122482E8906811F481B219B
:40144000801D01804180042101711C490020891C0870F00705D019480622801D2968FFF7A0FE1749B00703D56A68144812788270124D0E46AD1D281F0D60486001F04EFE8E
:40148000284601F03DFE30890DF04EFE30890DF03FF828880DF042F830890DF0AFFF03461033FFF78FFE1F21C018890140183880A91F88809AE7012498E70000F01700207B
:4014C000301E0020FFB58446384F1C460020BB883F78054602460646002F11D100290ED0029999420BD36146002908D0002C06D00A99002906D02E4B0B99994202D2012079
:4015000004B0F0BD002144E0AB001F19BF78002F3BD0E35A002B38D07B43591889B22B0000F04AF8050410161C253100A7782388BC46FF27233BEB37BB4222D26346032B9F
:401540001FD322E0A388002B1FD0302B19D31CE02389002B19D0282B13D316E0A289002A13D01346134F233BBB420AD20DE0268A002A0AD033460F4F233BBB4201D2964258
:4015800003D901200EE0002001E000280AD16D1CEDB2099B9D42B7D31C2463435B1802998B42ACD89642AAD8AAE70000F017002079020000BAFF000030B47446641E2578BF
:4015C000641CAB4200D21D46635D5B00E31830BC18470000FFB583B0002469460C801F4606468C80002806D00598002803D004983043800701D0012466E0002FFBD0344906
:40160000049809888842F6D3FFF778F8FFF7B2F800F012FC002855D100F07AFD002851D12C49084601F0E8F805042D0C4AD12A480499066081800021C18007810C98007A78
:40164000C00704D0684601F00CFD040007D10C98007A800703D501A801F00CFD0446BF1DFEB2002C20D13146059800F05DF804001AD10DF0D1FE040016D16A4610889288D7
:4016800008368518144AF1B29088D288AEB29319984207D3401B801A80B201F09DFB050007D000E0FF25012400F05EFA002D04D008E0F8B200F01CF9F6E700F081FA0749EF
:4016C0000120087000F0CAFB204607B0F0BD0000F4170020151800003C1E0020FC17002010B503480078012801D101F017FA10BDFC17002070B5084B0446DA889E880020DE
:401700005518B54206D81D68AA182260DA885118D98070BD032070BD3C1E002001480089704700003C1E0020F0B587B007460D4600208900009006916846FFF7DBFF8446EC
:4017400000285DD1304800990160002117E02E4B88001A680629115406D22C4C0419667882185670628805E0C419203CA67A8218567022891B68C018491C4280C9B2A942AC
:40178000E5D300242DE0601CC2B2059025E01E4FA30039689600581840887118039604904E88B04217D938466F46FE80B6464F786E4677710297049F4F800168039F5E182D
:4017C000767879184E700168764659184E800068029F18184770521CD2B2AA42D7D30598C4B2AC42CFD36046002809D168460699FFF780FF8446002802D1054900980860B0
:40180000604607B0F0BD000000180020102A0100041800207047000010B5002809D005494A68002A05D0011F08788000105801F081FA10BD0018002010B50446FFF76EFF08
:40184000C0B2801DA0420CD307484068002808D0A100405801F0E0F9002801D00470001D10BD002010BD000000180020F8B516460D460446FFF752FFC0B2801DA04203D26F
:401880000020C0430090F8BDB2B2E9B2684601F0E9F90099481C03D0024AA000526811500098F8BD00180020F8B50746FFF736FF801DC6B20A49002005460C680DE06178B2
:4018C000002907D06188B94202D32078FFF7B4FF002804D1241D6D1CEDB2B542EFD3F8BD0018002010B5002801D0FFF795FF10BD70B506460948002504680BE0617800298D
:4019000005D062882078121D0023FFF7AFFF241D6D1CEDB2B542F1D370BD000000180020FFB581B00A9F16000C4620D000F0F2F8054604281BD0002F0CD03846FFF7B4FF7D
:4019400020492A0151184860002810D03A460499FFF727FC1B4928010E504618778101980570200406D47D20C000444304E0FF2005B0F0BD6404640C00F0BAF807460428FB
:4019800007D000F04FFAA0420BD800F04BFA201A03E0204600F0AAFA0020F06035720020E6E700F03FFA009000F0B6FA00980121001B009000F0ECF802493A0151180098E9
:4019C000C860E6E7481E0020F8B5060116483418217A042903D0E068002802D017E00020F8BD00F01FFA054600F096FA00F0A0F804280CD001010C480F18F86800214519A5
:401A000000F0C6F80020F860284600F06FFA6068054D002801D0FFF765FF042020720020A8516081E060DAE7481E0020FEB500266A46304601232549050169180D7A042D45
:401A400002D0C96800291BD000211154401CC0B20428F0D300246846005D002830D01B48210108184189476805680291002101604160042241810272C160002E02D015E002
:401A80001354E3E700F054F804280ED001010F4808180190C6680021304600F079F801980021C160304600F021FA0126002D07D038460299A847002F02D03846FFF712FF6A
:401AC000641CE4B2042CC6D3FEBD0000481E00200EB5002005216A460090118150810348694600680EF0FDFA0EBD000008180020074A0020010189180B7A042B02D0C968ED
:401B0000002903D0401CC0B20428F3D370470000481E00200549002002015218127A042A03D0401CC0B20428F6D37047481E002030B50A4B04200A4C00210A011219157AAA
:401B4000042D06D0D268002A03D09A4201D808461346491CC9B20429EFD330BDFFFF0000481E00207047000030B50020074C05460423020111190B72A5504D60401C4D8194
:401B8000C0B2CD600428F4D330BD0000481E002030B5094C00231A011219157A042D04D0D568002906D02D18D5605B1CDBB2042BF1D330BD2D1AF7E7481E002000207047CD
:401BC0001CB5002469460C70142001902346054A05480EF08BFA04480068401C00D1FF2420461CBD3D1C0000081800203EB5124A0146FF2000230124126800290DD00129F5
:401C000014D0042908D104206946009308814B8110460EF066FA80B23EBD6846009304814381694610460EF057FAF4E768460093048143816946EBE70818002070B5458927
:401C40000468416800890300FFF7B6FC08280509091E22282628002005F0D2FB1EE0022908D0C8B22A4621460CF09EFB2046FFF739FE13E002202A4621460CF095FB2946DB
:401C8000204600F00DF809E000200DF029FF05E02046FFF7CBFE01E0FEF714FD002070BD014B0022DB6818470C18002070B5448905680089022803D0032809D0FF2070BDD4
:401CC0002246094C0023A46829460120A04708E0FFF7A4FA241DA2B200232946022006F086FB002070BD00000C180020704700000248002141600180418070470C180020B4
:401D000070B50C46002186B016460391012802D0022859D116E003A9012006F0BDFB01281BD1039D324621462846FFF73AFA0095287801900220694608814E816846FFF766
:401D4000B5FF41E0214D002B686809D0049004A9022006F0A1FB01281DD0022006B070BD002812D0298840182146FFF71AFA28880024801980B228806988091D884206D1B9
:401D80002C801348FFF792FF03E00320E6E788421AD96C6018E004986860E278A378110219430B4A698000231060E3565360032313815181A1788170E178C1706178417092
:401DC00021780170042028800020C7E70C180020881E00203EB515460C46022803D004280CD000203EBD0091019002206946088107484A8100680EF074F907E00CF0D4FA5B
:401E0000044B0022DB6829462046984701203EBD081800200C180020014AD160906070470C180020034801688068081A0A21484300097047941E002010B5FEF77FFC48228E
:401E400004490548FFF7ADF903490120C870002010BD00002C2A01009822002010B5FEF791FC10BD70B5134C2368002B08D0207B1149C20705D04008400020738868A08085
:401E800070BD88680B4AA18880B29268814203D90A4D691A091802E0814202D2411A5118A160A080A0689842EAD30EF037F900F013F870BD941E0020C0102E40FFFF000060
:401EC00010B508461946FFF7A7FF10BD704710B5FFF780FF10BD000003480021016041608160C16070470000941E0020024610B5FF20002A0CD0FFF7EFFF064C0321207B29
:401F00000843207310010A21FFF720F82060002010BD0000941E002000B504480A21806848430209FFF7D8FF104600BD941E00200248007B8007C00F70470000941E00203A
:401F400010B54B490868002802DA4A4B01221A70022290430860484800694549C00B4031096A0246C907C90F0A4259D0012000F097FA3F480E216C30FEF7D0FC3E482021DC
:401F80008430FEF7CBFC3C4814219C30FEF7C6FC3948FF21C131A430FEF7C0FC3648FF212F31B030FEF7BAFC33483449BC30FEF7B5FC31483249AC30FEF7B0FC30492E48EA
:401FC000491CB430FEF7AAFC2B482E49B830FEF7A5FC29482C49CC30FEF7A0FC26482B490830FEF79BFC24482949A830FEF796FC214828498830FEF791FC1F4826498C3099
:40200000FEF78CFC1C481921C9029030FEF786FCFEF7EAFBFEF76EFBC0B2022812D01FE000290BD0002101420AD0114801216030FEF774FC0120FEF7ADFB97E70121F2E7E5
:40204000FF2010BD15491648FEF768FC14481549001DFEF763FC124800210830FEF75EFC54200449C043891C0870002010BD000000F02E401C18002000002E40320300000F
:402080002F3F00003102000010520000EC160000FA12000031D000003AE300009956000080012E40F80F000070B50646581C80B245086D00002408E0304600F0C1F81055AB
:4020C000000A1119A41C4870A4B2AC42F4D3D80705D0D0182038D15CC47FD454C17770BD30B50A4C002100195B1E07E0541864782502545C2C430480891C89B29942F5DBC6
:40210000994201D1515C018030BD000000102E4010B5FF2000F0C4F90F49FF2048700E481021801D41800121417001700A490020C91C4870FFF704FF04000AD100F010F98F
:4021400007210648FEF7ECFB044807211830FEF7E7FB204610BD00001C180020CC112E4070B5002405465B1E0AE0284600F068F8010A161971702D1D1055A41CADB2A4B2B4
:402180009C42F2DB9C4203D1284600F059F8105570BD000070B500210A4D5B1E0AE0541864782602545C344346193480001D891C80B289B29942F2DB994202D1515C40194C
:4021C000018070BD00102E40F0B50599091FCFB200217E1E0BE0541864782502545C2C43164D45192C80001D891C80B289B2B142F1DBFC0712D01C78515C24020F4A0C4342
:4022000081180C809C785D78001D210280B2294384182180001D80B2D9780CE059781A7809021143054A84182180001DD9789B78090280B2194380180180F0BD00102E403D
:40224000014940180088704700102E4010B50B490020487000F084F8002000F047F9002000F034F907210648FEF75AFB044807211830FEF755FB002010BD00001F18002010
:40228000CC112E4010B50B46062812D006DC01280CD0032801D1FFF7D9FF10BD0A28FCD00B28FAD105480078107010BDFFF730FF10BD1146184600F035F910BD2218002034
:4022C000F8B5244DAC6A0127A007234E002816DA307806280ED1286A384328621F480069F903084381B21D481030FEF717FB042000F0D6F8174802212830FEF711FBE0076C
:4023000018D000F017FF01280FD1002000F064FF062000F0C5F81049FF20C91E48707078002802D1686B384368630A4801212830FEF7F6FAE0050BD53078042802D105200B
:4023400000F0AEF80348FF2101312830FEF7E8FAF8BD000040F02E401F18002000002E4010B503212348FEF7D9FA0120FEF734FA20483038406A204C80076178800F890025
:4023800001431C480C38FEF7C9FA6078002808D0401E022181401820FEF7C2FEC000083800E0B82081B21548FEF7B8FA1348032109021438FEF7B2FA10481149B830FEF77D
:4023C000ADFA612189010F48FEF7A8FA0D480321001FFEF7A3FA0C490C48FEF79FFA0B480B496038FEF79AFA084801218838FEF795FA10BD70F02E4022180020D8102E4012
:4024000090890000041E2E40FF0F000058122E40209000000849087806280BD148780749002803D1486B400840004863C86A01221043C862704700001F18002040F02E4012
:4024400001480078704700001F18002000B50300FFF7B2F8080D050D0B070507090D012000BD032000BD042000BD022000BDFF2000BD0000074A9168D26889B2064B92B22C
:40248000994204D105498A4201D1012100E000210170704780002E4033D000003FE3000010B50446FEF766F9072C01D9FF2C01D102480470FEF766F910BD00001F1800207F
:4024C00001494870704700001C18002010B5064A012805D01921C9021046FEF71FFA10BD1D21C902F8E7000090002E4010B50A4A141D012808D009491046FEF70FFA08495E
:402500002046FEF70BFA10BD04491046891CFEF705FA0349491DF3E788002E4031D000003AE3000070B50C460546FEF7E3F8C0B202280E49287804D0FF2810D04C280CD83A
:4025400010E0FF2809D10A4AD0680004800F032801D0087807E09069000A553803E00878207070BD4F382070087070BD1E18002000002E40F0B50122002834D0002932D099
:402580000424420600D00524792342065B06D21800D0641C034600221EE00C2516466E43124D00277519AF72104F002ABB51696007D0661EB24209D10D4E86197606760ED6
:4025C00005E05E06760E8027BE1B00E080269B198919521C2E81D2B2A242DED303480549006B002288611046F0BD000020210020790200002818002018B50020694608701A
:402600000A48006900280ED0132149014018047E684604704F21C900054800F059F8A04201D0012018BD002018BD000028180020A41E0020074900200C2242435218927A1F
:40264000012A05D0401CC0B20628F5D3002070470120704720210020F8B50E000446154609D0194F19497868A04202D94018A04201D38D4201D90120F8BD31462046FEF787
:4026800081FD00281ED02A4631462046FEF789FDE8B200210C224A43D21913895568EE18A6420BD90126641B1B1B9672834209DA1469C01A044AC0B220329676491CC9B251
:4026C0000629E7D30020F8BD2021002079020000034610B50020024604E09C5C2018521CC0B292B28A42F8D310BD000070B500F05FF8084C064A216907480D46FEF751FDAF
:4027000005492846FFF736FFFFF776FF207070BD7902000028180020A41E0020002070470020054A002902D0012902D002E0906000E0D060002070472818002070B5084CFE
:40274000154608460549E26889182A46FEF729FDE0684019E06028B270BD0000A41E0020281800203EB50A226946FFF7E7FF044606480A2200686946FEF704FD002802D04D
:402780000020C0433EBD20463EBD00002C180020002802D0044A914201D2FF20704703494A610861002070477902000028180020024800218160C1607047000028180020DC
:4027C00070B5074C15460548A26880182A46FFF743FFA0684019A06028B270BDA41E00202818002010B503490A220968FFF7E8FF10BD00002C18002010B50F4A0023136055
:402800000E4A13600E4B18600E4801600E49012008600E490860000290600E490C4808600D4914300860FF381538506000F0BCF800F0CAF9002010BD5C1800204418002017
:4028400070180020741800206018002050180020682200205418002068180020014610B50020002910D0094B1A689C685118A14209D25868196080188A0704D08A07920F70
:40288000891A091D196010BD002010BD44180020F8B50024164E671E321F3D463168136806E01422624310328A58521C1BD0641C9C42F6D36A1C14D02C4614225443224688
:4028C0000C3288500C214843FFF7C8FF3168002808510AD031680020103408517068401C70602846F8BD2546E4E73846F8BD000054180020F3B50026F64381B000281BDB91
:402900001E490968884217D80299002914D01B4F142204463F1D54432546396810354859401C09D0FDF726FF38682F1F4159C359994203DBFDF726FF3046FEBD21460831FA
:402940000091465801590C20704308180C220299FEF727FC0948761C001D0068C159B14200D100260549009A091D865008684159491C4151FDF706FF0020FEBD5018002041
:40298000002803DB07490968884202D90020C043704704491422091D09685043103008587047000050180020F0B500200D4A451E0346171F50600FE01426014671431468F7
:4029C0000E1DA3510C461668083433511668083435511468401C635039688842ECD30020F0BD000054180020F3B50026F64381B0002841DB2349096888423DD802990029DE
:402A00003AD0204F142204463F1D54432546396810354859401C2FD0FDF7ACFE3868415900292BD0211D009146580C21005971430F46C1190C220298FEF7B3FB11480021A6
:402A4000001D0068761C00590C34C0190160416081600C48001D00680159B14200D100260849009A091D865008684159491E4151FDF788FE0020FEBD3046FEBDFDF782FEE9
:402A8000FAE7000050180020FEB504460D4600201E49089E0860471E009001900290002C11D0486885420ED2002A0CD0002E0AD0642E08D808460C3001681C2068430C18CE
:402AC000207A002801D03846FEBD0120226020721846FFF7DDFE6060401C13D06681A6810A4827610C3067610179A94200D205710021684601810A462846029B00F040F83A
:402B00002846FEBD00202072DDE700005C18002038B50124009400F039F838BDFEB50027164EFF433D4600240EE01C20316860430818017A002906D04068FFF721FF002899
:402B400001D0254603E0641C3079A042EDDA681C12D01C2130684D434419FDF70BFE69466068FFF741FF0546FDF70CFE002DD9D1216868468847D5E7FEBD00006818002055
:402B800038B50024009400F001F838BD1FB500220C49541E0A60002811DB496888420ED808491C220C31096850430818406801A9FFF7A0FE401C02D0002004B010BD2046EB
:402BC000FBE700005C180020F0B50021114A4D1E174611710C3F0B46BD6016E008461C2460431668041D355114680646235014680836A3551468361DA353044616680A3437
:402C0000335318301468491C255078688142E5D30020F0BD6818002038B500210091002811DB0F49097888420DDA0D4D04010C3529680859002807D0201D0818694600F0DE
:402C40006FF9002801D0002038BDFDF793FD28680F34015D491E0155FDF794FD009838BD78180020F7B582B0002502986E1E06602E48D21C024017462D4A2C4610460C3895
:402C80000178106805E02301C358002B0FD0641CE4B28C42F7D3711C28D03401211D40180191039900F02AF900281FD101E02646F1E71F48016820460C300F521C480399A6
:402CC000026820460E30115419480399026820460F3011540398784300F0A0F8144900280968085102D00024009011E001251AE00F48016801980818009900F02CF90028DD
:402D000001D0012502E00098C0190090641CE4B203988442ECD3002D05D10298066004480179491C0171284605B0F0BDFCFF000084180020F8B50D4600216A468C46118028
:402D4000002839DB23490978884235DA214B04010C3319680A59002A2ED020460C300B5A801C0E5C184670438018954224D3854222D2002006E007465F43BF18AF4206D0C3
:402D8000401CC0B2B042F6D36046002814D0114E271DC8190C366A46294600F006F900280AD168460088012808D030682946C01900F0D1F8002803D00120F8BD0020F8BD8B
:402DC000FDF7D8FC30680F34015D491C0155FDF7D9FCF3E778180020F8B50F46002400F031F8002817D10C4900220B460C334A600EE021011D680E466A501D680C36AA535D
:402E0000B61C1D680F31AA551D68641C6A54E4B2BC42EED31A71F8BD7818002000280BD0C01C074A81085068890053884118994203D89368516018187047002070470000A6
:402E400078180020F8B5064600200F4D009029700C0121466846FEF74DFC00280CD129460C3100980860301B001F84B221466846FEF740FC002801D0FF20F8BD6C800098BC
:402E8000A8600020F8BD000078180020F8B5002827DB19490978884223DA174C05010C342168485900281CD028460C30085A009028460E300E5C401C0E5420682F1DC01900
:402EC00000F064F800280CD12068002445590EE0094829460C300068C01900F03CF8002801D00120F8BD00982D18641CE4B2B442EED30020F8BD00007818002030B50D46B2
:402F000004000BD0A800FFF789FF6060002805D000202570C0436080002030BD012030BD70B50D46040005D0002D03D00220205E002801DA012070BDFDF71CFC0221615EEC
:402F400060688900405828606088401E6080FDF719FC002070BD70B50D46040007D0002D05D002212078615E401E814201DB012070BDFDF7FFFB6088401C00B260806168BD
:402F800080000D50FDF7FEFB002070BD10B5040009D0227800216068FEF70CF90020C0436080002010BD012010BDF0B500231D46002802D00224045F0AE00120F0BD4668E9
:402FC0009F00F6598E4201D1012503E05B1CDBB29C42F4DA15700020F0BD000001480078704700008C1800207CB505460024FEF715F9A8796946087000A80622294601309F
:40300000FEF7CFF80021684604F0C0FC0C2806D0072806D01F2806D0122806D006E0022404E0042402E0272400E0012420467CBD10B500F05FF9FFF703FAFFF707FA10BD6C
:4030400070B504460025FEF7E9F8002C06D0A079012803D8214602F063FC00E00125284670BD01460120002902D05020088000207047000001460120002905D00348542215
:403080000078504308800020704700008E18002010B502460D49FE204870032410460DF043FB002810D10DF0E7FA00280CD105F04FFA002808D100F013FB002804D104F0D5
:4030C0000BFF002800D10024204610BD8C18002070B50025044600280ED0A07901280BD8FEF79CF8A0790028204602D002F0A6FF03E002F07BFF00E00125284670BD00006A
:40310000014610B50120002904D006220248FEF748F8002010BD00009818002001460120002903D00878024908700020704700008E1800200148007A70470000A023002060
:4031400038B504460120002C20D0617801291DD800290BD0FF25E535FEF760F80C4828180088C0B22070072803D00EE0FF25CD35F2E70020694608706846FFF77BF9694639
:403180000878012801D108202070002038BD000000102E40014A0021926810478C18002008B500226B461A7026280CD0094A342852680BD0352805D1900703D50021352028
:4031C00005F0A2FA08BD19462620F9E7D007F9D03420F5E78C1800200149087270470000A0230020F8B504460120002C26D06178012902D92278092A20D8002905D0FF2503
:40320000E5352078092803D004E0FF25CD35F8E708202070FEF702F82078114F114E08280DD00020FFF762F970780128207810D00D4969180880FE2070700020F8BD012097
:40324000FFF754F90720B8810549203188800120F2E7B8810248217820308180EBE70000C0112E408C18002000102E4070B50E46050001D0002400E00C4C002C11D0E28A26
:40328000500609D5D107C90F022002F06BFFE08A40218843E08204E0D107C90F012002F061FF3146284602F049FC70BD00230020F8B50546002004460D4E009013E0224679
:4032C0006946284600F0C2FF0098002801D00DF00DFAA878214602F08BFAA878214602F079FA641CE4B2308AA042E8D8F8BD0000CC23002038B51E4CFFF7A2F8042813D055
:40330000052811D0062812D003282AD007280AD100206946087002460120FEF7B3FFFFF78FF80128FBD138BD00F077FB38BD02F0B5FA00F072FB02F015FB8007800F0228EB
:40334000F4D10C4841880029F0D05B21095D0029ECD101210170A07D0140022002F002FF38BD02F09FFA0120FFF79AF838BD000000230020B2180020F8B50646002402F05A
:403380005FFF0546304602F075FF03460A480021068A0DE001228A401046174628401F40002803D0002F01D1224394B2491CC9B28E42EFD82046F8BDCC2300201CB50020AF
:4033C000694648706846FFF7BBFE01AA69460A20FEF758FF6946042008561CBD70B50D4601F01AFB04000BD02079002808D0FDF715FFE178A0782A4602F026FC002070BDEF
:40340000022070BD0148007870470000D82200204030C07E002800D00120704700B500F001F800BD902148430749084A40186030417F491CC9B24177D289914201D3002191
:403440004177C8B270470000E0220020CC23002013B501F0E1FA04000BD001F07EFE002807D0214601AA0A310620FEF70BFF00201CBD02201CBD000010B50C4601F0CCFA1F
:4034800000280AD001F069FE002806D0224604490A20FEF7F7FE002010BD022010BD0000C1220020F3B581B0074601460026029802F0BEFE0446002F01D0002500E0154D80
:4034C000002D21D0284601F0DDFA032C04D13946029802F009FF06463846029902F07AF9032C06D0002C10D00121384601F0D0FB03E03146384603F0FDF8284602F05EF8B4
:403500000221284602F074F8FEBD3846029902F061F9FEBD0023002010B5044600F066FA002804D103F0B0FD002801D00C2010BD2078611C02F08AFCFF2801D01F2010BDFF
:4035400002F0D0FCFF280AD02178621C02F0D0F8044821780068026B601C904710BD072010BD0000D818002010B503F08DFD002801D00C2010BD02F04BFC03480068C06A93
:403580008047002010BD0000D818002070B50D46044610210CF0EAFF1021601806460CF0E5FF334610221946204603F09BFD102130460CF0DBFF02202870204604F0C2FB51
:4035C00070BD0000F8B504464078217802028006870FE0781143A67809050002090D0643084601F019FA00210546F2B2002812D0002C10D0022F0ED0032F0CD0002A0AD064
:403600000279092A07D0002A05D0134A5A23527E1B5C9A4207D82889002104F0C8FA20460DF064F8FF21002914D10C48224600682946436930469847C0B2FF280AD128463F
:403640004030817EF2B2491C8176FF232146284600F0E3F8F8BD000098220020F41800200020704710B5044603F00EFD002801D00C2010BD2078611C02F0E8FBFF2808D09F
:4036800002F020FB044821780068426B601C904710BD1F2010BD0000D818002010B500F06BF904F019FC002010BD10B5044600786178E2780843A178114308432179084316
:4036C0006179084305D003F0D1FC002803D00C2010BD122010BD204602F0B0FC002010BD10B5FDF707F802F0CDFD044803F038FD02F0F2FA012000F003F810BDA8220020A3
:40370000F1B586B003A8009005A8019028489F22817A114081726846FDF79AFD002845D169460989C90705D0224806990068C2686846904769460989890706D5002835D16D
:403740001D480068816A0698884700282ED11B4E0025757075737571F575357675767575B570F570B5713746F5730120D03738731F20F880FF2130467972A0300176457630
:4037800000F0BCFA00242046069901F091FC002803D1641C2406240EF5D0FD720749BD72B573C0310D704D704D600D7207B0F0BD98220020F4180020D8180020E022002016
:4037C00070B505460E46084602F03AFD0446304602F050FD0121A9400A46224001400A4301D0012070BD002070BD10B50446084602F040FD0121A140014201D0012010BD47
:40380000002010BD10B5FEF71BFE032804D102F049F80120FEF744FE10BDFEB51C4616460F46054601F0CAFEA878FFF7F7FD02460190334639460094284600F00DF80028AC
:4038400008D1A8780199FFF711FDFF2C02D138460CF04CFFFEBD0000FFB585B005460E980C46FF2810D02B49C00009680A5840180179C0795278814201D9012601E09006E9
:40388000860F6846038108E06078A1788006860FE0780002014368460181284601F068FC070007D021462846079A00F063FC384609B0F0BD304600F011FD04AE0346039033
:4038C00002AA29460096204600F09DFB3C20405D002818D0284601F04BFC012813D0684600890096C0B20190A878231DFF22079902F0D8F868460089039BC2B2A8780799B2
:4039000002F018FCD3E7684600890021C0B20091E9E70000F0180020F8B5002600253046FFF72AFD07001DD090201149704340186030447F12E0601CFDF708FBCCB238462C
:40394000E040C007C00F07D02146304601F03AFF21463046FFF7A6FD6D1CEDB20548018AA942E8D8761C3606360ED7D0F8BD0000E0220020CC23002010B502F0ADF9002076
:40398000FFF7BEFE0CF048FF002010BDF8B5002400F0B2F80123012800D10124104F00203E4620360425082203E0002801D0002100E031460979002907D001290BD00229C5
:4039C0000BD0114681402143CCB2401C0006000EEBD07C70F8BD1C43F7E72C43F5E70000E022002010B5FFF7D1FF10BD10B5044604F0C4FB002802D1601C00F001F810BD35
:403A00001CB500240094062269460194FDF7BAFB002800D1122420461CBD10B5FDF709FA0446FEF70DFD012809D0FEF709FD022805D0FCF739FE2046FDF7FFF9EEE72046C2
:403A4000FDF7FBF910BD10B50B4681791943817103D08078114602F03BFB10BD10B582798A43827102D1807802F046FB10BD000030B50C4C0220A28A0B4B9978002901D0E5
:403A8000022906D11D785B78EB18282B01D9032002E0032900D101205105490DC0020143A18230BDC0112E40A818002000B500F029F8002807D0012805D0032801D004287D
:403AC00001D0002000BD012000BD014600B50020C90701D000F010F800BD014600B50020C90701D000F008F800BD00000148006870470000A018002001480088000A70478C
:403B000020102E400448008B410501D5042070474007800F7047000000102E400148406870470000A018002038B50446000610D5FFF7E8FF01280CD1684601F0B9FE684685
:403B4000007800F01BFB012001F0A0FD0220FFF749FF600708D507480179012904D1002101712620FFF71CFB0348006801692046884738BDAC180020D818002010B501467F
:403B80000A4A007800241070FFF7B6FF0128084603D002F0BFF9204610BD00F0E7F80400F9D1034801210170F5E70000A8180020A023002070B50446FFF79EFF002801D0AE
:403BC0000C2070BDA27B01211F48002A827801D00A4301E05208520082706279012A14D0C17849084900C170184D2868016820468847207901280CD06188208802F0F6FF6E
:403C00002080207904280FD015E0C2780A43C270EAE72868C168E01D8847E01D02F0FAF90B48808C208006E02868C168E01D8847E01D02F0EFF9074920798870204602F0E0
:403C400077F9002070BD0000E0220020D818002098220020A818002008B50178FFF74CFF814201D10C2008BD002914D0072069460870FFF71BFF012807D10121684600F072
:403C8000D5F8012801D0092008BDFFF7F1FE02F083F9012011E0FFF709FF012806D1684601F006FE6846007800F09CFA02F06AF9FFF722FF0028FBD10220FFF793FE002074
:403CC00008BD000010B501460A4A007800245070FFF712FF0128084603D002F0D9F9204610BD00F05DF80400F9D1034801214170F5E70000A8180020A023002038B5684690
:403D00000CF08AFC002801D01F2038BD01210098C90201804180002505714571857107214173857302F004F9009C202200212046FDF740FA25702A460021601CFDF73AFAA6
:403D4000204602F0E7F8204602F0A2F900980CF0CDFC062200210448FDF72CFA02480C388560002038BD0000AC180020F8B504460025684600950CF04FFC002801D00725D6
:403D80000AE0064E009830602278611C401CFDF708FA3168207808702846F8BDA0180020F8B504460025684600950CF035FC002801D007250AE0064E009870602278611C22
:403DC000401CFDF7EEF97168207808702846F8BDA01800200346084800B5834209D8184600F01AFE002804D00089984201D1012000BD002000BD0000FF0E0000074A9179FA
:403E0000491C8906890E917138220A4092014907090E11430843024908407047E0220020FF0E0000C006C00E70470000F8B507460E4600240D4803E0002C01D0002500E048
:403E400005462979002905D0641C2406240EF3D00020F8BD0021204601F02AF92E712046FFF7CCFF28813C700120F8BD0023002010B503F06BF90222002100F003F801F0D7
:403E8000D7FE10BD10B5094B40074907000F090F185A595A40185043C0086421FDF756F8002800D1012080B210BD0000742A0100F7B53D20405C88B015460C46002802D0AE
:403EC0002878042802D200200BB0F0BD6946087200262046FFF79CFA012800D00126204603A938300191009023460327A17E34333246206A03F04EF902A8089900900B461C
:403F0000019120463A4603A9243003F0CBF802466846007A2870204601F0B6F81046D3E7FFB587B00C4605461078694608723D20005D1746002826D000262046FFF768FAE4
:403F4000012800D00126204603A93830019100902346A17E34333246206A03F01BF902A80090291D019120462B1D03A924300A9A03F098F802006846007A388002D120468B
:403F800001F082F810460BB0F0BDF0B505463C20405C89B016460C4600280CD0307869460873002806D000272046FFF731FA012803D003E01F2009B0F0BD01270320089020
:403FC000204604A93830019100902346E17E34333A46E06903F0DEF86846007B03A928180290009120462B46019504A92430089A03F08CF802466846007B3070204601F03C
:404000004DF81046D7E7FFB505463C20405C89B016460C46002810D0084601F0A9F801280BD0308869468883002809D000272046FFF7EEF9012805D005E000200DB0F0BD13
:404040000220FBE70127204603A93830019100902346E17E34333A46E06903F09BF8291D2B1D07A8129A6D4607C5204603A924300C9A03F04BF802466846808B3080204639
:4040800001F00CF81046D9E770B50D460446FFF7BFF901280AD0E87AA97A00020143A07801F0C2FC012808D0002070BD00222421204602F0EDFC242070BD28214C2001557E
:4040C000204600F0B1FB282070BD0000002801D0002000E003484030C07F012800D0002070470000002300200146002049070ED50021084B03E0002901D0002200E01A46F6
:404100001279022A04D0491C0906090EF3D0704701207047002300200146002049070ED50021084B03E0002901D0002200E01A461279022A04D0491C0906090EF3D07047F7
:40414000012070470023002010B5044680346068002803D00CF0DEFA0020606010BD4030417070474030817070474030017070470171704792001018C166704770B53C254E
:4041800001F09CF9040004D020460021433001F0FFFBFF222946204600F0E8FB002C02D0A07801F00DF970BD10B5002801D0002000E00348002802D0008903F03FFD10BD31
:4041C0000023002010B5002801D0002000E00448002804D00179072901D100F047F810BD0023002010B501F069F9002802D0807801F0E6F810BD00207047000070B50546CE
:40420000008A00281ED01049F122897A1140C90618D5294640314A8A098A521C4A4392B2D10800D10121540801E0621A94B2A042FBD9FEF7D3FE012804D1298AA87822465C
:4042400001F0B8FC70BD00009822002010B50023054C0B60248A944204D992001018C26E0A60C36610BD0000CC23002038B5044600200090A079002814D14020015D05293B
:4042800001D00E290ED168460CF0D6F9002809D12046009902F0DAFB03481021C28A2046FFF7D1FB38BD00009822002010B50B4604460146184602F04BF8002802D020467D
:4042C0000CF01EFA10BD13B5044601AA11460620FDF7D8FF6846818861811CBD002800D10220704770470000F8B504462346401D543300909A1EA078911E01F0F5FA25463F
:404300004035A88A298A8000FCF720FE401E81B2688A884203D96982A07801F05DFF698A8C20015120460021433001F031FB27480088E88102F00AFFE989891C8AB2617989
:40434000FFF7A0FD01F074FC02F000FF2A8A6179FFF798FD074601F05FFC688A002806D01B49088A032212021043088202E0002001F026FF1648803801886E8A002E0CD0F1
:40438000304648431349FCF7CBFE0004000C01D0401C80B21049488002E00F4800214180288A704381B2A07801F080FEFF2228374932B9B21346204602F01CFCE98AA07860
:4043C00001F0F4FDA07801F025FAF8BD80102E40E0112E4071020000B21800207FB504468034616805460E46183108226846FCF7D8FE31462031082202A8FCF7D2FE102130
:4044000068460CF0B3F86068102108300CF0AEF860682B46083024331022694602F062FE7FBD10B504460821FFF718FB10212046FFF714FB207905281FD006281DD0082840
:404440001AD12189002003F071FB072020712046FEF7DEFF014620464030012913D00E21017000210176204600F0BCFF2046FFF76BFE2046FFF7C2FE10BD2089012200212A
:4044800003F038FBE1E70521EAE70000FFB581B01F4604460821FFF7E1FA10212046FFF7DDFA2079082803D0092804D0042203E00422012501E009220025204600F044FE66
:4044C000264600204036307022712046FFF73CFE0398002D02D0012808D00BE001280AD120890022029903F005FB04E02189029803F01CFB012700203076012F04D0204684
:4045000000F070FF05B0F0BD02983073204602F0EBFA054605480121C28A2046FFF793FA002DEFD109202071ECE700009822002070B50C460546FEF76BFF012809D10821B0
:404540002846FFF78BFA0023012221462846FFF79DFF70BD10B5044600F0F6FD2046FFF7F3FD00214034217010BD70B505461A24FEF74EFF012809D108212846FFF76EFA5F
:404580000023012221462846FFF780FF70BD0000F8B50446002000900E4668460CF04CF8002801D00D20F8BD8420005908212030009D00F02CFA20460421383000F027FA4D
:4045C000002E02D1204600F0FBFD2946204602F0CCF90E480821C28A2046FFF734FA204600F071FF25464035002808D0204600F023F8002801D0092028700020F8BD0820BD
:404600002870204600F0DAFFF7E7000098220020014610B540310A460978082906D0092907D00A2901D100F091F810BD0B20107010BD00F001F810BD70B5044600792546D1
:404640004035052805D0062803D008280FD00C2070BD03220621204602F01AFA0D480821C28A2046FFF7EFF91120287010E006202873204602F038FA0646AA8A0A20424361
:4046800001212046FFF7DFF9002E01D109202071002070BD9822002038B504460020009068460BF0C9FF002801D00D2038BD2046009D00F0C3F908202071204600F080FD15
:4046C0002946204602F084F900213D2001550F2040210855204600F071FF002038BD00B5024600F031FD10214032117000BD10B50446FEF78DFE012809D04020005D112857
:4047000005D100231A4606212046FFF7BFFE10BD10B5FFF786FE10BD38B504460021684600910BF089FF00280CD12046009902F0D0F905480821C28A2046FFF784F90D2066
:404740004034207038BD00009822002038B504460021684600910BF06FFF002801D00D2038BD2046009902F0A9F905480821C28A2046FFF768F90C2040342070002038BDF4
:404780009822002000787047F8B5002569460D70002801D0002400E01F4C002C18D0204600F0DBFC002813D0207903280BD005280CD026464036B18AA07801F081FCB078CB
:4047C000012806D01DE0042020711DE006202071F8BD0021204601F0D8FD274680373868002802D00BF096FF3D600020B0702079072802D12046FFF701FD0221204600F0B9
:40480000F7FE20790428E3D1207A694608703420FEF7C6FCF8BD00000023002010B54C22115400F052F810BD10B50446FF21FFF715F909202071A07801F068FC10BD000080
:4048400038B5FF216A461180002801D0002400E00B4C002C12D011460620FDF713FD684601882046FFF72FFD204600F087FC002804D104480068C1692046884738BD00006A
:4048800000230020F418002010B504468079002809D022214C200155FF212046FFF7DEF8204600F012F810BD10B5037902464032002B03D01173092B02D003E0002100E095
:4048C0002221117300F001F810BDFEB504460089002700902781207926464036002817D0012815D002280AD112E002AA01A9204601F01CFD002807D101980BF001FF204607
:4049000001F03CFD0028F0D02046FEF7D1FCB776254680352868002802D00BF0FBFE2F606868002802D00BF0F5FE6F60317B002919D0009800F064F8A078002100F086FF0C
:404940002046FFF795FAA07801F058F8A07800F037FDFF212046FFF781F80B20FFF742F800F068FCFEBD1F213173E2E7F8B517460E46054602F0E6FB04003CD020460C307D
:4049800000F0F6FF2046062200211830FCF712FC2046062200211230FCF70CFC1648224600683946436A28469847074626702846FEF72EFD012148406070002D10D02889DE
:4049C000608028464030C1782171002E0FD169796171018AE180418A2181808A608106E00648008BC005C00F2071002060803946204603F01EF8F8BDD818002000102E4013
:404A00000A4610B50146002003F030F910BD10B50BF088FB10BD000000B50146FFF702FA002801D0002000E00348002802D002898A4200D0002000BD0023002038B5044657
:404A400080346068002806D168460BF005FE002801D100986060606838BD000010B5014600F086FB0128887802D0FEF7DBFC10BD90214843024940186030007F10BD000034
:404A8000E022002070B5054604464035A87F012811D1A1789020084A484380186030067F3046FEF78DFE002805D10220A877A078314601F04DF870BDE022002010B50C4CBA
:404AC000A07A002813D0FEF727FF0A48027F417F408B00F0B7FB012809D10020A07200F0FDFE05498989090B01D000F03BFA10BDB0230020E0220020A0102E40704770477E
:404B0000490510B5490F0B00FCF756FD060704080C0C0F073E21FFF781FE10BD0821FFF7C3FE10BDFFF7D1FE10BDFFF7ADFE10BDF8B507460025002D01D0002600E0204E93
:404B400000F09AFE3046403044890021418100F09DFE304600F001FB01282BD1A00702D52846FFF711FEE00602D52846FFF768FEA00601D5FEF7D0FE600601D500F014FB13
:404B8000200602D5284600F01DF8600702D5284600F02CFA380402D52846FFF713FB780402D52846FFF700FBE00703D021463046FFF7A6FF6D1C2D062D0EBCD0F8BD000022
:404BC00000230020F8B5002801D0002400E0284C002C4BD025464035A878012846D1FF278820493700593E46002805D02149897A890601D5878AC68A2046FEF709FC0128E9
:404C000034D002F0A3FA2A8A6179FFF73BF9009001F002F800983346283081B23A46204601F0E8FFE98AA07801F0C0F912480188688A124E002810D048431149FCF770FAA0
:404C40000004000C01D0401C80B27080A07DC107C90F002001F086FA01E000207080288A698A484381B2A07801F020FAF8BD0000002300209822002060112E40B218002075
:404C8000710200000149096809680847F418002070B50D460026194A0146002801D0002401E014462034002C26D0204600F060FA01280AD19020484380186030007FFEF739
:404CC0007FFD002801D101F08FFE0D48006881692046884700280CD020464030817EA94202D3491B817600E086762089294602F05EFF204600F062FC70BD0000E0220020AA
:404D0000F418002070B503460088FFF785FE040013D000F022FA00280FD02079092819D02546997840352973204601F0DDFE0646A878012803D0AA8A02E0022070BDEA882D
:404D40000A20424301212046FEF77DFE002E01D109202071002070BD0EB5002217216B460292198100905A810120029B00990BF071FD0EBDF8B518480024807A002822D14D
:404D8000164E0025B089000B22E0204600F010FE1249A039401807882A462146384600F051FA012810D00E480122478305770A4944778A72002D01D0002000E020300028CD
:404DC00001D000F0FBFBF8BDB089000B641CE4B20028DAD1F8BD0000B0230020A0102E40E022002010B50088FFF716FE002809D0014640310C460978082905D00B2903D042
:404E00000C2010BD022010BDFFF716FC002801D009202070002010BD70B503460088FFF7FBFD040008D0254640352878082805D00B2803D00C2070BD022070BD84200059F3
:404E400010220830991CFCF7ACF92046FFF7C6FA2878082804D02046FFF778FC002801D00A202870204600F0A9FB002070BD000010B50C46002121700088FFF7CDFD0300D5
:404E80000BD000F06AF9002807D00948F121807A0840C00603D4112010BD022010BD022020701A8A1889002102F0FCFE002010BD98220020F8B50F46002100910088FFF799
:404EC000ABFD040012D000F048F900280ED0E079410641D4617E02264A07002A08DB8907402500291ADA2843E07135E00220F8BD02F028F90021017021894180A1898180DE
:404F0000217E4170E189C1803E7005460178134802F0A2FB284602F069FE1DE0204600F02DF9012806D068460BF086FB002803D00720F8BD2A20F8BDE07900992843E0712D
:404F4000204601F0FBFD607E0421304360760448C28A2046FEF777FD0020F8BD1D040000982200203EB500220F236C460292238100910190628169460EC900200BF06AFC22
:404F80003EBD0000F8B50F46054600F097FA040025D003202071254600264035EE76E6702046FFF7A1F900F0EDFF0920FEF71AFDA07800F011FD0121204600F019FB2E7074
:404FC0006E70AE703A4600212046FFF7CFFC0649887B401C8873A078FFF754FEF8BD284601F094F8F8BD0000E022002010B5002801D0002000E0094800280DD001464031A1
:405000000A464978022901D100215170807DC107C90F002001F0A6F810BD00000023002070B503460D460088FFF7F6FC04000BD000F093F8002807D01248F121807A0840EC
:40504000C00603D4112070BD022070BD20464030418A008A491C41430804C10C5888884201D2122070BD20822079072802D12046FFF7C4F8022028702089002102F03AFE1A
:40508000002070BD98220020016A491C016204D1817E491C4906490E81767047C169491CC16104D1C17E491C4906490EC1767047F0B5074687B003A8009005A800260D46C1
:4050C0000190002F01D0002400E01B4C002C05D06846FCF7BDF8002803D00BE0022007B0F0BD68460089C00704D1902200212046FCF760F811482946006882682046904743
:40510000050016D1A77066762746267140373E70204600F019F8204601F02CF9084820820848BE77807AF121084000D001202075E682E8B2D3E7000000230020F418002008
:40514000B80B000098220020002101628176C161C17620300177417770470079002805D0012803D0022801D001207047002070474030807F002800D0012070474030007844
:40518000002807D0012805D0052803D00E2801D0012070470020704710B5807801F06AF8002800D0012010BD10B500F097FB03498989090B01D0FFF7D5FE10BDA0102E4008
:4051C00070B5054604464035A87F002825D1FF206075A0789021154A484380186030417F9023491CC9B24177A0785843104B8018DB896030994201D300214177A078902176
:40520000484380186030467F0677A1783046FEF7D7FA002802D00120A87770BD0220A877A078314600F094FC70BD0000E0220020CC2300200020401C0006000EFBD0002094
:4052400070470000F0B515468207920F85B0000A02926A469080002D01D0002400E0564C002C28D0084600F0A3FB07466846808800280BD00298012843D0022841D00328D4
:405280000BD03D20005D012879D08FE04B48381801882046FFF717F888E00020029002A80BF0AAF9002807D03D20005D012802D12046FFF7E9FE7CE06846029E838832461A
:4052C00000213846FCF7F0FE3C48381801882046FEF7F9FF284600F0A9FA01AA21463046FEF7E6FD002806D030460BF0F5F93D204C21085531E0F5773146204601F0A2F9B3
:4053000057E0002000902089039068460BF064F9002802D0002005B0F0BD6846009E8388321D00213846FCF7BFFE2448381801882046FEF7C8FF284600F078FA2046FFF740
:405340000CFF002805D025464035287E002810D107E030460BF0B6F92BE02046FFF764FA27E001AA21463046029BFEF7D9FD002806D030460BF0A6F93D202873EDE712E007
:405380000298FEF7AFFF0399317003990001090A0143717068468088B070000AF0703046FFF7DAFC05E02046FFF76EFE284600F03DFA0120AFE700000023002000102E4062
:4053C00010B5074A917B002901D0491E91730021FFF76EFE002801D0002010BD012010BDE0220020F8B5074606464037B87F00282DD0B07890210090484323494518603542
:40540000287F0099FEF7F1F901281ED0287F401CC4B21E48C089A04200D800240020B877FF276F772F77A87702460146009800F0FBFC717DFF2903D0304600F05CFF77756C
:4054400001F0D2FA0025114F19E00320B877F8BD00200090224669463046FEF7F7FE0099002904D0FF231A463046FEF7D6F9641CF889E4B2A04200D800246D1CEDB2F88953
:40548000A842E5D8F8BD0000E0220020CC23002010B502460021084B03E0002901D0002000E018460479944204D0491C0906090EF3D0002010BD00000023002000B5012028
:4054C000FFF7E6FF00BD10B5044601F03BFE2189018080346168416061682831816002F03FFB10BDF7B50646087982B00C46092807D0A078F0770846FFF73AFE012806D097
:4055000010E030460BF0FCF8022005B0F0BDA1789020294A484380186030007FFEF750F9012810D0A078FEF7D1FD01280BD037780121304601F004FA25462035062F38D0CB
:405540000B2F0FD107E06846027C21463046FEF7ADFE0D20D9E72046FDF75AFF012801D1002028772046FFF779FA054604AA21463046FEF70AFD01205F2108556946097C54
:40558000002001910090A07833463A46294600F089FA69460A7CA0780323294600F0CAFDA0782946FDF762FE30460BF0A9F80020ABE70120D5E70000E022002010B5024672
:4055C0004032937F0021002B03D1927E002A00D00121064A927A002A00D000210279092A00D10121807800F0DDFD10BDB023002070B50C460546FDF70BFF00280BD1012C50
:4056000006D92879092806D02846FFF7C5FD0446002C02D004E0012402E0A87DC007FAD1A87DC107C90F204600F09CFD70BD0000012807D0082804D104480282034808309A
:405640000180704701488038FAE70000A0102E40014908817047000000102E4010B50446FF20F130012C01D1FF20D530002200F0CBFD044A108A044980B2A043088010823A
:4056800010BD000000102E40B6180020034B198A034A89B2814311801982704700102E40B618002010B50446012802D0082C07D102E0FF20D53001E0FF20F13000F09CFD5F
:4056C0000348018A034A89B221431180018210BD00102E40B6180020034B198A034A89B2014311801982704700102E40B6180020F8B505460120A84086B214460F46012284
:4057000031467C2000F080FD3A463146782000F07BFD6078267800020643E078A2780002024360792379000203430C2045430D2080010549281844182680001D44182280AE
:40574000001D40180380F8BD00102E40CB065B0E0343480901021943D00108430121C902084301490881704780142E404278037812021343084A1382C37880781B021843BD
:40578000908248780B78000203431383C8788978000201439183704700142E40024A1080000C90801181704700142E40044A002180180288491C89B21029FAD37047000031
:4057C00000102E40024A10820148803081817047A0102E4010B5054A1082084600F038FD024A0021A03A8018018010BDA0102E4010B50B46044600F005F819462046FFF711
:40580000E1FF10BD024A10820148803001817047A0102E4010B504490882FF20002220211D3000F0F1FC10BDA0102E40000202494D3008807047000000102E400249888A76
:405840000422904388827047C0112E4010B5084B074C0202A03B0029208202D075321A8010BD04490020088088807632F7E70000A0102E40201A2E4000B503490888488098
:40588000FFF704FF00BD0000B618002000B502484088FFF721FF00BDB618002010B5FCF7B9FD10BD014952200880704700102E4000210170704700000748808806492039C0
:4058C000098B884201D8081A03E00022D243101A401880B27047000020112E400148008AC0B27047A0102E4070B5084C049D2082074804890548603006880E800189118065
:40590000808818806007400F287070BDA0102E40E0112E400148008970470000C0102E4000280FD00D4A108B0870000A4870908B8870000AC8700948203000880871000AD4
:4059400048717047064A10880870000A487090888870000AC8701089F0E7000040102E40C0112E400148008A70470000001A2E40064B1A8999891B8A0270120A42708170D8
:40598000090AC1700371190A4171704760102E40012904D00549098BC90B017070470349403109898907C90FF7E7000000102E400148408970470000CC230020044A10821E
:4059C0000448028980894843101880B270470000A0102E40CC2300209021074B414300B5C918FF2260314A770A7700228A77114600F01AFA00BD0000E0220020902250434B
:405A0000074A10B58018FF21603041770177002181770448418EFF201D3000F0EDFB10BDE02200209822002000B5044A1082034880308088022200F003F800BDA0102E4015
:405A400010B50023884201D8081A03E00024E443201A4018044980B2884201D8824200D90123184610BD0000FF7F000070B55478157824022543D47888232602947834437F
:405A80005679127936023243002900D09823044908820348A038181805808480028170BDA0102E40FFB581B014460D4607460A9E0B9BFFF783FF002E0AD0009333460021D0
:405AC000049AFCF781FB05484019C45505B0F0BD0021049AFCF75EFBF5E70000BA18002070B502460448054D808808242C800B460021FCF74FFB70BDCC230020A0142E40A7
:405B000010B5212402466401044953200880102300212046FCF73EFB10BD000000102E40417802780902044B0A431A83C1788078090208439883704760142E40034A1082A4
:405B4000802001430148803001817047A0102E40054A1082044A6032908B0009000108439115084390837047A0102E4030B500210F4B0A46012809D0032802D005280AD130
:405B800007E04021198102210A2204E004210C2201E004210D221882054C20342088C0B205460D42FAD022800021198230BD000080142E4010B5044607480482074801808A
:405BC0008280032189030820FFF76CFD200202497530A039088010BDA0102E40201A2E40054A1082044A60321183000202494B30A039088070470000A0102E40054A491E5D
:405C00001082044A60321183000202494C30A03908807047A0102E400349884200D908460249088070470000FF0F000060112E400349884200D90846024988807047000064
:405C4000FF0F000060112E408823002900D09823084908820748A038191808881070000A507088889070000AD07008891071000A50717047A0102E4010B51446024606480A
:405C80000B46C0880021FCF76BFA012C02D103495420088010BD0000CC23002000102E40064A11880170090A417091888170090AC1700349542008807047000080142E40C3
:405CC00000102E400121814010B589B200227C2000F09AFA10BD0000FEB5FF210120FFF7BDFCFF210820FFF7B9FC3020FFF7CEFC3F48802101803F483F4D00784007400FC4
:405D000002286FD001286BD100202880002211460320FCF7B7FA394E3949B08D8882384F002420373248A0300482308F38822046FFF764FE641C2406240EF3D0B08F38839B
:405D40002E48103000F052F9716930690191009069464879C021084369464871684600F06DF900F055F82548214C40304188A03421838188A1831E49C088C0318880708EFA
:405D800038802048002606823920FFF7A5FC184F532038801C490720088354203880E020FFF704FDE820FFF701FDF020FFF7FEFC0020FEF75DF8134886822821018380152E
:405DC000A0810F48403086815B203880094800784007400F022807D0012801D10B482880FEBDFFE7032090E70848C01CF7E7000000102E40CC230020001F2E4098220020F2
:405E0000C0112E40001A2E4080142E40E0230000044800218183018302497420603908807047000060102E40074B1882064B6033988B00090001084399158843002A01D14F
:405E40001021484098837047A0102E40F3B50D2284B0920100924A780B78120213430393CA788B78120213434A790979FF20120211431A4A8C46918B9E460291118B019192
:405E80001649742260390A80154900220F7821E00121124B9140009C603BE3181D8889B21C881B88039E6E407546654064462E435C4026430CD1029B194209D00199D140F1
:405EC000CB070499DB0F8B4202D1104606B0F0BD521CD2B29742DBD8F8E7000060102E40D822002030B50949FF208C8B084A00210125137805E02A468A40224204D0491C4E
:405F0000C9B28B42F7D830BD084630BD60102E40D822002010B50446E020FFF747FC20782246401CC3B20021E020FCF7D9F810BD42790021012A02D90121417109034279E2
:405F40000A430179042914D049001143827B032A01D8D2001143427B52010A43817909021143012252031143054A118300889083704711460122920211430222E5E700007A
:405F800000102E4000B50120FFF780FB01494120088000BD00102E4000B50120FFF79CFB01494020088000BD00102E40024A10820148603081817047A0102E4010B5044C3B
:405FC000208204488180028183815143018210BDA0102E40A0132E40034B1882024820388180028070470000A0102E404178027809020A4306490A80C27883781202134323
:406000008B804279007912021043088170470000C0112E404178027809020A4306490A81C2788378120213438B81427900791202104308827047000060102E40417802783E
:406040000902084B0A431A83C178827809020A439A8341790079090208430249203108807047000040102E404178027809020A4306498A80C2788378120213430B81427944
:40608000007912021043888170470000001F2E4010B50446E820FFF789FB20782246401CC3B20021E820FCF71BF810BD024A10820248818370470000A0102E40001A2E40CC
:4060C000024A10820148603081807047A0102E4010B5044688000521FAF738FF04490C8204498880200202497230A039088010BDA0102E40001A2E400349088200020249F8
:406100007330A03908807047A0102E4003490882000202497030A03908807047A0102E4003490882000202497130A03908807047A0102E40F8B505461C4617460E4608463A
:4061400000F086F8054AB90021431582034AA03A80180180024880194455F8BDA0102E40BF18002030B50E4C238A01251A46012804D0022804D000290BD00CE02A430AE074
:40618000002908D12A4322825008400020821A4601E05A0852009A4200D0228230BD0000001A2E40054A1082044A6032908B4023984389010143918370470000A0102E4007
:4061C000044A118A0223002801D0194300E0994311827047001A2E4000B5064A1082054860300181002901D0012000E00020FFF7E7FF00BDA0102E40024A801802880A432B
:406200000280704700102E4070B5084BC5182C880023080003D104E040085B1C9BB2C607FAD08C439A4022432A8070BD00102E40024A1018405C8007800F7047BF180020E1
:40624000024908820148803080897047A0102E408000FF3041307047044B02461B8AFF208B4202D902484018805C7047CC230020BA18002002490882014880300089704754
:40628000A0102E40174902460B680020002B08D10A605207520F012A04D0022A10D0086012207047112292018A80CA80032252020A810122D2024A8140228A8105220DE0A0
:4062C000092252028A80CA80012252030A810322D2024A81012252028A810422CA810A8270470000CC2300200A4600B501461046FFF7B2FF00BD38B50C4605460021684660
:4063000000910AF099F9002804D1009928464C7000F006FC38BD10B5044680780021FFF745FE01212046FFF763F910BD436E002B0CD00B60014660318B781370826E426678
:40634000CA788A700021816608467047FF20704710B50346446E6033002C04D0846E002C04D0FF2010BD41669A7001E08166DA70002010BD0021416681667047406E0028E1
:4063800001D000207047FF20704770B50446C0790D46810610D5DF210840E07100F0D2FE0570218941804034218A8180618AC180A18A018101F010FB70BD000010B504468E
:4063C000FEF7D6FE01280AD1A1789020054A484380186030007FFDF7F3F9012801D000F003FB10BDE0220020F8B50E460446FDF70FF801282BD02079042801D0072825D1AA
:40640000F079B77900020743A0783946FFF70CFB25464035012820D03A46711C204600F090FA02212046FDF79AFEA07DC107C90F0220FFF797FE688A002807D0E87E0028FF
:4064400004D1032109020820FFF72CF9F8BD01222421204600F01CFBF8BD282028732046FEF7E2F9F8BD70B50D460646FDF70CFE002852D120213046FDF7F0FA34466878CC
:4064800040346073E87820220002E081A9780843E0816879010228790843218A814203D0F1791143F1712082E8790102A8790843618A814203D0F1791143F1716082687ABB
:4064C0000102287A0843A18AE180814203D0F1791143F171A082A08A218A8000FAF736FD401E618A80B2814200D9608201213046FDF738FEE87AA97A0002014300223046B1
:4065000000F036FB608A002807D0E07E002804D1032109020820FFF7C5F870BDF8B50C4605460027FCF774FF012847D0284EB07AC00709D02846403000900078002806D084
:40654000102803D01F212CE01A212AE001272846FEF774FA002823D02E4680360822611C7068FAF71EFE7068617A20300172A17A417270682146183008220B31FAF711FE84
:4065800021462846042213313430FAF70AFE39462846FDF7FDFF002810D1002F0FD012E007210322284600F073FAF28A08212846FDF749FA11212846FDF7D7FDF8BD0621B3
:4065C0002846FDF7D5FD009801210176F8BD00009822002010B5FEF71BF810BD38B504460020009020790D46032803D0042801D007281BD12046FCF70BFF012817D0684603
:406600000AF01AF8002811D10C486A78807A00991040F12210402075607E082210436076204600F0BDF92046FDF7E5FD38BD08222421204600F02CFA38BD0000982200200B
:4066400070470000F3B581B004460298FEF79AF806462046FEF781FD00282FD0162E04D32046029900F0FFF828E025464035287800270300FAF7A0FF0E1B1B1B08081B1BE9
:406680001B0808080808081B0298194A01780020135C8B4201D1012702E0401C0728F7D3E87E002801D1072901D0002F0AD01049B00008310A5820460299904702980AF0F7
:4066C0000BF8FEBDA078FFF721FD002301223D212046FDF7DBFE3D2028732046FFF71BFE029809F0F9FF2046FEF7EFF8FEBD0000842A010070B50D460021002801D000247F
:4067000000E00C4C002C14D020464030C177807F032802D12046FEF765FE2046FFF74EFE162D04D20449A800095820468847FEF781FD70BD00230020E42A010010B50146FE
:4067400040310C4609780E2903D1FDF7A5FF0120207610BD10B54021095C0F2901D1FDF7BEFF10BD4021095C0F2902D1002120304177704738B5044600220E4800920D4656
:40678000807AF1210840C0060ED52046FEF7F6FC012809D0684609F04FFF002803D12046009900F05FF938BD2946204600F05BF838BD00009822002010B51021FDF74EF948
:4067C00010BD10B54978FDF7B3FE10BD10B5FDF78EFF10BD012120304177704710B54021095C0C2901D1FDF797FF10BD10B54021095C0D2901D1FDF78BFF10BD70B50446AA
:4068000000790D46052803D0062801D0082802D12046FDF79FFE68784C21085509212046FDF7A6FC2046FFF776FD2046FCF7F0FD0128A07805D0FFF769FC2046FEF7BEFE26
:4068400070BDFFF76DFCF8E710B50446FF21FDF705F916214C200155A078FFF757FC2046FEF7ACFE10BD70B50C460546FEF780FC002802D02078687570BD21782846FFF794
:406880003AFD70BD70B5054648780C46032802D12846FDF76AFE6078122803D110212846FDF7DCF803482146006842682846904770BD0000F4180020704738B5044600206D
:4068C0000D46009004212046FDF7C8F868782076E8780002A081A9780843A08168790002E08129790843E081607E04210843607680070CD4684609F09FFE00281ED1204612
:40690000009900F01BF9607E022108436076E079410613D5BF210840E07100F013FC00210090017021894180A1898180217E4170E189C18001F05AF9FEF77CFC38BD704788
:40694000704770B50446C07815460A4600280AD00020E070C1B2A078FFF788F8A0782946FFF73EF970BD0120F3E770B50546042008700C468420415908222031601CFAF73B
:4069800010FC29462046042238310930FAF709FC0D2229462046FEF7A5FD002070BD000070B5054609200C46087008220021601CFAF700FC287D607004480922C07AA07003
:4069C00029462046FEF78EFD002070BD982200200B4610B501460B20187001221846FEF781FD002010BD0000FEB50024164F03E0002C01D0002500E03D462846FFF7BEFC68
:406A000000281BD15F20405D002817D16A4601A92846FFF78BFC002810D1019869460A7806782946FEF75EFD022E07D1A8780121FFF7B8FB09212846FDF79AFB641C240603
:406A4000240ED5D0FEBD00000023002010B50B46122119708178D977014601221846FEF741FD10BD10B50B46132119708178D97706490989C90603D1C18A40221143C1827A
:406A8000014601221846FEF72DFD10BD20112E4038B50546002000900C46684609F0CCFD002801D0072038BD00980D210170447002222946FEF716FD002038BD0B4610B513
:406AC00001460520187001221846FEF70BFD002010BD0B4610B501460620187001221846FEF700FD002010BD38B5054600200090684609F0A1FD002801D01F2038BD009CD6
:406B0000022020704C20405D6070A878E0772846FFF701FC022229462046FEF7E3FC38BD10B50B46072119708178D977014602221846FEF7D7FC002010BD000010B50B468C
:406B40000A49044608880C221A704A795A709870000AD870C8881871000A5871062221461846FEF7BFFC002010BD000098220020F8B50446403417460E460546E289617B8B
:406B80008078FFF729FA002F0DD100F0DFFAE2896979FDF777F9FFF74BF8608A002800D00120FFF70DFBE388A08A984200D90346628A218AA878FFF701FAE089E188C00830
:406BC0000A30081881B21920C001814200D90146A878FFF775FAA8783146FFF70FF8A87DC107C90F0220FFF7BDFAF8BD00B500F017F800BD10B504468818C018FF302D3045
:406C00000649FAF7A3F94034401C228A81B28A4200D211465000401AE08210BD7102000040184008704770B505461446100702D5A8B2FDF77DFFE00702D0280CFCF774FF5C
:406C400070BD70B5044660C8FCF754FBFBF70AF92089C01F0300FAF7AFFC0C07140C181B1E0C0C210C110D0C294630466289FFF7DAFF70BD284600F055FC70BDFDF71EFF46
:406C800070BD2846FCF79EFC70BDFCF745FE70BDFDF734FF70BDFDF732FF70BDE8B2FEF769F870BDF3B589B00021069103910491009101910291CF490D89284005906807C7
:406CC00013D5CC484030048A0598400708D50694A00803D1FBF72CF9012801D101200490214600220420FEF7A3FCC34E290730462030C036089000297EDABE48A030018945
:406D0000BE48CA0704D0428907231B029A43428142890C460A43428100220820FEF788FC0598000768D508980790002002900394E00705D06005400F022801D1FBF7C0FB8C
:406D4000AD482206203001468031403001910090002A02DA418A0198C160600637D50198C068002833D00098C17E00292FD14178022902D0807801280ED1A004400F06285C
:406D800014D0012812D00798807DC107C90F0020FFF7E8F901200290994F387800280DD00120FFF70DFA012078700AE00798807DC107C90F0220FFF7D5F9EDE70298012897
:406DC00005D19049088A0322120290430882E0062BD500984178022902D08178012913D10199C96800290FD0C07E00280CD1FEF763FD022808D800E020E00798807DC107C8
:406E0000C90F0220FFF7AEF90220FBF759FB3079C00704D07C480122C1681143C1607B480078002801D0012004901020844303D1FBF77EF8012801D101200490E8077CD083
:406E40006C48203004880598C0070DD0039920040843039020460221884303D1FBF768F8012801D101200490600712D5684F798800290ED03888401C80B23880884208D3C1
:406E8000FEF7DCFCFFF77EF800203880788001203871A0074CD50220FBF712FB574F4037B87DC00710D0787E00280DD0387EF97D884209D2387E5749800109684018113070
:406EC000FFF7D2F8002078763078012812D1E020FEF76CFCFCF70AFE4B4F02467860037800215B1CE020FBF7FBF8786809F0FEFB002030707078012812D1E820FEF756FC31
:406F0000FCF70CFE404F0246B860037800215B1CE820FBF7E5F8B86809F0E8FB002070703079800704D538480222C1681143C160214600220120FEF77BFBE80605D5012036
:406F4000FBF7AEFA1020FEF783FBA8062BD52D48E0380689808B089C8006C70FFEF7DAFC294908800120FBF79BFA2B4900200870002E15D0002F13D1214E70700120FFF7FA
:406F80001FF9E08A01060BD53178002908D1C107C90F0120FFF7E6F8E08A80218843E0822020FEF755FB680602D54020FEF750FB0720694608810698009003980190059830
:406FC00048810498002807D069460EC90A9800280CD0002009F01AFC0B4CE068002803D0FCF7D8F80020E0600BB0F0BD002009F031FCF1E700102E40E0220020402300206C
:40700000B2180020E0112E40C4180020EA180020AC180020DC1800209E180020F0B587B0054605A81E461746019100900C9C04AB06AA02A903A800F0C8F82846FEF760FD97
:4070400021463046FEF74CFD6846017A0398FEF7A5FB05A904A8FEF789FB6846027E21463846FEF773FB07B0F0BD000070B50548C4782046FCF729FD05462046FDF734F8F1
:40708000284370BDE022002070B5054884782046FCF723FD05462046FDF73EF8284370BDE0220020F8B5069E1F463478042C17D3231FDDB23B460095FFF7B0FF3819001F22
:4070C000FEF72EFD0520FEF751FD0446012229460798FEF7D1FD3570E00701D00020F8BD1F20F8BD70B51C4615460E46FEF708FD29463046FEF7F4FC0320FEF737FD01223B
:4071000029462046FEF7B8FD1F2070BDF8B5069D089E2C780094FFF781FF0120FEF726FD0746002221460798FEF7A6FD3046FEF7B7FD241D2C70F80701D00020F8BD1F209A
:40714000F8BD000000487047E023002008B56A4600210B20FBF796F86846007808BD000010B50B4C094923460833A160002142189278002A00D05A54491CC9B20429F6D3FE
:40718000FF21A0689A314843A06010BD04030201E022002070B5059C049D2070060A6670060CA670000EE0704806D101400E0843207104221946601DF9F7F3FF204604223B
:4071C00029460930F9F7EDFF70BDF8B5079C0E46E178069D09020160A77839430902016067783943090201602778394301602079611D4006400E30702079C0091070042235
:407200001846F9F7CEFF2146042209312846F9F7C8FFF8BD10B5FEF77DFB094A916848400849096848408108C3084409414063405940C30F59404008C9070843906010BD59
