:400000000040002011000000290200002902000010B500F03BFFC0460000000000000000000000000000000000000000000000000000000000000000000000000000000004
:400040000000000000000000000000000000000000000000000000000000000000000000000000000000000000000000000000000000000000000000000000000000000080
:400080000000000000000000000000000000000000000000000000000000000000000000000000000000000000000000000000000000000000000000000000000000000040
:4000C0000000000000000000000000000000000000000000000000000000000000000000000000000000000000000000000000000000000000000000000000000000000000
:4001000010B5064C2378002B07D1054B002B02D0044800E000BF0123237010BD6815002000000000E8430100084B10B5002B03D00749084800E000BF07480368002B00D17A
:4001400010BD064B002BFBD09847F9E7000000006C150020E843010058110020000000002B4B70B518680A21C00901F0A9FF1F2204000A20274D2849284E0B681340082BEB
:40018000FBD03060013528780028F6D1FA212000890002F01BF80800642101F091FF1F221D4930300B681340082BFBD01B4B64211860200002F00AF808000A2101F080FF63
:4001C0001F22154930300B681340082BFBD0134B0A211860200001F0F9FF1F220E48303103681340082BFBD020201F220B4D0C4C296009490B681340082BFBD028600134F1
:4002000020780028F6D10122064B1A6070BDC046841500200844010008022440400224401C4401003001204010B502F0BFF803680C2B00D0FEE7FEE7F0B54E4645465746FF
:40024000E0B484B00D0001A90A00884B50CB50C20F230B81282800D16EE010D9442834D05BD94D2839D0522811D1AB890E2B0ED17F4A2B8911688C466344136007E0202804
:4002800000D11BE1272808D0012800D194E004B01CBC90469946A246F0BD0A201F22754C7549764D0B681340082BFBD02860013420780028F6D18021714A89005078137819
:4002C000000218430DF09EFEE1E76D4A50781378000218430DF02AFFD9E70A201F22694C6549664D0B681340082BFBD02860013420780028F6D101F0DCFE0123624A116856
:400300000B43136001F0D9FE01F0D3FE80225F4B52041A6001F0D1FEB9E72B28B7D15C4B1B78052BB3D1524C4633E25C012A00D04EE10022E254AAE700230A201F224C4C9F
:40034000544D4D494D4E23600B681340082BFBD03060013528780028F6D153251F224E484549464E0B681340082BFBD0356001300578002DF6D13C234848257103810C3B53
:4003800043808380464B1D700DF05AF8002804D10423444A11780B4313700A201F22424C3549364D0B681340082BFBD02860013420780028F6D16AE753201F223B4C2E49F9
:4003C0002E4D0B681340082BFBD02860013420780028F6D11F22364C2749284D50300B681340082BFBD02860013420780028F6D11F22304C2049214D50300B681340082B3D
:40040000FBD02860013420780028F6D150241F2229481949194D0B681340082BFBD02C6001300478002CF6D1114B1C481C713C2303810C3B43808380194B1C700DF000F8AD
:40044000002804D10423174A11780B4313700A201F22154C0849094D0B681340082BFBD02860013420780028F6D110E7EC43010084150020244501000802244040022440C4
:400480005C160020584501000000204008002040F81500203445010048450100701100200816002064160020EC440100244401003444010088440100C44401002B78042BDB
:4004C00000D1E4E65A4C2379092B00D9DFE60A201F220133574E5849584F23710B681340082BFBD03860013630780028F6D120796421013801F06AFE08000A2101F0E0FD52
:400500001F224D4930300B681340082BFBD04B4B0A2118602079013801F058FE1F224648303103681340082BFBD02E201F22434F434E396040490B681340082BFBD0386052
:40054000013630780028F6D16B681F2298465E1D01235B42434499460F239C4611339A463548364F33781B0919003031092B01D93733190003681340082BFBD03960614609
:4005800033780B4019003031092B01D93733190003681340082BFBD0396003681340082BFBD05346013E3B604E45DBD1207906220138C300181A20184146053001F031FF73
:4005C000237969785A1ED3009B1AE418E1725EE60A251F221B481849184E0B681340082BFBD0356001300578002DF6D13C231648257103810C3B43808380144B1D700CF08A
:400600001FFF002804D10423114A11780B4313700A201F220F4C0849084D0B681340082BFBD02860013420780028F6D12FE6C04684150020E844010008022440400224403A
:40064000004501000C450100701100200816002064160020EC440100F0B54D4644465F4656460121F0B4804A87B0136800248B4313607E4800237E497E4D04E00134C250E8
:400680000433302C08D00A00032CF7D85A590134C2500433302CF6D172B60022764B00211A6080227548D2009A4601F0C3FE80220021D200724801F0BDFEEE22714B12062B
:4006C0001A609923704A1B041360704A012713606F4A704D136006236F4A704E117870480B431370D8226F4B12041A60202399464A466D4B1A60C4226C4B92021A604A4625
:400700006B4B1A606B4B9B4612235A46136002222B689046BB432B602B6893432B6033680E32A343134333603368093A934380223B4333602B68120613432B6001F0B0FC66
:4007400042462B682B6893432B60336805329343424613434A4633603368A343134333602B68FA243B432B6001F0A3FC524B53491A6802AB0292524A01251268514E0392A1
:40078000352204925A461268E40005924E4A00926A4601934D4B1A604D4A11601B6801F08CFC4C4A4C4B41461A6080224B4BD2051A604B4A13680B4313604A494A4B19600A
:4007C00000214A4B196053461B6808318B4351460B60474B19680F4380211F60454B09021360454A13680B431360302001F058FC33681D4202D1013C002CF6D13F4801F03D
:400800004FFC88213E4A3F4B89011A603E4B3F4A1A603F4A11603F4A1A608022264B12061A608022264BD2021A6041223A4B1A603A4B013A1A608022284BD2051A600323F7
:40084000374A1360374A13600022374B1A600123054A11680B43136007B03CBC90469946A246AB46F0BDC046000010400000002029020000000000006CF02E4000300F40F1
:4008800000400F40000002400001024000500F4010500F4000F02E4000700F4000FF2E40001BB700080004400001044008010440180104403000104008010B4017000080D4
:4008C00000010B400C002E40B6EA000008001040040010400600008004010B400C020B4078002E402D3E00007C002E4064F02E4060F02E400220000010002E404019010002
:40090000007F2500040301400000014041FF00800003014040FF00801C010140040101403000304030003140000E3F40F0B55F4656464D464446F0B495B062B6A64914222C
:4009400008310FA801F06DFD4C23A44FFA5CA44B0593002A00D1E5E0A24B0693A24B9A46A24B07930021A24AA24B0CA81A6001810AAB1B3119805980173919710C9300239A
:4009800009AA137004AB9C4612316144426001F065FE002800D127E2974B99466A22BB5C002B00D1F4E16C23FB5A8020934900060A68802402430A609149924A0868A40264
:4009C00002409020000402430A608F4A8F49136080228F4BD2021A600C228E4B1A608E4B0B3A1A608D4B8E4A13608E4A136000228D4B1A608D4B8E4A1C608423D15001F084
:400A000058FBC0238B4A1B0211680B43136001F054FB1F22884B89491C600B681340082BFBD00C221F24864B8649844D1A603132286820400828FBD01A6001310A78002AEC
:400A4000F6D11F24804E814D01F02CFD33681C420CD1D8232A689B001A42F5D0D8239B002B6001F01FFD33681C42F2D0D822784B92001B6829681142F0D1DBB2002BE3D0CC
:400A80004A461278022A00D19BE0032ADCD11D329343432B00D1EDE0532BD5D1684B0A219C466C48654A13682340082BFBD063460130196001780029F5D10CF0EDFC0823AB
:400AC00005990A7813430B704B2301229846FA5401F0E8FC4346FB5C012BF9D051463C2200230A810C3A4A808A80069A50463B7113700CF0A5FC002804D1042305990A789B
:400B000013430B704E4B0A219C4653484B4A13682340082BFBD063460130196001780029F5D191E71A704D4B4D4C1A702D4B06931A702D4B59889A465023F95251463B0056
:400B40008988503359805146897919735146C9795A8219710621DA820122D981198227315242FF311A839982204B1A0007931E2313802388002B04D10E220021394801F0D4
:400B800059FCE388002B04D106220021364801F051FCA389002B10D134490B808B7A002B0BD000230020CC685A00D2189200105301338A7A9BB29A42F6D801224C23FA5466
:400BC000D0E620229343442B00D03DE7284B18780CF080F938E7C046EC43010084150020641600200816002070110020FA1500203902000060160020F81500200000244034
:400C000000010240FFFF0FFF880F24406101000000012040240120403801204050C30000140120400C0120400801204080E100E00000002010E400E000E100E008022440C7
:400C4000400224408445010008032440C00F2440400324401C460100EC440100FC150020941100200C1600201C160020841100205C160020674B0A219C466748674A1368BC
:400C80002340082BFBD063460130196001780029F5D1D8226248920033681C4206D12B681342F9D02A6033681C42F8D001682B681342F7D1CBB2002BEED0303BDBB29846C1
:400CC000092B46D8FF23554A194013682340082BFBD0504B19603A7942454AD90CF0DCFB082305990A7813430B704B2301229B46FA5401F0D7FB5B46FB5C012BF9D04B464B
:400D00001B78052B00D09FE6434642463800DB009B1AFB185A79503042719A798271DA79C2711A7A02725A7A42729A7ADB7A8272C3720CF02BFB002800D085E604234A46BF
:400D40001370079B1888002800D17DE609F0A0FA7AE6304B49219C463248304A13682340082BFBD063460130196001780029F5D16AE62E219C462C48284A13682340082B95
:400D8000FBD063460130196001780029F5D15BE60724264826490860264927480B602749086027482749086027490C602749284C0B6001212160274C2060042426480360DA
:400DC0002648046026480360264803602648036026480360264803602648036003686C209BB23B52B954E0E50523029001900093214A0FAB2149224801F086FB214B994604
:400E0000002800D0CAE501234A46137008221E4B1A70C3E540022440CC450100080224404003244000460100E44501000B000002000024404000244001000A004800244005
:400E40000700008000032440040324401003244044002440000224400402244050002440880E2440C80E2440480F2440080F2440C80F2440880F244098100000C00000204E
:400E8000D90E0000F815002043160020F8B5104E002E18D000200F4DA9682C686A68002905D00023E758043380C29942FAD1E9680023002903D0D05004339942FBD1013E65
:400EC0001035002EE8D101F077FAFFF72FFDC04601000000F4470100F0B556464D4644465F460123F0B4C24C8BB02278050013430E002370582835D8BE4A8300D3589F462D
:400F00000B78032B1BD123789B072BD5BA4F3B78022B00D1A5E300D892E3032B00D199E3042B05D18520B54B00211B6840009847022223789343237000233B703378042B90
:400F400010D1AF4F3B78042B0CD10CF011FA7B888046002B01D009F0B5F94346002B01D105333B70112223781A4208D02378103A93432370A14B31001B68280098470BB045
:400F80003CBC90469946A246AB46F0BD23789B07E8D58B790A2BE5D101F00CF8E2E70522974B1A70DEE7964BDA8C8B899A4200D1A9E12378DB07D5D430680CF0E9FFD1E713
:400FC0008F4F3B789846022BCCD0012322781342C8D0042122788946114200D1D0E102333B7023788B432370BCE70A78844B1A71B8E723789B06B5D482490B78102B00D192
:401000003FE2814B18780BF0ADFEABE77C4F7B88002B00D071E102233B70A3E70B78002BA0D14A78002A09D17849754B8C46DA819A81774A083362441A607360012223782B
:40104000934323708EE723789B0700D48AE70B899B464B8901934B689846674B1B78032B00D198E1022B00D07CE7019B002B00D178E743465E468846824610E05A46082A09
:4010800000D159E14B46012122788A4322705A46911932008EB20199914200D8EEE1DF789A783F025D7917431A792D0215439A1D91465A46062AE1D11A785B781B021343CD
:4010C00003930DF02DF8504A390050781378000218430CF0C5FF002800D0F5E1039A4D4B3F043A431A60029A1204154302225D609A754B46C7E7002304AF7B803E4B1B7892
:40110000042B00D02EE723789B0700D42AE70B890A7B9A460B883A753B80012A00D1DFE112239B46736898465346002B86D03B00B14647461E00A8465D460FE0B91C0E326C
:4011400005A801F06EF9344B12371B78012B19D0AA4500D8EDE05D44327DADB27B7839781B020B437380022AE8D0FA78B97812020A432949B28009780437002900D1CCE0C7
:401180000129E5D1300000F0DDFDE1E7081D083100F0B2FEE6E600221B4B5A701A70164B1A78052A00D1ABE008221A70DAE649881A4B994200D99DE030880DF079FAD1E6AF
:4011C0000D4B1B78012B00D0CCE623789B0700D4C8E60B899946062B00D1AFE1142B00D1ACE10820054B00211B68FF309847B9E66416002034460100431600206016002008
:40120000F8150020681100205C16002098100000C00000204416002042160020FF010000072304AF98463B70002338007B7003F001F943463B70012338007B7003F0FAF8E3
:40124000C44B9A79002A24D11A78002A0ED15A78002A0BD19A78002A08D1DA78002A05D11A79002A02D15B79002B12D0B94801F01DF931E00222B84801F0D3F80023B74AC5
:401280001371B74A13706DE6081D083100F034FE68E6B44BF8221978FC2389011B011940B14B520218780003030013401943AF4BAF481A783F231340FE221943AD4B1204E6
:4012C0001B7814305B0413400B4303701A0A1B0C4270837001F0EAF803200BF043FF3F233B70002338007B700BF05AFF05229B4B1A7037E6802189005EE708F0E3FF8AE66D
:4013000002321A702EE683209B4B40001B68984701222378934323704BE698498A4200D016E78E4A128D002A00D07CE18B4A13850EE745464E4681E6DA79997912020A4362
:40134000029211008E4A083392888A4200D1CAE08B4A52898A4200D1E9E0894A128A8A4200D090E6864A9289002A00D08BE6023206214A4382498C4662441780558082E668
:40138000082221780A4200D17EE005233B70237893432370E6E5019B04AF002B00D1E1E501235E469A468146454602910FE05846691D072836D00D005246237893432370BE
:4013C0005B469A19330096B2019A9A4253D96B782A781B0213433B80AA78BA702B79E9781B020B435946BB801529E0D10223BB7504AB691D1022981D01F013F86049614B81
:401400008C461A78153553009B185B00634499885D4B9942D0D0022ACED13900002000F0EDFCC9E75046B8756879073584464878614600020843534903900978F8808C46AD
:401440004F4849008046C02061444900414489884001814253D04D4881424BD14C4903988842A9D13D49C88C002800D010E1CB842423CA54A0E74D46029E73E555464646A3
:4014800070E50B3BCB70BCE54246032A00D069E502323A703A7C002A00D063E5344896320282802212014281F83A828108303B740BF0C6FF002800D054E54A4623781A4337
:4014C000434622703B704DE584202B4B00211B684000984702222378934323704B46D2E504239B461EE6264A1288002A00D02FE700223DE76346022B00D05DE78DE7254A6E
:401500000398904200D1FFE000D9B1E0224A904200D1ECE000D9E4E0013A904200D04BE70E4A918A002900D0B2E0938244E7144AD288002A00D010E7012219E773899B46B6
:40154000002B00D17AE5154BB04600274E469A46A94629E000F2FF0F5C160020F8150020431600207DF1FF0F7BF1FF0F7CF1FF0F6811002078F1FF0F6016002002290000AD
:401580009411002042160020FEFF000001180000052A0000032A0000012A000068160020BF19BFB2BB4548D9434652465B681288DD192B889A4214D8524652889A4210D329
:4015C000062E19D101235C4A2B759288AB889A4266D0594A52899A4271D0574A128A9A4275D02378DB07DBD51220544B29001B68FF3001939847D3E70223291D2B751022C8
:401600004F4800F0FFFE0028EBD14B488389002BE7D104220C30290000F003FF494A137801331370DDE78620444B05A91B68400001939847434B1978A2E54D464646FDE4EB
:40164000012B00D074E408203C4B00211B68FF3098476DE40A20394B00211B68FF30984766E48420354B00211B68400098475FE4354A90425AD0354A904251D0344A904253
:4016800000D099E6334A918B002901D1938393E686202A4B04AA1B68911D400098478BE625490988002935D023494989914206D00C20224B291D1B68FF30984770E71E4AEB
:4016C000D288002A19D01C4A128A9A42F0D11A4B9B89002BECD1042229001F4800F0A1FE5EE71C4A118B0029D2D1138364E6194AD18A0029CCD1D3825EE60F4B0422981DE3
:40170000290000F08EFE4BE7124A518B0029BFD1538351E604222900074800F082FE3FE70C4A118C0029B3D1138445E6094AD18B0029ADD1D3833FE6941100206016002012
:40174000A847010042160020A62A0000C92A0000042A0000F8150020A0110020F0B55F4656464D4644460023F0B487B005A90B804B80724A724B734C1F781388528824881D
:401780009146714AA046D28C3E00013292B202926E4A002512899C4603920022924693466B4B1B88012E65D0002834D00136F7B2012F00D1B2E001223E009246002E30D184
:4017C0006A46029C92890C804A806445EAD922004C45E7D84C886445E4D39442E2D3002D00D0A5E05B46002B02D04246554B1A805346002B01D0524B1F70564A50781378F7
:40180000000218430CF0CCFB00282CD0524B00211B68852020E001220026924600270120CEE700220A8000224A80012EBAD9002D00D080E05B46002B02D04246414B1A805D
:401840005346002B01D03E4B1F70052200218920424B1A70404B1B68400098470221404A13788B43137007B03CBC90469946A246AB46F0BD66460122544694460025002289
:4018800000970194002829D0364F4446BA4624015444647A0133A34234D29BB2A4B29C4223D8B24207D9914505D3AE4201D8AA4201D99C42E6D80A8062460198009F8246B7
:4018C0004D80012A2FD10A88B24225D9914523D360460125B446060001207BE701229346002200230124012090461F4A1D01924655442A886D88013292B2B242C2D94A45C0
:40190000C0D8D2E767460137FFB20097BC4601279BB2A4B20197C2E70120ACE70122002092466646A7E7B44601251600012045E7074A138056E7064A13807BE7681600208B
:40194000421600206C160020F815002094110020381600205C1600206016002043160020641600209847010084110020F8B5002839D04B4E33780133DBB23370022B00D991
:4019800085E05800474F484AC01840003C88105A79889C4684422DD9581CC0B203280BD045002D186D00555B8446AC4245D9002B02D193899C4239D903213C4B1970002185
:4019C0003170118878888C423BD9D1888C4252D99189A14255D203220020327001321A70FFF7BCFEF8BD324B2D4E1880002333700023C6E78142CFD36346590061444900D1
:401A000051182C4A50781378000218430CF00AFB0028E7D084200021274B40001B6898470221264A13788B431370DBE79942C3D30220022330709C46DEE7A942B7D3307019
:401A4000DAE78842C1D300235900CB185B00D05AD2185188174C0904014360782378000218430CF0B3FA0028BCD00A20124B00211B68FF30D3E78842AAD30121012331707D
:401A8000E2E78142A7D8022102233170DCE70322064B044F1A7000223C883270024A90E742160020681600209411002043160020441600205C160020601600206416002041
:401AC00010B512F07DFC10BD10B500F0F2FA0421034A13688B43136030BF00F0EEFA10BD10ED00E07047C0462B2070472B2070472B2070472B2070472B2070472B207047D0
:401B00002B2070472B2070472B2070472B2070472B2070470220FF307047C04610B58024094B64011C60094A094B1A6700F0C1FAC02208490B689343403A13430B6000F075
:401B4000BCFA054B1C6010BD80E100E0C11A0000000000200CE400E000E100E08022094B520110B51A60084A084B1A6700F0A1FAC02207490B689343403A13430B6000F06A
:401B80009CFA10BD80E100E0C11A0000000000200CE400E08022024B52011A607047C04680E100E08022024B52011A607047C04600E100E070B5802506002D02A8420ED9F2
:401BC0000400094800F06CFA084B9C466444AC42F7D8074BF318DB0BDB036644F61A0548704300F05DFA70BD0000C05D0080FFFFFF7FFFFF80BB000010B5430018180001C6
:401C000000F04EFA10BDC046314B324A1978324B09021B781943314B1B7812781B0213432F4A93424ED0D4221201934246D02D4A13602D4B2D4A19602D4B1B7812781B0229
:401C400013432C4A134200D12B4B2C4A13602C4B2C4A1B7812781B0213432B4A93420DD02A4A93420AD0052B08D0294A1360294B1A68294B1B68AA2B09D07047274B244A2C
:401C80001360244B1A68244B1B68AA2BF5D11F2AF3D91B4B1B780E2BEFD1214B214A1B7812781B021343204A1360204B204A1B7812781B0213431F4A1360DEE70429B6D12E
:401CC0001D4BB4E70729B2D11B4B0339AFE7C046D9F0FF0FDEF0FF0FD8F0FF0FDFF0FF0F580B00006C002E4074002E40DAF0FF0FDBF0FF0FFFDFFFFF0220000078002E40D6
:401D0000DDF0FF0FDCF0FF0F0F0F00000505000080002E40EC0F00F0E00F00F0050F00006DF2FF0F6CF2FF0F84002E406FF2FF0F6EF2FF0F94002E40580D000001607047D3
:401D400001607047F8B54F4646462A4BC0B49B8A294A1B01D3189E7A0700002E04D0057D022D24D0012D03D00CBC90469946F8BDDB689846031D994603E0AE42F4D9013506
:401D8000EDB26B1EDBB25C00E418A4004444237A012BF2D102224946606800F033FB0028EBD12388002BE8D17B882380DCE7DB6800259846031D99464346013EF6B20136FD
:401DC0005C197200237A9619B600022B07D00C35B542C9D043465C19237A022BF7D110224946606800F00EFB0028F0D12388002BEDD1D9E72416002084110020F8B55F4675
:401E0000564644464D46F0B4384F8246BB698846002B04D0BA8B824263D00023BB615346334A1B01D3185E7A002E05D043469B7D022B35D0012B05D03CBC90469946A24629
:401E4000AB46F8BD2B4B01259946062343449B4603E0AE42F0D90135ADB26C1EA4B224014C44237A012BF4D102225946606800F0C9FA0028EDD12388002BEAD143469B88FB
:401E8000238043469B786372A31CBB615346BB83BB7F5A00D3185B004B445B8A6380CBE7144B013E1D0099460623B6B2434401369B462B7A36014E442C00022B06D01035CD
:401EC000B542B9D02B7A2C00022BF8D110225946686800F097FA0028F1D12B88002BEED1CCE70A88013A1A8097E7C046241600209847010084110020F0B52B4C89B0E37FAE
:401F000006000F00022B01D009B0F0BD258C002DFAD021000422223102A800F082FA3A88316803A800F07DFA204803A91022103000F068FA1E49002802D18B8B002B1FD0F9
:401F4000A37F013502AAADB215805A00D3185B00CB185B8A02AA53809D420DD81100A06B0CF060F8002813D140220121A35C8B43A35400232384C7E70120FFF7F7FCF3E79E
:401F8000A27F029B01320193CB61D3B2A377D8E784200021E36B4000984740220221A35C8B43A354E0E7C04624160020984701008411002070B540250223364C625D134296
:401FC0000ED0E67F022E38D03FD9032E09D0042E06D10120FFF7C2FB0122635D9343635570BDA57F6B1CDBB2A377022B1AD85A002949D21852008A18128A002A32D0A81C22
:40200000C0B203280CD04200121852008A18128A0300002A25D0FF2D02D18B8B002B1ED00323A37704230020E377FFF797FB40220121A35C8B43A354D2E70120FFF796FCC8
:402040000122635D93436355CAE7012EC8D10020E377FFF78BFC635DB3436355C0E702200223A0775A00D3185B00CB18598A1A8A09041143A06B0BF0A9FF0028D7D00A20FA
:402080000021E36BFF30984740220221A35C8B43A354CCE72416002084110020000000000230800803D00138FDD1C046C046C0467047EFF3108072B6704780F31088704728
:4020C000002243088B4274D303098B425FD3030A8B4244D3030B8B4228D3030C8B420DD3FF22090212BA030C8B4202D31212090265D0030B8B4219D300E0090AC30B8B426F
:4021000001D3CB03C01A5241830B8B4201D38B03C01A5241430B8B4201D34B03C01A5241030B8B4201D30B03C01A5241C30A8B4201D3CB02C01A5241830A8B4201D38B022F
:40214000C01A5241430A8B4201D34B02C01A5241030A8B4201D30B02C01A5241CDD2C3098B4201D3CB01C01A524183098B4201D38B01C01A524143098B4201D34B01C01AA4
:40218000524103098B4201D30B01C01A5241C3088B4201D3CB00C01A524183088B4201D38B00C01A524143088B4201D34B00C01A5241411A00D20146524110467047FFE700
:4021C00001B5002000F0F0F802BDC0460029F7D076E7704703460B437FD4002243088B4274D303098B425FD3030A8B4244D3030B8B4228D3030C8B420DD3FF22090212BA77
:40220000030C8B4202D31212090265D0030B8B4219D300E0090AC30B8B4201D3CB03C01A5241830B8B4201D38B03C01A5241430B8B4201D34B03C01A5241030B8B4201D3A2
:402240000B03C01A5241C30A8B4201D3CB02C01A5241830A8B4201D38B02C01A5241430A8B4201D34B02C01A5241030A8B4201D30B02C01A5241CDD2C3098B4201D3CB016B
:40228000C01A524183098B4201D38B01C01A524143098B4201D34B01C01A524103098B4201D30B01C01A5241C3088B4201D3CB00C01A524183088B4201D38B00C01A5241F7
:4022C00043088B4201D34B00C01A5241411A00D201465241104670475DE0CA0F00D04942031000D34042534000229C4603098B422DD3030A8B4212D3FC22890112BA030A9D
:402300008B420CD3890192118B4208D3890192118B4204D389013AD0921100E08909C3098B4201D3CB01C01A524183098B4201D38B01C01A524143098B4201D34B01C01AC3
:40234000524103098B4201D30B01C01A5241C3088B4201D3CB00C01A524183088B4201D38B00C01A5241D9D243088B4201D34B00C01A5241411A00D20146634652415B1072
:40238000104601D34042002B00D54942704763465B1000D3404201B5002000F005F802BD0029F8D016E770477047C046014B18687047C046641500200E4B70B500251E00FF
:4023C0000D4CE41AA410A54204D0AB00F35898470135F8E712F0FCF9084B00251E00084CE41AA410A54204D0AB00F35898470135F8E770BDDC470100DC470100DC4701005C
:40240000E447010030B50024A24208D0035D651C0C5DA34201D0181B02E02C00F4E7002030BD002310B59A4203D0CC5CC4540133F9E710BD03008218934202D019700133C9
:40244000FAE77047134A1088810703D08107890F401A001D11791030484381B25088820703D08207920F801A001D800040180A494030098980B2CA0701D0503080B28907FD
:4024800006D504495422091F09785143081880B270470000BA1100207C16002010B501F0EFFE10BD10B500F05BFA10BD10B50749044609780220002907D1204601F030FFCB
:4024C000002802D120460AF039FF10BD4A13002070B504460120002C12D02368002B0FD0616800290CD0074D06222889208118462968FFF796FF696860680978017000200B
:4025000070BD00007C160020FFB585B0002768460E9D07734F481C460078002802D0082009B0F0BD10990F9801900095029105A807C800F007F90028F2D16946264603ABB7
:4025400084460873002C19D0002115E08A00B75A082F09D990198078002805D0083FB7521878401C187005E0002914D00027B75290198770491CC9B2A942E7D360460028C0
:40258000CED10F98002809D0109901F029FA002804D00120C4E701208446EFE701F070FE2D480021416081600599016021888180022D07D3A1798171A17AC171A189018160
:4025C000218A418100211EE0481C19E082008B00A75AE65ABE46BE4211D26F463E80B4461E190296B678BE7001967646E6521719029EBB78B3706646A652019EBE70401CA7
:40260000A842E3D3491CA942DED3134822460C3000906846037B0799069800F01BF90028B8D168460B4C007B60700B480C3001F057FE0028AED1084907480C3107F0DEFDD0
:402640000028A7D107F0F8FD0028A3D10121217066E70000B411002070160020F8B5054636480F460078002802D002242046F8BD002F60D000243249002D16D02A89D0078E
:402680000DD02868002808D003881B3BE12B04D24088FB2801D81B2801D2012409E0900707D56868002804D1F7E70020088108604860002CDAD122482E8906811F481B2109
:4026C000801D01804180042101711C490020891C0870F00705D019480622801D2968FFF7A0FE1749B00703D56A68144812788270124D0E46AD1D281F0D60486001F036FE14
:40270000284601F025FE30890EF0FEFB30890DF01FFD28880DF022FD30890EF02DFD03461033FFF78FFE1F21C018890140183880A91F88809AE7012498E70000B41100204D
:402740007C160020FFB58446384F1C460020BB883F78054602460646002F11D100290ED0029999420BD36146002908D0002C06D00A99002906D02E4B0B99994202D20120A2
:4027800004B0F0BD002144E0AB001F19BF78002F3BD0E35A002B38D07B43591889B22B0000F04AF8050410161C253100A7782388BC46FF27233BEB37BB4222D26346032B0D
:4027C0001FD322E0A388002B1FD0302B19D31CE02389002B19D0282B13D316E0A289002A13D01346134F233BBB420AD20DE0268A002A0AD033460F4F233BBB4201D29642C6
:4028000003D901200EE0002001E000280AD16D1CEDB2099B9D42B7D31C2463435B1802998B42ACD89642AAD8AAE70000B411002079020000BAFF000030B47446641E25786E
:40284000641CAB4200D21D46635D5B00E31830BC18470000FFB583B0002469460C801F4606468C80002806D00598002803D004983043800701D0012466E0002FFBD0344973
:40288000049809888842F6D3FFF748F9FFF782F900F012FC002855D100F062FD002851D12C49084601F0D0F805042D0C4AD12A480499066081800021C18007810C98007A74
:4028C000C00704D0684601F0F4FC040007D10C98007A800703D501A801F0F4FC0446BF1DFEB2002C20D13146059800F05DF804001AD10EF04FFC040016D16A4610889288FA
:4029000008368518144AF1B29088D288AEB29319984207D3401B801A80B201F085FB050007D000E0FF25012400F05EFA002D04D008E0F8B200F01CF9F6E700F081FA074974
:402940000120087000F0CAFB204607B0F0BD0000B8110020952A000088160020C011002010B503480078012801D101F0FFF910BDC011002070B5084B0446DA889E88002054
:402980005518B54206D81D68AA182260DA885118D98070BD032070BD88160020014800897047000088160020F0B587B007460D4600208900009006916846FFF7DBFF8446D2
:4029C00000285DD1304800990160002117E02E4B88001A680629115406D22C4C0419667882185670628805E0C419203CA67A8218567022891B68C018491C4280C9B2A9421A
:402A0000E5D300242DE0601CC2B2059025E01E4FA30039689600581840887118039604904E88B04217D938466F46FE80B6464F786E4677710297049F4F800168039F5E189A
:402A4000767879184E700168764659184E800068029F18184770521CD2B2AA42D7D30598C4B2AC42CFD36046002809D168460699FFF780FF8446002802D10549009808601D
:402A8000604607B0F0BD0000C411002008480100C81100207047000010B5002809D005494A68002A05D0011F08788000105801F069FA10BDC411002010B50446FFF76EFF41
:402AC000C0B2801DA0420CD307484068002808D0A100405801F0C8F9002801D00470001D10BD002010BD0000C4110020F8B516460D460446FFF752FFC0B2801DA04203D238
:402B00000020C0430090F8BDB2B2E9B2684601F0D1F90099481C03D0024AA000526811500098F8BDC4110020F8B50746FFF736FF801DC6B20A49002005460C680DE061787A
:402B4000002907D06188B94202D32078FFF7B4FF002804D1241D6D1CEDB2B542EFD3F8BDC411002010B5002801D0FFF795FF10BD70B506460948002504680BE0617800293D
:402B800005D062882078121D0023FFF7AFFF241D6D1CEDB2B542F1D370BD0000C4110020FFB581B00A9F16000C4620D000F0F2F8054604281BD0002F0CD03846FFF7B4FF2E
:402BC00020492A0151184860002810D03A460499FFF727FC1B4928010E504618778101980570200406D47D20C000444304E0FF2005B0F0BD6404640C00F0BAF80746042869
:402C000007D000F04FFAA0420BD800F04BFA201A03E0204600F0AAFA0020F06035720020E6E700F03FFA009000F0B6FA00980121001B009000F0ECF802493A015118009856
:402C4000C860E6E794160020F8B5060116483418217A042903D0E068002802D017E00020F8BD00F01FFA054600F096FA00F0A0F804280CD001010C480F18F86800214519CE
:402C800000F0C6F80020F860284600F06FFA6068054D002801D0FFF765FF042020720020A8516081E060DAE794160020FEB500266A46304601232549050169180D7A042D6F
:402CC00002D0C96800291BD000211154401CC0B20428F0D300246846005D002830D01B48210108184189476805680291002101604160042241810272C160002E02D015E070
:402D00001354E3E700F054F804280ED001010F4808180190C6680021304600F079F801980021C160304600F021FA0126002D07D038460299A847002F02D03846FFF712FFD7
:402D4000641CE4B2042CC6D3FEBD0000941600200EB5002005216A460090118150810348694600680FF07BF80EBD0000CC110020074A0020010189180B7A042B02D0C968DC
:402D8000002903D0401CC0B20428F3D370470000941600200549002002015218127A042A03D0401CC0B20428F6D370479416002030B50A4B04200A4C00210A011219157A90
:402DC000042D06D0D268002A03D09A4201D808461346491CC9B20429EFD330BDFFFF0000941600207047000030B50020074C05460423020111190B72A5504D60401C4D81BE
:402E0000C0B2CD600428F4D330BD00009416002030B5094C00231A011219157A042D04D0D568002906D02D18D5605B1CDBB2042BF1D330BD2D1AF7E79416002000207047B2
:402E40001CB5002469460C70142001902346054A05480FF009F804480068401C00D1FF2420461CBDBD2E0000CC1100203EB5124A0146FF2000230124126800290DD0012996
:402E800014D0042908D104206946009308814B8110460EF0E4FF80B23EBD6846009304814381694610460EF0D5FFF4E768460093048143816946EBE7CC11002070B54589D2
:402EC0000468416800890300FFF7B6FC08280509091E22282628002005F012FF1EE0022908D0C8B22A4621460DF086F82046FFF739FE13E002202A4621460DF07DF8294639
:402F0000204600F00DF809E000200EF0A7FC05E02046FFF7CBFE01E0FEF7E4FD002070BD014B0022DB681847D011002070B5448905680089022803D0032809D0FF2070BD38
:402F40002246094C0023A46829460120A04708E0FFF7A4FA241DA2B200232946022007F000F8002070BD0000D011002070470000024800214160018041807047D01100202F
:402F800070B50C46002186B016460391012802D0022859D116E003A9012007F037F801281BD1039D324621462846FFF73AFA0095287801900220694608814E816846FFF75C
:402FC000B5FF41E0214D002B686809D0049004A9022007F01BF801281DD0022006B070BD002812D0298840182146FFF71AFA28880024801980B228806988091D884206D1AF
:403000002C801348FFF792FF03E00320E6E788421AD96C6018E004986860E278A378110219430B4A698000231060E3565360032313815181A1788170E178C17061784170FF
:4030400021780170042028800020C7E7D0110020D41600203EB515460C46022803D004280CD000203EBD0091019002206946088107484A8100680EF0F2FE07E00CF0BCFF57
:40308000044B0022DB6829462046984701203EBDCC110020D0110020014AD16090607047D0110020034801688068081A0A21484300097047E016002010B5FEF74FFD4822B0
:4030C00004490548FFF7ADF903490120C870002010BD000024480100E41A002010B5FEF761FD10BD70B5134C2368002B08D0207B1149C20705D04008400020738868A080C8
:4031000070BD88680B4AA18880B29268814203D90A4D691A091802E0814202D2411A5118A160A080A0689842EAD30EF0B5FE00F013F870BDE0160020C0102E40FFFF000006
:4031400010B508461946FFF7A7FF10BD704710B5FFF780FF10BD000003480021016041608160C16070470000E0160020024610B5FF20002A0CD0FFF7EFFF064C0321207B52
:403180000843207310010A21FFF720F82060002010BD0000E016002000B504480A21806848430209FFF7D8FF104600BDE01600200248007B8007C00F70470000E0160020DC
:4031C00010B54B490868002802DA4A4B01221A70022290430860484800694549C00B4031096A0246C907C90F0A4259D0012000F07FFA3F480E216C30FEF7A0FD3E48202191
:403200008430FEF79BFD3C4814219C30FEF796FD3948FF21C131A430FEF790FD3648FF212F31B030FEF78AFD33483449BC30FEF785FD31483249AC30FEF780FD30492E4871
:40324000491CB430FEF77AFD2B482E49B830FEF775FD29482C49CC30FEF770FD26482B490830FEF76BFD24482949A830FEF766FD214828498830FEF761FD1F4826498C3020
:40328000FEF75CFD1C481921C9029030FEF756FDFEF7BAFCFEF73EFCC0B2022812D01FE000290BD0002101420AD0114801216030FEF744FD0120FEF77DFC97E70121F2E76D
:4032C000FF2010BD15491648FEF738FD14481549001DFEF733FD124800210830FEF72EFD54200449C043891C0870002010BD000000F02E40E011002000002E40320300004D
:403300002F3F00003102000010520000EC160000FA12000031D000003AE300009956000080012E40F80F000070B50646581C80B245086D00002408E0304600F0A9F8105530
:40334000000A1119A41C4870A4B2AC42F4D3D80705D0D0182038D15CC47FD454C17770BD10B5FF2000F0C4F90F49FF2048700E481021801D41800121417001700A49002049
:40338000C91C4870FFF71CFF04000AD100F010F907210648FEF7D4FC044807211830FEF7CFFC204610BD0000E0110020CC112E4070B5002405465B1E0AE0284600F068F88C
:4033C000010A161971702D1D1055A41CADB2A4B29C42F2DB9C4203D1284600F059F8105570BD000070B500210A4D5B1E0AE0541864782602545C344346193480001D891C84
:4034000080B289B29942F2DB994202D1515C4019018070BD00102E40F0B50599091FCFB200217E1E0BE0541864782502545C2C43164D45192C80001D891C80B289B2B142E6
:40344000F1DBFC0712D01C78515C24020F4A0C4381180C809C785D78001D210280B2294384182180001D80B2D9780CE059781A7809021143054A84182180001DD9789B7808
:40348000090280B2194380180180F0BD00102E40014940180088704700102E4010B50B490020487000F084F8002000F047F9002000F034F907210648FEF742FC04480721C9
:4034C0001830FEF73DFC002010BD0000E3110020CC112E4010B50B46062812D006DC01280CD0032801D1FFF7D9FF10BD0A28FCD00B28FAD105480078107010BDFFF730FF32
:4035000010BD1146184600F035F910BDE6110020F8B5244DAC6A0127A007234E002816DA307806280ED1286A384328621F480069F903084381B21D481030FEF7FFFB04202D
:4035400000F0D6F8174802212830FEF7F9FBE00718D000F017FF01280FD1002000F064FF062000F0C5F81049FF20C91E48707078002802D1686B384368630A4801212830C7
:40358000FEF7DEFBE0050BD53078042802D1052000F0AEF80348FF2101312830FEF7D0FBF8BD000040F02E40E311002000002E4010B503212348FEF7C1FB0120FEF71CFB5A
:4035C00020483038406A204C80076178800F890001431C480C38FEF7B1FB6078002808D0401E022181401820FEF7DAFEC000083800E0B82081B21548FEF7A0FB134803216A
:4036000009021438FEF79AFB10481149B830FEF795FB612189010F48FEF790FB0D480321001FFEF78BFB0C490C48FEF787FB0B480B496038FEF782FB084801218838FEF79C
:403640007DFB10BD70F02E40E6110020D8102E4090890000041E2E40FF0F000058122E40209000000849087806280BD148780749002803D1486B400840004863C86A012269
:403680001043C86270470000E311002040F02E400148007870470000E311002000B50300FFF7CAF8080D050D0B070507090D012000BD032000BD042000BD022000BDFF2030
:4036C00000BD0000074A9168D26889B2064B92B2994204D105498A4201D1012100E000210170704780002E4033D000003FE3000010B50446FEF74EFA072C01D9FF2C01D169
:4037000002480470FEF74EFA10BD0000E31100200149487070470000E011002010B5064A012805D01921C9021046FEF707FB10BD1D21C902F8E7000090002E4010B50A4AB2
:40374000141D012808D009491046FEF7F7FA08492046FEF7F3FA10BD04491046891CFEF7EDFA0349491DF3E788002E4031D000003AE3000070B50C460546FEF7CBF9C0B272
:4037800002280E49287804D0FF2810D04C280CD810E0FF2809D10A4AD0680004800F032801D0087807E09069000A553803E00878207070BD4F382070087070BDE2110020C3
:4037C00000002E40F0B50122002834D0002932D00424420600D00524792342065B06D21800D0641C034600221EE00C2516466E43124D00277519AF72104F002ABB5169601A
:4038000007D0661EB24209D10D4E86197606760E05E05E06760E8027BE1B00E080269B198919521C2E81D2B2A242DED303480549006B002288611046F0BD00006C1900204F
:4038400079020000EC11002018B50020694608700A48006900280ED0132149014018047E684604704F21C900054800F059F8A04201D0012018BD002018BD0000EC110020DF
:40388000F0160020074900200C2242435218927A012A05D0401CC0B20628F5D300207047012070476C190020F8B50E000446154609D0194F19497868A04202D94018A04257
:4038C00001D38D4201D90120F8BD31462046FEF799FD00281ED02A4631462046FEF7A1FDE8B200210C224A43D21913895568EE18A6420BD90126641B1B1B9672834209DAFF
:403900001469C01A044AC0B220329676491CC9B20629E7D30020F8BD6C19002079020000034610B50020024604E09C5C2018521CC0B292B28A42F8D310BD000070B500F02D
:403940005FF8084C064A216907480D46FEF769FD05492846FFF736FFFFF776FF207070BD79020000EC110020F0160020002070470020054A002902D0012902D002E09060E9
:4039800000E0D06000207047EC11002070B5084C154608460549E26889182A46FEF741FDE0684019E06028B270BD0000F0160020EC1100203EB50A226946FFF7E7FF0446E6
:4039C00006480A2200686946FEF71CFD002802D00020C0433EBD20463EBD0000F0110020002802D0044A914201D2FF20704703494A6108610020704779020000EC110020FB
:403A0000024800218160C16070470000EC11002070B5074C15460548A26880182A46FFF743FFA0684019A06028B270BDF0160020EC11002010B503490A220968FFF7E8FFA5
:403A400010BD0000F011002010B50F4A002313600E4A13600E4B18600E4801600E49012008600E490860000290600E490C4808600D4914300860FF381538506000F0BCF8D3
:403A800000F0CAF9002010BD201200200812002034120020381200202412002014120020B41A0020181200202C120020014610B50020002910D0094B1A689C685118A1427D
:403AC00009D25868196080188A0704D08A07920F891A091D196010BD002010BD08120020F8B50024164E671E321F3D463168136806E01422624310328A58521C1BD0641CED
:403B00009C42F6D36A1C14D02C461422544322460C3288500C214843FFF7C8FF3168002808510AD031680020103408517068401C70602846F8BD2546E4E73846F8BD000068
:403B400018120020F3B50026F64381B000281BDB1E490968884217D80299002914D01B4F142204463F1D54432546396810354859401C09D0FEF70EF838682F1F4159C359C9
:403B8000994203DBFEF70EF83046FEBD214608310091465801590C20704308180C220299FEF73FFC0948761C001D0068C159B14200D100260549009A091D865008684159A5
:403BC000491C4151FDF7EEFF0020FEBD14120020002803DB07490968884202D90020C043704704491422091D09685043103008587047000014120020F0B500200D4A451EBD
:403C00000346171F50600FE014260146714314680E1DA3510C461668083433511668083435511468401C635039688842ECD30020F0BD000018120020F3B50026F64381B0C2
:403C4000002841DB2349096888423DD8029900293AD0204F142204463F1D54432546396810354859401C2FD0FDF794FF3868415900292BD0211D009146580C2100597143BB
:403C80000F46C1190C220298FEF7CBFB11480021001D0068761C00590C34C0190160416081600C48001D00680159B14200D100260849009A091D865008684159491E415165
:403CC000FDF770FF0020FEBD3046FEBDFDF76AFFFAE7000014120020FEB504460D4600201E49089E0860471E009001900290002C11D0486885420ED2002A0CD0002E0AD062
:403D0000642E08D808460C3001681C2068430C18207A002801D03846FEBD0120226020721846FFF7DDFE6060401C13D06681A6810A4827610C3067610179A94200D205714B
:403D40000021684601810A462846029B00F040F82846FEBD00202072DDE700002012002038B50124009400F039F838BDFEB50027164EFF433D4600240EE01C203168604335
:403D80000818017A002906D04068FFF721FF002801D0254603E0641C3079A042EDDA681C12D01C2130684D434419FDF7F3FE69466068FFF741FF0546FDF7F4FE002DD9D1D0
:403DC000216868468847D5E7FEBD00002C12002038B50024009400F001F838BD1FB500220C49541E0A60002811DB496888420ED808491C220C31096850430818406801A987
:403E0000FFF7A0FE401C02D0002004B010BD2046FBE7000020120020F0B50021114A4D1E174611710C3F0B46BD6016E008461C2460431668041D355114680646235014685E
:403E40000836A3551468361DA353044616680A34335318301468491C255078688142E5D30020F0BD2C12002038B500210091002811DB0F49097888420DDA0D4D04010C35BA
:403E800029680859002807D0201D0818694600F06FF9002801D0002038BDFDF77BFE28680F34015D491E0155FDF77CFE009838BD3C120020F7B582B0002502986E1E06604C
:403EC0002E48D21C024017462D4A2C4610460C380178106805E02301C358002B0FD0641CE4B28C42F7D3711C28D03401211D40180191039900F02AF900281FD101E0264679
:403F0000F1E71F48016820460C300F521C480399026820460E30115419480399026820460F3011540398784300F0A0F8144900280968085102D00024009011E001251AE02E
:403F40000F48016801980818009900F02CF9002801D0012502E00098C0190090641CE4B203988442ECD3002D05D10298066004480179491C0171284605B0F0BDFCFF000077
:403F800048120020F8B50D4600216A468C461180002839DB23490978884235DA214B04010C3319680A59002A2ED020460C300B5A801C0E5C184670438018954224D385424A
:403FC00022D2002006E007465F43BF18AF4206D0401CC0B2B042F6D36046002814D0114E271DC8190C366A46294600F006F900280AD168460088012808D030682946C01911
:4040000000F0D1F8002803D00120F8BD0020F8BDFDF7C0FD30680F34015D491C0155FDF7C1FDF3E73C120020F8B50F46002400F031F8002817D10C4900220B460C334A6082
:404040000EE021011D680E466A501D680C36AA53B61C1D680F31AA551D68641C6A54E4B2BC42EED31A71F8BD3C12002000280BD0C01C074A81085068890053884118994274
:4040800003D893685160181870470020704700003C120020F8B5064600200F4D009029700C0121466846FEF765FC00280CD129460C3100980860301B001F84B221466846D1
:4040C000FEF758FC002801D0FF20F8BD6C800098A8600020F8BD00003C120020F8B5002827DB19490978884223DA174C05010C342168485900281CD028460C30085A0090D7
:4041000028460E300E5C401C0E5420682F1DC01900F064F800280CD12068002445590EE0094829460C300068C01900F03CF8002801D00120F8BD00982D18641CE4B2B4425C
:40414000EED30020F8BD00003C12002030B50D4604000BD0A800FFF789FF6060002805D000202570C0436080002030BD012030BD70B50D46040005D0002D03D00220205E9D
:40418000002801DA012070BDFDF704FD0221615E60688900405828606088401E6080FDF701FD002070BD70B50D46040007D0002D05D002212078615E401E814201DB012014
:4041C00070BDFDF7E7FC6088401C00B26080616880000D50FDF7E6FC002070BD10B5040009D0227800216068FEF724F90020C0436080002010BD012010BDF0B500231D46DC
:40420000002802D00224045F0AE00120F0BD46689F00F6598E4201D1012503E05B1CDBB29C42F4DA15700020F0BD00000148007870470000501200207CB505460024FEF76B
:404240002DF9A8796946087000A8062229460130FEF7E7F80021684605F018F80C2806D0072806D01F2806D0122806D006E0022404E0042402E0272400E0012420467CBD93
:4042800010B500F075F9FFF703FAFFF707FA10BD70B504460025FEF701F9002C06D0A079012803D8214602F01BFD00E00125284670BD01460120002902D0502008800020F5
:4042C0007047000001460120002905D0034854220078504308800020704700005212002010B502460D49FE204870032410460EF0D9F8002810D10EF07DF800280CD105F0F7
:40430000E1FE002808D100F04FFB002804D105F08DFA002800D10024204610BD5012002070B50025044600280ED0A07901280BD8FEF7B4F8A0790028204602D003F01CF838
:4043400003E002F0F1FF00E00125284670BD0000014610B50120002904D006220248FEF760F8002010BD00005C12002001460120002903D0087802490870002070470000F5
:40438000521200200148007970470000EC1B002038B504460120002C20D0617801291DD800290BD0FF25E535FEF778F80C4828180088C0B22070072803D00EE0FF25CD3592
:4043C000F2E70020694608706846FFF77BF969460878012801D108202070002038BD000000102E40014A0021926810475012002008B500226B461A7026280CD0094A3428DE
:4044000052680BD0352805D1900703D50021352005F034FF08BD19462620F9E7D007F9D03420F5E7501200200149087170470000EC1B0020F8B504460120002C26D0617857
:40444000012902D92278092A20D8002905D0FF25E5352078092803D004E0FF25CD35F8E708202070FEF71AF82078114F114E08280DD00020FFF762F970780128207810D094
:404480000D4969180880FE2070700020F8BD0120FFF754F90720B8810549203188800120F2E7B8810248217820308180EBE70000C0112E405012002000102E4070B50E466E
:4044C000050001D0002400E00C4C002C11D0E28A500609D5D107C90F022003F027F8E08A40218843E08204E0D107C90F012003F01DF83146284602F001FD70BD4C1B0020BB
:40450000F8B50546002004460D4E009013E022466946284600F0B2FE0098002801D00DF0A3FFA878214602F02DFBA878214602F01BFB641CE4B2308AA042E8D8F8BD00008F
:40454000141C0020064A02235188891C89B25180814201D8102900D953805088704700006212002001484078704700006212002038B51E4CFFF78CF8042813D0052811D00E
:40458000062812D003282AD007280AD100206946087002460120FEF79DFFFFF779F80128FBD138BD00F0E1FB38BD02F057FB00F0DCFB02F0B7FB8007800F0228F4D10C4861
:4045C00041880029F0D05B21095D0029ECD101210170A07D0140022002F0A8FF38BD02F041FB0120FFF784F838BD00004C1B002066120020F8B50646002402F0F5FF05467D
:40460000304603F00BF803460A480021068A0DE001228A401046174628401F40002803D0002F01D1224394B2491CC9B28E42EFD82046F8BD141C00201CB50020694648708D
:404640006846FFF7A5FE01AA69460A20FEF742FF6946042008561CBD70B50D4601F0BAF904000BD02079002808D0FDF717FFE178A0782A4602F0D8FC002070BD022070BD4E
:404680000148007870470000241B00204030C07E002800D00120704700B500F001F800BD902148430749084A40186030417F491CC9B24177D289914201D300214177C8B2D7
:4046C000704700002C1B0020141C002013B501F081F904000BD001F044FE002807D0214601AA0A310620FEF7F5FE00201CBD02201CBD000010B50C4601F06CF900280AD04A
:4047000001F02FFE002806D0224604490A20FEF7E1FE002010BD022010BD00000D1B0020F3B581B0074601460026029802F054FF0446002F01D0002500E0154D002D21D045
:40474000284601F07DF9032C04D13946029802F09FFF06463846029902F006FA032C06D0002C10D00121384601F01AFB03E03146384603F029F9284602F0FEF802212846D5
:4047800002F014F9FEBD3846029902F0EDF9FEBD4C1B002010B5044600F0D0FA002804D104F0DAF8002801D00C2010BD2078611C02F036FDFF2801D01F2010BD02F07CFDE5
:4047C000FF280AD02178621C02F064F9044821780068026B601C904710BD072010BD00008412002010B504F0B7F8002801D00C2010BD02F0F7FC03480068C06A80470020CB
:4048000010BD00008412002070B50D46044610210DF06AFD1021601806460DF065FD334610221946204604F0C5F8102130460DF05BFD02202870204604F01CFF70BD0000D1
:40484000F8B504464078217802028006870FE0781143A67809050002090D0643084601F0B9F800210546F2B2002812D0002C10D0022F0ED0032F0CD0002A0AD00279092AB2
:4048800007D0002A05D0134A5A23527E1B5C9A4207D82889002104F0E3FD20460DF0E4FDFF21002914D10C48224600682946436930469847C0B2FF280AD128464030817E49
:4048C000F2B2491C8176FF232146284600F009F9F8BD0000E41A0020A01200200020704710B5044604F038F8002801D00C2010BD2078611C02F094FCFF2808D002F0D8FBD3
:40490000044821780068426B601C904710BD1F2010BD00008412002010B500F0A9F904F085FF002010BD000010B504460F4801F041FD012817D00D4805222146AC30FDF787
:4049400070FD0A490522AC310846BC38FDF769FD00F048FD054880222038C17B1143C17300F0BCF910BD3A2010BD00004C1B002010B5044600786178E2780843A178114305
:404980000843217908436179084305D003F0D6FF002803D00C2010BD122010BD204602F0EBFC002010BD000010B5FDF7B3F802F03DFE044804F05EF802F084FB012000F03D
:4049C00003F810BDF41A0020F1B586B003A8009005A8019028489F22817A114081726846FDF776FD002845D169460989C90705D0224806990068C268684690476946098962
:404A0000890706D5002835D11D480068816A0698884700282ED11B4E0025757075737571F575357675767575B570F570B5713746F5730120CC3738731F20F880FF213046B5
:404A40007972A0300176457603F0D4FC01F06AFC00242046069901F017FC002803D1641C2406240EF5D0FD720649BD72B573C0310D600D7107B0F0BDE41A0020A012002020
:404A8000841200202C1B002070B505460E46084602F0AAFD0446304602F0C0FD0121A9400A46224001400A4301D0012070BD002070BD10B50446084602F0B0FD0121A14009
:404AC000014201D0012010BD002010BD10B5FEF7DFFD032804D102F0C5F80120FEF708FE10BDFEB51C4616460F46054601F044FFA878FFF7D1FD024601903346394600940B
:404B0000284600F00DF8002808D1A8780199FFF7D5FCFF2C02D138460DF0A6FCFEBD0000FFB585B005460E980C46FF2810D02B49C00009680A5840180179C07952788142E8
:404B400001D9012601E09006860F6846038108E06078A1788006860FE0780002014368460181284601F012FC070007D021462846079A00F023FB384609B0F0BD304600F01B
:404B800015FC04AE0346039002AA29460096204600F00FFA3C20405D002818D0284601F0F5FB012813D0684600890096C0B20190A878231DFF22079902F054F9684600897B
:404BC000039BC2B2A878079902F098FCD3E7684600890021C0B20091E9E700009C120020F8B5002600253046FFF704FD07001DD090201149704340186030447F12E0601C7B
:404C0000FDF7E4FACCB23846E040C007C00F07D02146304601F0A0FF21463046FFF780FD6D1CEDB20548018AA942E8D8761C3606360ED7D0F8BD00002C1B0020141C00208C
:404C400070B50024094D03E0002C01D0002000E028464121095C012901D100F068FA641C2406240EF0D000F039F870BD4C1B002010B502F027FA0020FFF7A6FE0DF08AFCAC
:404C8000002010BDF8B5002403F050FB012800D10224114F00203E46203601230425082203E0002801D0002100E031460979002907D001290BD002290BD0114681402143AA
:404CC000CCB2401C0006000EEBD07C70F8BD1C43F7E72C43F5E700002C1B002070B5144E0024F07BC00921D03546203503E0002C01D0002000E0284601F03EFB012814D056
:404D0000641C2406240EF2D0F07B4006400EF073002403E0002C01D0002000E0284600F006FA641C2406240EF4D0002070BD00002C1B002010B5FFF7A5FF10BD10B5044682
:404D400004F051FF002802D1601C00F001F810BD1CB500240094062269460194FDF752FB002800D1122420461CBD10B5FDF7A1F90446FEF78DFC012809D0FEF789FC02285D
:404D800005D0FCF7A1FE2046FDF797F9EEE72046FDF793F910BD10B50B4681791943817103D08078114602F061FB10BD10B582798A43827102D1807802F06CFB10BD00000E
:404DC0000346084800B5834209D8184600F002FE002804D00089984201D1012000BD002000BD0000FF0E0000074A9179491C8906890E917138220A4092014907090E11439E
:404E000008430249084070472C1B0020FF0E0000C006C00E70470000F8B507460E4600240D4803E0002C01D0002500E005462979002905D0641C2406240EF3D00020F8BD13
:404E40000021204601F020FA2E712046FFF7CCFF28813C700120F8BD4C1B0020F7B53D20405C88B015460C46002802D02878042802D200200BB0F0BD6946087200262046C7
:404E8000FFF704FC012800D00126204603A938300191009023460327A17E34333246206A03F008FE02A8089900900B46019120463A4603A9243003F05DFD02466846007ACB
:404EC0002870204601F0CCF91046D3E7FFB587B00C4605461078694608723D20005D1746002826D000262046FFF7D0FB012800D00126204603A93830019100902346A17EEF
:404F000034333246206A03F0D5FD02A80090291D019120462B1D03A924300A9A03F02AFD02006846007A388002D1204601F098F910460BB0F0BDF0B505463C20405C89B049
:404F400016460C4600280CD0307869460873002806D000272046FFF799FB012803D003E01F2009B0F0BD012703200890204604A93830019100902346E17E34333A46E0699C
:404F800003F098FD6846007B03A928180290009120462B46019504A92430089A03F01EFD02466846007B3070204601F063F91046D7E7FFB505463C20405C89B016460C465D
:404FC000002810D0084601F0E1F901280BD0308869468883002809D000272046FFF756FB012805D005E000200DB0F0BD0220FBE70127204603A93830019100902346E17E48
:4050000034333A46E06903F055FD291D2B1D07A8129A6D4607C5204603A924300C9A03F0DDFC02466846808B3080204601F022F91046D9E710B518490446484028D0002171
:4050400001231A468A40904221D0491C2029F8D300212046C840C243520618D0400616D0491C1929F5D3A0B2210C020AC3B2884201D193420BD01F21204600F09CF9182880
:4050800005D8A00E062100F096F9022801D2002010BD012010BD0000D6BE898E002801D0002000E003484030C07F012800D00020704700004C1B00200146002049070ED558
:4050C0000021084B03E0002901D0002200E01A461279022A04D0491C0906090EF3D07047012070474C1B00200146002049070ED50021084B03E0002901D0002200E01A46C1
:405100001279022A04D0491C0906090EF3D07047012070474C1B002010B5044680346068002803D00DF0B4F90020606010BD38B50546002000902846FFF7A8FA01281FD19C
:40514000284601F00EF900281AD028792C46C01E40340300FDF770FB07050511110511141100284601F018F9012806D068460DF021F9002805D0012008E060780028FAD07E
:4051800038BD2846009902F065FD0220607038BD40308170704770B50546403528780C46052904D0002C05D1801E022802D8022002F0E0FE2C7070BD017170479200101885
:4051C000C166704710B5002801D0002000E00348002802D0008904F0B7F910BD4C1B002010B5002801D0002000E00448002804D00179072901D100F097F810BD4C1B0020F8
:4052000070B5044605464034A078002805D12078012802D1284601F01FFA6078012802D12846FFF784FF002070BD000070B50546008A00281ED01049F122897A1140C90677
:4052400018D5294640314A8A098A521C4A4392B2D10800D10121540801E0621A94B2A042FBD9FEF7E3FF012804D1298AA878224601F080FE70BD0000E41A002010B5002388
:40528000054C0B60248A944204D992001018C26E0A60C36610BD0000141C0020FEB506460020009001908020855968460DF082F8002801D00720FEBD20213046009FFFF72D
:4052C00075FD34464034A08AE080608AA080208A2081304602F0B4FEA88C218A884207D1288A618A884203D1688AA18A884203D0F07920210843F071688AA082288A6082E1
:40530000A88C2082E98CE182FFF71CF9E081208AFFF728F960733946304602F0C3FC0120A0700198FEBD000038B5044600200090A079002814D14020015D052901D00E2993
:405340000ED168460DF036F8002809D12046009902F08AFD03481021C28A2046FFF71BFD38BD0000E41A002010B50446807802F097FE204601F08EF9002010BD10B50B463D
:4053800004460146184602F0B7F9002802D020460DF074F810BD13B5044601AA11460620FEF798F86846818861811CBD002800D102207047704770B500231A46491E0CE011
:4053C0000446D440E507ED0F541C0646E640F407E40FA54200D05B1C521C8A42F0D3D8B270BD000030B50021124C0A46A05C002308E0C50701D0491CC9B201290AD8400829
:405400005B1CDBB20028F4D1012903D8521CD2B2052AEBD302290BD207488118C87B0122082B03D29A400243D0B200E01043C87330BD0000F81B00202C1B00207FB5044625
:405440008034616805460E46183108226846FCF7E8FF31462031082202A8FCF7E2FF102168460CF041FF6068102108300CF03CFF60682B46083024331022694603F09AFAF2
:405480007FBD10B504460821FFF790FC10212046FFF78CFC2079052822D0062820D008281DD12189002003F0C1FF072020712046FFF7ECF8012819D00E212046FFF76BFE72
:4054C000002158200155204601F06AF92046FFF723FE2046FFF7AAFE2046FFF791FE10BD20890122002103F085FFDEE70521E4E7FFB581B01F4604460821FFF757FC102179
:405500002046FFF753FC2079082803D0092804D0042503E00425012601E009250026204600F016FF00212046FFF735FE25712046FFF7F2FD0398002E02D0012808D00BE00B
:4055400001280AD120890022029903F053FF04E02189029803F06AFF01272046002140300176012F07D0204601F01AF92046FFF747FE05B0F0BD02990173204602F0B7FCD4
:40558000054605480121C28A2046FFF704FC002DEFD109202071ECE7E41A002070B50C460546FFF773F8012809D108212846FFF7FDFB0023012221462846FFF799FF70BD70
:4055C00010B5044600F0C4FE2046FFF7A5FD00212046FFF7E0FD10BD70B505461A24FFF755F8012809D108212846FFF7DFFB0023012221462846FFF77BFF70BD38B505467A
:405600000021684600910CF0D5FE002801D00D2038BD2846009C00F0EBFE2146284602F0CDFB06480821C28A2846FFF7B4FB06212846FFF7B0FD002038BD0000E41A00206D
:40564000F8B50446002000900E4668460CF0B2FE002801D00D20F8BD204604213430009D00F0B3F9842000590821183000F0ADF9012E02D1204600F0BBFE2946204602F0F6
:4056800057FB06480821C28A2046FFF784FB02212046FFF780FD0020F8BD0000E41A002010B50446FFF7CAFE03212046FFF773FD204601F061F910BD10B50021FFF7C0FF35
:4056C00010BD000038B504460021684600910CF071FE002811D12046009A00F039FE1146204602F076FB05480821C28A2046FFF752FB07212046FFF74EFD38BDE41A00203D
:4057000038B504460021684600910CF053FE002810D12046009902F0DFFB07480821C28A2046FFF738FB04212046FFF734FD204601F022F938BD0000E41A002010B5FFF76C
:40574000A0FE10BD00787047F8B5002569460D70002801D0002400E01E4C002C18D0204600F0FFFD002813D0207903280BD005280CD026464036B18AA07801F06FFEB07856
:40578000012806D01CE0042020711CE006202071F8BD0021204601F0DFFF274680373868002802D00CF074FE3D600020B0702046FFF726FD2079072802D12046FFF736FDC9
:4057C00020790428E4D1207A694608703420FEF70FFEF8BD4C1B002010B54C22115400F052F810BD10B50446FF21FFF7DFFA09202071A07801F058FE10BD000038B5FF214C
:405800006A461180002801D0002400E00B4C002C12D011460620FDF75DFE684601882046FFF7B9FD204600F0B7FD002804D104480068C1692046884738BD00004C1B00201A
:40584000A012002010B504468079002809D022214C200155FF212046FFF7A8FA204600F012F810BD10B5037902464032002B03D01173092B02D003E0002100E022211173CF
:4058800000F001F810BDFEB50446008900270090278120792646403600281AD0012818D0022816D0002002F065FB09E002AA01A9204601F00FFF002807D101980CF0DEFD19
:4058C000204601F02FFF0028F0D02046FEF718FEB776254680352868002802D00CF0D8FD2F606868002802D00CF0D2FD6F60317B002916D0009800F061F8A078002101F069
:4059000085F9A07801F066FAA07800F037FFFF212046FFF74BFA0B20FFF70CFA00F0CAFDFEBD1F213173E5E7F8B517460E46054603F080F804003CD020460C3001F0F8F990
:405940002046062200211830FCF774FD2046062200211230FCF76EFD1648224600683946436A28469847074626702846FEF78EFE012148406070002D10D02889608028467E
:405980004030C1782171002E0FD169796171018AE180418A2181808A608106E00648008BC005C00F2071002060803946204603F0C0FCF8BD8412002000102E400A4610B530
:4059C0000146002003F0D8FD10BD10B50CF068FA10BD000000B50146FFF71AFA002801D0002000E00348002802D002898A4200D0002000BD4C1B002038B504468034606839
:405A0000002806D168460CF0E5FC002801D100986060606838BD000010B5014600F0B6FC0128887802D0FEF73BFE10BD90214843024940186030007F10BD00002C1B002007
:405A400070B5054604464035A87F012811D1A1789020084A484380186030067F3046FFF713F8002805D10220A877A078314601F04FFA70BD2C1B002010B50C4CA07A002800
:405A800013D0FFF7ADF80A48027F417F408B00F025FD012809D10020A07201F00DF905498989090B01D000F023FB10BDF81B00202C1B0020A0102E4070477047490510B573
:405AC000490F0B00FCF7B8FE060704080C0C0F073E21FFF781FE10BD0821FFF7C3FE10BDFFF7D1FE10BDFFF7ADFE10BDF8B507460025002D01D0002600E0204E01F09CF8EF
:405B00003046403044890021418101F09FF8304600F027FC01282BD1A00702D52846FFF713FEE00602D52846FFF768FEA00601D5FFF756F8600601D500F04EFC200602D5EC
:405B4000284600F01DF8600702D5284600F036FB380402D52846FFF743FB780402D52846FFF730FBE00703D021463046FFF7A6FF6D1C2D062D0EBCD0F8BD00004C1B00205D
:405B8000F8B5002801D0002400E0144C002C23D025464035A87801281ED1FF278820493700593E46002805D00D49897A890601D5878AC68A2046FEF769FD01280CD1009600
:405BC000E88A2A8A3B46014602F018FAE882A2780146104601F088FBF8BD00004C1B0020E41A00200149096809680847A012002070B505460088FFF7EDFE04002AD000F0B0
:405C0000B0FB002826D02079092823D0204600F0D1FB012820D02046FEF738FD0646E07920210843E071204601F0AEFD002815D0294600F093FE4220005D002810D0232583
:405C4000E079DF210840E0712946204601F0F1FD284670BD022070BD3A2070BD072070BD002E05D02046FFF719FB0500E8D1EFE70C2070BD70B50E460C2500F0E7FD0400D7
:405C800012D0002522892946094803F0A5F8FF2202212046FFF748FEA07800F09BFF2046FFF7F1FD022000E000203070284670BD0E200000FEB5044600F0C8FD002801D0DA
:405CC0000C20FEBD022101A8FFF7A6F8012859D168460079304F002801D0002601E03E462036002E4ED000213046FFF754FA3546002040356870A8700620FFF71BF8208A8A
:405D00006882228AE189A08902F0C6F928820246608AFF23A88249330093E18AA08A02F06DF9E882288AFEF71DFC6873288AFEF709FCE881184806228778A11DB030FCF733
:405D400070FB207901281FD06079E870A01D01F0FFFAFB20074010488770217EC278012917D0FB210A40C2700C4821460068826830469047B178204601F038F93046FFF785
:405D8000F3FAFEBD0920FEBD0020E87004200743E1E704210A43E6E72C1B00208412002070B50D460026194A0146002801D0002401E014462034002C26D0204600F0E6FA01
:405DC00001280AD19020484380186030007FFEF75BFE002801D102F007F80D48006881692046884700280CD020464030817EA94202D3491B817600E086762089294603F0CD
:405E00002FFB204600F0B8FD70BD00002C1B0020A012002070B503460088FFF7DBFD040013D000F09EFA00280FD02079092819D02546997840352973204602F058F8064659
:405E4000A878012803D0AA8A02E0022070BDEA880A20424301212046FEF79DFF002E01D109202071002070BD0EB5002217216B460292198100905A810120029B00990CF0A6
:405E8000A7FB0EBDF8B518480024807A002822D1164E0025B089000B22E0204600F070FF1249A039401807882A462146384600F015FB012810D00E480122478305770A4910
:405EC00044778A72002D01D0002000E02030002801D000F051FDF8BDB089000B641CE4B20028DAD1F8BD0000F81B0020A0102E402C1B002010B50446C0060ED500200B4AEA
:405F000003E0002801D0002100E011460979022909D0401C0006000EF3D00548006881692046884710BD00F005F8F6E74C1B00208412002070B51A4D002801D0002401E042
:405F40002C4620342179022904D0002901D001F0ABFA70BD01225B210A5500F025FF032020710820FEF7E6FE00212046FFF713F9204643300121064600F0EAFE09480068DD
:405F8000016A30468847024600212046FFF7CCFCA078FFF727FEA87B401CA87370BD00002C1B00208412002010B50C46002121700088FFF70FFD03000BD000F0D2F9002879
:405FC00007D00948F121807A0840C00603D4112010BD022010BD022020701A8A1889002103F0E6FA002010BDE41A002070B50088FFF7F0FC040008D000F0B3F9002804D0A2
:40600000E079C10903D0002070BD022070BDC1068025002908DA2843E07108480221C28A2046FEF7B8FEEEE7204600F01BFA0028ECD1E1792943E17170BD0000E41A002043
:40604000F8B50F46002100910088FFF7C3FC040012D000F086F900280ED0E079410641D4617E02264A07002A08DB8907402500291ADA2843E07135E00220F8BD02F0DAFC38
:406080000021017021894180A1898180217E4170E189C1803E7005460178134802F05CFF284603F029FA1DE0204600F075F9012806D068460CF07EF9002803D00720F8BD67
:4060C0002A20F8BDE07900992843E071204601F037FF607E0421304360760448C28A2046FEF759FE0020F8BD1D040000E41A00203EB500220F236C46029223810091019069
:40610000628169460EC900200CF062FA3EBD0000F8B50446002000902088FFF75BFC05001AD0FEF7B3FA002812D02348807AC00710D0284600F015F900280DD02879032803
:406140000CD004280AD0072808D009282AD103E00C20F8BD1120F8BD0220F8BD2F464037387801281ED02846FFF746FC06001BD00822211DFCF755F93046A1782030017244
:4061800061881022090A417221460C311838FCF748F9B878002809D001212846FEF7FBFF0098F8BD0D20F8BD0720F8BD284600F053FA0090F8BD0000E41A002010B5002820
:4061C00001D0002400E00B4C002C11D0214640314878022801D100204870A07DC107C90F002001F0A3F92046FFF70AF8FEF728FD10BD00004C1B002070B503460D4600887B
:40620000FFF7E8FB04000BD000F0ABF8002807D01248F121807A0840C00603D4112070BD022070BD20464030418A008A491C41430804C10C5888884201D2122070BD2082B1
:406240002079072802D12046FEF7F0FF022028702089002103F0D4F9002070BDE41A0020016A491C016204D1817E491C4906490E81767047C169491CC16104D1C17E491CA0
:406280004906490EC1767047F0B5064687B003A8009005A800270D460190002E01D0002400E01C4C002C05D06846FCF711F9002803D00BE0022007B0F0BD68460089C007AE
:4062C00004D1902200212046FCF7B4F8124829460068826820469047050018D1A6706776277100212046FEF756FF204600F030F8204601F013FA094820825E200755084850
:40630000F121807A084000D001202075E782E8B2D1E700004C1B0020A0120020B80B0000E41A002010B50020074B084AFF2119541418401CC0B221740428F8D31F21195445
:406340001018017410BD0000F81B00202C1B0020002101628176C161C17620300177417770470079002805D0012803D0022801D0012070470020704740304078012803D0CE
:40638000022801D000207047012070474030807F002800D00120704740300078002807D0012805D0052803D00E2801D00120704700207047074A0146927B0020002A07D093
:4063C00040314A78022A02D08978012900D10120704700002C1B002010B500F06DFC03498989090B01D0FFF783FE10BDA0102E4070B5054604464035A87F002825D1FF20DB
:406400006075A0789021154A484380186030417F9023491CC9B24177A0785843104B8018DB896030994201D300214177A0789021484380186030467F0677A1783046FEF73D
:4064400023FB002802D00120A87770BD0220A877A078314600F05CFD70BD00002C1B0020141C002038B5002105460091FFF794FF012806D068460BF09DFF002803D00720C1
:4064800038BD2A2038BD2846009CFEF7FFF800280BD02146284601F073FC05480221C28A2846FEF778FC002038BD112038BD0000E41A002070B50024074D03E0002C01D011
:4064C000002000E02846FEF79BFE641C2406240EF4D0002070BD00004C1B0020F0B515468207920F85B0000A02926A469080002D01D0002400E0564C002C28D0084600F069
:406500003FFC07466846808800280BD00298012843D0022841D003280BD03D20005D012879D08FE04B48381801882046FEF733FF88E00020029002A80BF01CFF002807D096
:406540003D20005D012802D12046FFF789FE7CE06846029E8388324600213846FCF7E4FE3C48381801882046FEF715FF284600F03BFB01AA21463046FEF770FC002806D09A
:4065800030460BF067FF3D204C21085531E0F5773146204601F096F957E0002000902089039068460BF0D6FE002802D0002005B0F0BD6846009E8388321D00213846FCF7AF
:4065C000B3FE2448381801882046FEF7E4FE284600F00AFB2046FFF7C4FE002805D025464035287E002810D107E030460BF028FF2BE02046FFF7F6F827E001AA21463046F8
:40660000029BFEF763FC002806D030460BF018FF3D202873EDE712E00298FEF7CBFE0399317003990001090A0143717068468088B070000AF0703046FFF716FC05E02046B2
:40664000FFF70EFE284600F0CFFA0120AFE700004C1B002000102E4070B501790546032904D0042904D0072908D109E0052400E006240121FEF7E4FF002805D00D2070BDD4
:406680000824FEF7BBFFF7E7284600F075F92C71002070BDFEB5064602F0CCF9044602F0C2F9074602F0B5F9054602F0C7F9029002F0D6F901902570280A6070280CA07015
:4066C000280E3546E0704035687B20716771380AA071380CE071A87B2072E8892549000A6072287CA072288A0522000AE072A87C2073688A000A6073287DA073A88A000A1B
:40670000E073204610300091FBF78BFE0027F770B078009900F0DCFE777101984101029867750143A175080AE07503E0298A49004018308000F0CEFA3188042200F060FB78
:4067400001283088F2D00C4F38801821204600F035FCA88A298AC000FBF738FD3881B07800F022FAE98AB07800F0BEFD00F028FAFEBD00003C1B002000122E4010B5074ACA
:40678000917B002901D0491E91730021FFF77CFD002801D0002010BD012010BD2C1B0020F8B5074606464037B87F00282DD0B078902100904843234945186035287F0099F2
:4067C000FEF777F901281ED0287F401CC4B21E48C089A04200D800240020B877FF276F772F77A87702460146009800F007FD717DFF2903D0304600F052FF777501F0F4FA71
:406800000025114F19E00320B877F8BD00200090224669463046FEF731FD0099002904D0FF231A463046FEF75CF9641CF889E4B2A04200D800246D1CEDB2F889A842E5D8D6
:40684000F8BD00002C1B0020141C002000B5022000F002F800BD000010B502460021084B03E0002901D0002000E018460479944204D0491C0906090EF3D0002010BD000010
:406880004C1B0020F7B50646087982B00C46092807D0A078F0770846FFF778FD012806D010E030460BF0EAFD022005B0F0BDA1789020294A484380186030007FFEF7E4F80A
:4068C000012810D0A078FEF7E9FB01280BD037780121304601F0A8F925462035062F38D00B2F0FD107E06846027C21463046FEF745FD0D20D9E72046FDF7C8FE012801D17B
:40690000002028772046FFF787F8054604AA21463046FEF710FB01205F2108556946097C002001910090A07833463A46294600F099FA69460A7CA0780323294600F0DEFDC3
:40694000A0782946FDF7BAFD30460BF097FD0020ABE70120D5E700002C1B00208A8802804A884280CA8882800A89C2808A890281498941817047000010B502464032937F27
:406980000021002B03D1927E002A00D00121064A927A002A00D000210279092A00D10121807800F0E3FD10BDF81B002070470000094B022809D0042809D008280AD106483F
:4069C000A03002820448A83003E0382000E05020C01801807047000000102E40014908817047000000102E4010B50446FF20F130022C02D0042C05D102E0FF20D93001E0BE
:406A0000FF20DD30002200F0D3FD044A108A044980B2A0430880108210BD000000102E406A120020034B198A034A89B2814311801982704700102E406A12002010B50446B4
:406A4000022804D0042C05D0082C07D10EE0FF20D93001E0FF20DD3000F0A2FD0548018A054A89B221431180018210BDFF20F130F2E7000000102E406A120020034B198A8A
:406A8000034A89B2014311801982704700102E406A120020F8B505460120A84086B214460F46012231467C2000F082FD3A463146782000F07DFD6078267800020643E0786E
:406AC000A2780002024360792379000203430C2045430D2080010549281844182680001D44182280001D40180380F8BD00102E40401880B270470000CB065B0E034348092E
:406B000001021943D00108430121C902084301490881704780142E404278037812021343084A1382C37880781B021843908248780B78000203431383C8788978000201432B
:406B40009183704700142E40024A1080000C90801181704700142E40024A10820148803081817047A0102E4010B5054A1082084600F042FD024A0021A03A8018018010BD07
:406B8000A0102E4010B50B46044600F005F819462046FFF7E1FF10BD024A10820148803001817047A0102E4010B504490882FF20012220211D3000F0FBFC10BDA0102E4096
:406BC00000B50349442008800420FFF757FF00BD00102E400349088202494520A039088070470000A0102E40000202494D3008807047000000102E40034A108202488030E1
:406C00008088401880B27047A0102E4010B5084B074C0202A03B0029208202D075321A8010BD04490020088088807632F7E70000A0102E40201A2E4000B503490888488056
:406C4000FFF7F0FE00BD00006A12002000B502484088FFF713FF00BD6A12002010B5FCF701FD10BD014952200880704700102E40884201D8081A03E00022D243101A401852
:406C800080B2704710B50B4602460021F820FCF74BFB10BD0748808806492039098B884201D8081A03E00022D243101A401880B27047000020112E400148008AC0B27047D6
:406CC000A0102E40024908820148803080887047A0102E400148008970470000C0102E4000280FD00D4A108B0870000A4870908B8870000AC8700948203000880871000AD0
:406D000048717047064A10880870000A487090888870000AC8701089F0E7000040102E40C0112E400148008A70470000001A2E40064B1A8999891B8A0270120A4270817004
:406D4000090AC1700371190A4171704760102E40012904D00549098BC90B017070470349403109898907C90FF7E7000000102E40024800884005C00F70470000001F2E40D8
:406D80000148408970470000141C0020044A10820448028980894843101880B270470000A0102E40141C002000B5084908829021074B4143C918FF2260314A770A770022E2
:406DC0008A77114600F01AFA00BD0000A0102E402C1B002090225043074A10B58018FF21603041770177002181770448418EFF201D3000F0D5FB10BD2C1B0020E41A002070
:406E000010B50023884201D8081A03E00024E443201A4018044980B2884201D8824200D90123184610BD0000FF7F000070B55478157824022543D4788823260294783443AB
:406E40005679127936023243002900D09823044908820348A038181805808480028170BDA0102E40FFB581B014460D4607460A9E0B9BFFF78BFF002E0AD0009333460021F4
:406E8000049AFCF7C9FA05484019C45505B0F0BD0021049AFCF7A6FAF5E700006E12002070B502460448054D808808242C800B460021FCF797FA70BD141C0020A0142E400F
:406EC00010B5212402466401044953200880102300212046FCF786FA10BD000000102E40417802780902044B0A431A83C1788078090208439883704760142E40034A10828A
:406F0000802001430148803001817047A0102E40054A1082044A6032908B0009000108439115084390837047A0102E4030B500210F4B0A46012809D0032802D005280AD15C
:406F400007E04021198102210A2204E004210C2201E004210D221882054C20342088C0B205460D42FAD022800021198230BD000080142E4010B504460748048207480180B6
:406F80008280032189030820FFF758FD200202497530A039088010BDA0102E40201A2E40054A1082044A60321183000202494B30A039088070470000A0102E40024610B546
:406FC0000B460F2000218001FCF70CFA10BD0000054A491E1082044A60321183000202494C30A03908807047A0102E40017E012901D9012101764279C9B253000B43017981
:40700000CA001A4310210A4303490A8102880A80408888807047000040102E400148008B70470000E0102E408823002900D09823084908820748A038191808881070000AE6
:40704000507088889070000AD07008891071000A50717047A0102E4010B51446024606480B46C0880021FCF7A3F9012C02D103495420088010BD0000141C002000102E4063
:40708000064A11880170090A417091888170090AC1700349542008807047000080142E4000102E400148008B70470000E0102E400121814010B589B200227C2000F078FAF9
:4070C00010BD0000FEB53F210220FFF78DFC1F210420FFF789FCFF210820FFF785FC3020FFF7A0FC3748802101803748374D00784007400F022860D001285DD10020288064
:40710000002211460320FCF7E5F9314E3148F18D0183318E81832F4F002420372948A0300482308F38822046FFF754FE641C2406240EF3D0B08F38832548103000F0F4F81C
:40714000716930690191009069464879C021084369464871684600F00FF900F043F81C48184C40304188A03421838188A183C1881448C0308180708E3880174800260682A6
:407180003E20FFF77BFC0F4853210180134A07211183542101808115A1810E4940318E815B210180084800784007400F022806D0012801D10A482880FEBD03209FE7084816
:4071C000C01CF8E700102E40141C0020001F2E40E41A0020C0112E40001A2E4080142E40E0230000044800218183018302497420603908807047000060102E40074B188219
:40720000064B6033988B00090001084399158843002A01D11021484098837047A0102E40F3B50D2284B0920100924A780B78120213430393CA788B78120213434A7909796B
